:020000040800F2
:1000000000200020F10B0008250B00082B0B000836
:1000100000000000000000000000000000000000E0
:10002000000000000000000000000000310B00088C
:1000300000000000000000003B0B0008450B00081A
:10004000410C000800000000410C0008410C0008B1
:10005000410C0008410C0008410C0008410C00084C
:1000600000000000410C0008550B0008790B000847
:10007000410C0008410C0008410C00080000000081
:10008000410C0008410C000800000000410C000871
:10009000410C0008410C0008410C00089D0B0008B1
:1000A000410C0008410C0008410C0008410C0008FC
:1000B000CD0B000800000000000000000000000060
:1000C00010B5064C2378002B07D1054B002B02D02E
:1000D000044800E000BF0123237010BD0C00002085
:1000E0000000000064510008044B10B5002B03D041
:1000F0000349044800E000BF10BDC04600000000F6
:100100001000002064510008002243088B4274D381
:1001100003098B425FD3030A8B4244D3030B8B4208
:1001200028D3030C8B420DD3FF22090212BA030C11
:100130008B4202D31212090265D0030B8B4219D3F2
:1001400000E0090AC30B8B4201D3CB03C01A524112
:10015000830B8B4201D38B03C01A5241430B8B425A
:1001600001D34B03C01A5241030B8B4201D30B0343
:10017000C01A5241C30A8B4201D3CB02C01A52416A
:10018000830A8B4201D38B02C01A5241430A8B422D
:1001900001D34B02C01A5241030A8B4201D30B0216
:1001A000C01A5241CDD2C3098B4201D3CB01C01A30
:1001B000524183098B4201D38B01C01A524143093A
:1001C0008B4201D34B01C01A524103098B4201D328
:1001D0000B01C01A5241C3088B4201D3CB00C01A95
:1001E000524183088B4201D38B00C01A524143080D
:1001F0008B4201D34B00C01A5241411A00D2014632
:10020000524110467047FFE701B5002000F006F8A4
:1002100002BDC0460029F7D076E770477047C04658
:1002200080B584B000AFF860B960FB1D1A70FB6840
:10023000BA681A60FB68FA1D12781A71FB683021DF
:10024000180000F07CF8282000F060FDFB68022117
:10025000180000F074F8282000F058FDFB680C210D
:10026000180000F06CF8282000F050FDFB68042115
:10027000180000F064F8282000F048FDFB68012118
:10028000180000F05CF8022000F040FDFB68180048
:10029000BD4604B080BD90B585B000AF7860080061
:1002A0001100FB1C021C1A70BB1C0A1C1A700F20C8
:1002B0003B18FA1C12780F218A431A70FB1C1B781A
:1002C0001A010E243B191A7008217B1800221A60AB
:1002D0003A18BB1C12781B781343DBB20422134379
:1002E000DAB27B181A707B1800225A703A19BB1CBC
:1002F00012781B781343DBB204221343DAB27B1863
:100300009A700C007B180022DA707B6818687B6892
:100310001B7999B23A19042301F040FAC0467B6870
:100320001B6841229B5CDBB2213B5A425341DBB24A
:10033000002BF4D1C046C046BD4605B090BD80B587
:1003400082B000AF78600A00FB1C1A70FB1C1978A1
:100350007B6800221800FFF79EFFC046BD4602B032
:1003600080BD000080B582B000AF00F06BFC00F0F3
:1003700013F800F09BF900F073F900F083F800F037
:100380003BF900F0CBF803493B004E221800FFF781
:1003900047FFFEE72800002090B595B000AF20246D
:1003A0003B19180030231A00002104F0AFFE10237F
:1003B000FB18180010231A00002104F0A7FE3B00D0
:1003C000180010231A00002104F0A0FE21007B1861
:1003D0000A221A607B180122DA607B1810221A6147
:1003E0007B180122DA617B1802221A627B18002234
:1003F0005A627B18A02292039A627B180022DA626A
:100400007B18180002F0EEFF03005A1E9341DBB286
:10041000002B01D000F0F0F910217B1807221A60A0
:100420007B1802225A607B1800229A607B180022F7
:10043000DA607B180121180003F0EEFA03005A1E5F
:100440009341DBB2002B01D000F0D6F93B000C4AFF
:100450001A603B000022DA603B00802292005A6062
:100460003B00180003F01CFC03005A1E9341DBB252
:10047000002B01D000F0C0F9C046BD4615B090BDBC
:100480002000010080B500AF214B224A1A60204BAA
:10049000214A5A601E4B00229A601D4B0122DA60ED
:1004A0001B4B00221A611A4B00225A61184B002282
:1004B0009A61174B0022DA61154B00221A62144B25
:1004C000180001F0D5F803005A1E9341DBB2002B4F
:1004D00001D000F091F90E4B0021180002F0EAFE65
:1004E00003005A1E9341DBB2002B01D000F084F9C7
:1004F000074B0021180002F029FF03005A1E934108
:10050000DBB2002B01D000F077F9C046BD4680BDBC
:1005100028000020005400400B02000080B586B087
:1005200000AF3B1D180014231A00002104F0EEFD5B
:100530003B0000221A602E4B2E4A1A602C4B0022E0
:100540005A602B4B7F229A60294B3822FF32DA60A7
:10055000274B00221A61264B00225A61244B0022AD
:100560009A61234B180003F069FC03005A1E934163
:10057000DBB2002B01D000F03FF93B1D16221A70B0
:100580003B1D10225A703B1D00229A703B1D002219
:10059000DA603B1D00221A61391D154B012218003B
:1005A00003F0E4FC03005A1E9341DBB2002B01D0A0
:1005B00000F022F93B0004221A703B0003225A701B
:1005C0003B0030229A703B002322DA703900084B3E
:1005D0000122180003F070FD03005A1E9341DBB2A4
:1005E000002B01D000F008F9C046BD4606B080BD22
:1005F000040100200028004080B500AF164B174AC8
:100600001A60154B962212025A60134B00229A6010
:10061000114B0022DA60104B00221A610E4B0C22A3
:100620005A610D4B00229A610B4B0022DA610A4B92
:1006300000221A62084B00225A62074B180003F08E
:1006400081FE03005A1E9341DBB2002B01D000F063
:10065000D3F8C046BD4680BD2401002000440040C0
:1006600080B582B000AF104B5A690F4B01210A438D
:100670005A610D4B5B69012213407B607B6800224D
:1006800000210A2000F012FC0A2000F024FC0022C5
:1006900000210B2000F00AFC0B2000F01CFCC046DF
:1006A000BD4602B080BDC0460010024090B589B082
:1006B00000AF0C243B19180014231A00002104F089
:1006C00025FD494B5A69484B802189020A435A61EA
:1006D000454B5A6980239B021340BB60BB68424B69
:1006E0005A69414B8021C9020A435A613E4B5A69FB
:1006F0008023DB0213407B607B683B4B5A693A4B9B
:10070000802109030A435A61374B5A6980231B032E
:1007100013403B603B68F0231B0234480022190061
:1007200000F088FFF0239B0031480022190000F000
:1007300081FFD82359019023DB050022180000F027
:1007400079FF3B192B4A1A603B1900225A603B196A
:1007500002229A603A199023DB051100180000F07C
:10076000F9FD21007B18F02212021A600C003B19DF
:1007700001225A603B1900229A603B190022DA607C
:100780003B191A4A1900100000F0E4FD21007B1803
:10079000F02292001A600C003B1901225A603B19AA
:1007A00000229A603B190022DA603B19104A1900B6
:1007B000100000F0CFFD21007B18D82252011A60F2
:1007C0007B1801225A607B1800229A607B18002255
:1007D000DA607A189023DB051100180000F0BAFDEA
:1007E000C046BD4609B090BD00100240000400485C
:1007F000000800483104000080B500AF72B6C04662
:10080000FEE7000080B582B000AF0F4B9A690E4B37
:1008100001210A439A610C4B9B69012213407B60C2
:100820007B68094BDA69084B802149050A43DA6184
:10083000054BDA6980235B0513403B603B68C0468B
:10084000BD4602B080BDC0460010024090B58BB0DE
:1008500000AF786014243B19180014231A000021FB
:1008600004F054FC7B681B68464A934200D085E044
:10087000454B5A69444B8021C9020A435A61424B95
:100880005A698023DB0213403B613B6921007B18DE
:10089000C0221A607B1812225A607B1800229A60CC
:1008A0007B180322DA607B1801221A617B18374A11
:1008B0001900100000F04EFD334BDA69324B8021F5
:1008C00089030A43DA61304BDA6980239B031340C2
:1008D000FB60FB682E4B2F4A1A602D4B00225A609A
:1008E0002B4B00229A602A4B8022DA60284B002290
:1008F0001A61274B00225A61254B00229A61244B32
:100900000022DA61224B180000F002FB031E01D026
:10091000FFF772FF7B681E4ADA631D4B7A685A62E2
:100920001D4B1E4A1A601C4B10225A601A4B0022A3
:100930009A60194B8022DA60174B00221A61164B1D
:1009400000225A61144B00229A61134B0022DA6193
:10095000114B180000F0DCFA031E01D0FFF74CFF2A
:100960007B680D4A9A630C4B7A685A620022002118
:10097000172000F09BFA172000F0ADFAC046BD46E4
:100980000BB090BD0054004000100240000400482D
:100990007C00002030000240C00000201C0002400B
:1009A00080B582B000AF78607B681B68064A9342CE
:1009B00006D1064B1A6A054B802109020A431A62C6
:1009C000C046BD4602B080BD002800400010024075
:1009D00090B58BB000AF786014243B191800142335
:1009E0001A00002104F092FB7B681B68474A93427F
:1009F00000D086E0464BDA69454B802189020A43E4
:100A0000DA61434BDA6980239B0213403B613B6907
:100A10003F4B5A693E4B802189020A435A613C4B45
:100A20005A6980239B021340FB60FB6821007B18FE
:100A30000C221A607B1802225A607B1800229A60EE
:100A40007B180322DA607B1801221A617A1890233E
:100A5000DB051100180000F07DFC2E4B2E4A1A60B9
:100A60002C4B00225A602B4B00229A60294B80228B
:100A7000DA60284B00221A61264B00225A61254B6E
:100A800000229A61234B0022DA61224B180000F009
:100A90003FFA031E01D0FFF7AFFE7B681D4A5A677D
:100AA0001C4B7A685A621D4B1D4A1A601B4B102260
:100AB0005A601A4B00229A60184B8022DA60174B5A
:100AC00000221A61154B00225A61144B00229A61D0
:100AD000124B0022DA61114B180000F019FA031EC4
:100AE00001D0FFF789FE7B680C4A1A670B4B7A68C6
:100AF0005A62002200211C2000F0D8F91C2000F0CE
:100B0000EAF9C046BD460BB090BDC0460044004067
:100B100000100240AC01002058000240F00100200B
:100B20004400024080B500AFFEE780B500AFFEE7AD
:100B300080B500AFC046BD4680BD80B500AFC046A1
:100B4000BD4680BD80B500AF00F0C4F8C046BD46CC
:100B500080BD000080B500AF054B180000F003FB1E
:100B6000044B180000F0FFFAC046BD4680BDC046E9
:100B7000C00000207C00002080B500AF054B1800AD
:100B800000F0F1FA044B180000F0EDFAC046BD4643
:100B900080BDC046F0010020AC01002080B500AF50
:100BA000094B1B689A69E023DB00134004D0064B15
:100BB000180000F013FF03E0034B180000F0F4FEF0
:100BC000C046BD4680BDC0462800002080B500AFAD
:100BD000034B180003F00AFCC046BD4680BDC0466A
:100BE0002401002080B500AFC046BD4680BD000096
:100BF0000D488546FFF7F6FF0C480D490D4A0023C6
:100C000002E0D458C4500433C4188C42F9D30A4AC1
:100C10000A4C002301E013600432A242FBD304F02B
:100C20007DFAFFF79FFBFEE7002000200000002078
:100C30000C000020BC5100080C00002038020020ED
:100C4000FEE7000080B500AF074B1A68064B102185
:100C50000A431A60002000F009F8FFF7D3FD0023D3
:100C60001800BD4680BDC0460020024090B583B04C
:100C700000AF7860144B1C68144B1B781900FA23E2
:100C80009800FFF741FA030019002000FFF73CFA33
:100C90000300180000F02FF9031E01D001230FE01C
:100CA0007B68032B0BD8796801235B420022180074
:100CB00000F0FCF8064B7A681A60002300E001237C
:100CC0001800BD4603B090BD0000002008000020C1
:100CD0000400002080B500AF054B1B781A00054BBF
:100CE0001B68D218034B1A60C046BD4680BDC04683
:100CF000080000203402002080B500AF024B1B68C2
:100D00001800BD4680BDC0463402002080B584B0C6
:100D100000AF7860FFF7F0FF0300BB607B68FB600B
:100D2000FB68013305D00A4B1B781A00FB689B183F
:100D3000FB60C046FFF7E0FF0200BB68D31AFA6809
:100D40009A42F7D8C046C046BD4604B080BDC046F2
:100D50000800002080B582B000AF0200FB1D1A70B1
:100D6000FB1D1B787F2B09D8FB1D1B781A001F2346
:100D70001A40044B012191400A001A60C046BD464A
:100D800002B080BD00E100E090B583B000AF02008A
:100D90003960FB1D1A70FB1D1B787F2B28D82F4A4A
:100DA000FB1D1B785BB29B08C0339B009B58FA1D50
:100DB0001278110003220A40D200FF2191400A005C
:100DC000D2431A4011003B689B01FF221A40FB1DD1
:100DD0001B78180003230340DB009A401F48FB1DCB
:100DE0001B785BB29B080A43C0339B001A5031E06A
:100DF0001B4AFB1D1B7819000F230B40083B9B0867
:100E000006339B00D31804331B68FA1D12781100B7
:100E100003220A40D200FF2191400A00D2431A4027
:100E200011003B689B01FF221A40FB1D1B78180034
:100E300003230340DB009A400948FB1D1B781C007C
:100E40000F232340083B9B080A4306339B00C3182B
:100E500004331A60C046BD4603B090BD00E100E017
:100E600000ED00E080B582B000AF78607B685A1E6C
:100E700080235B049A4201D3012310E00A4B7A6875
:100E8000013A5A6001235B4203211800FFF77CFFFF
:100E9000054B00229A60044B07221A6000231800B9
:100EA000BD4602B080BDC04610E000E080B584B011
:100EB00000AFB9607A600F217B18021C1A70BA6803
:100EC0007B181B785BB211001800FFF75DFFC0466E
:100ED000BD4604B080BD80B582B000AF0200FB1DEE
:100EE0001A70FB1D1B785BB21800FFF733FFC0467A
:100EF000BD4602B080BD80B582B000AF78607B682F
:100F00001800FFF7AFFF03001800BD4602B080BD18
:100F100080B584B000AF78600023FB607B68002B55
:100F200001D1012336E07B682122022199547B689C
:100F30001B681B68FB60FB68184A1340FB607B68FA
:100F40005A687B689B681A437B68DB681A437B6836
:100F50001B691A437B685B691A437B689B691A4368
:100F60007B68DB691343FA681343FB607B681B688B
:100F7000FA681A607B68180000F0D0F97B680022DC
:100F80009A637B682122012199547B6820220021E9
:100F9000995400231800BD4604B080BD0FC0FFFF68
:100FA00080B586B000AFF860B9607A603B60172307
:100FB000FB1800221A70FB6820229B5C012B01D1D8
:100FC00002234FE0FB68202201219954FB68212273
:100FD0009B5CDBB2012B3AD1FB68212202219954A0
:100FE000FB6800229A63FB681B681A68FB681B6831
:100FF00001218A431A603B687A68B968F86800F092
:1010000060F9FB68DB6A002B08D0FB681B681A6874
:10101000FB681B680E210A431A600FE0FB681B681F
:101020001A68FB681B680A210A431A60FB681B6880
:101030001A68FB681B6804218A431A60FB681B68F6
:101040001A68FB681B6801210A431A6007E0FB6805
:101050002022002199541723FB1802221A7017230B
:10106000FB181B781800BD4606B080BD80B582B065
:1010700000AF78607B6821229B5CDBB2022B08D03A
:101080007B6804229A637B68202200219954012303
:1010900020E07B681B681A687B681B680E218A4306
:1010A0001A607B681B681A687B681B6801218A4389
:1010B0001A607B681A6C7B68DB6B012191400A0027
:1010C0005A607B682122012199547B6820220021EB
:1010D000995400231800BD4602B080BD80B584B08D
:1010E00000AF78600F217B1800221A707B682122E4
:1010F0009B5CDBB2022B06D07B6804229A637B18D0
:1011000001221A7028E07B681B681A687B681B68DC
:101110000E218A431A607B681B681A687B681B680B
:1011200001218A431A607B681A6C7B68DB6B0121A2
:1011300091400A005A607B682122012199547B6802
:101140002022002199547B685B6B002B04D07B68C4
:101150005B6B7A68100098470F23FB181B78180008
:10116000BD4604B080BD80B584B000AF78607B68B8
:10117000DB6B1B68FB607B681B681B68BB607B6864
:101180001B6C04229A401300FA68134024D0BB68F9
:101190000422134020D07B681B681B682022134068
:1011A00007D17B681B681A687B681B6804218A4327
:1011B0001A607B681A6C7B68DB6B042191400A0023
:1011C0005A607B68DB6A002B00D16AE07B68DB6ACF
:1011D0007A681000984764E07B681B6C02229A4092
:1011E0001300FA6813402BD0BB680222134027D0AB
:1011F0007B681B681B68202213400BD17B681B682F
:101200001A687B681B680A218A431A607B6821225E
:10121000012199547B681A6C7B68DB6B0221914039
:101220000A005A607B682022002199547B689B6ADF
:10123000002B36D07B689B6A7A681000984730E0B4
:101240007B681B6C08229A401300FA68134028D070
:10125000BB680822134024D07B681B681A687B682F
:101260001B680E218A431A607B681A6C7B68DB6BF3
:10127000012191400A005A607B6801229A637B68D1
:101280002122012199547B682022002199547B68F6
:101290001B6B002B05D07B681B6B7A68100098478E
:1012A000FFE7C046BD4604B080BD80B582B000AF48
:1012B00078607B6821229B5CDBB21800BD4602B0DF
:1012C00080BD80B584B000AFF860B9607A603B60E3
:1012D000FB681A6CFB68DB6B012191400A005A60C5
:1012E000FB681B683A685A60FB685B68102B08D182
:1012F000FB681B687A689A60FB681B68BA68DA60EA
:1013000007E0FB681B68BA689A60FB681B687A682C
:10131000DA60C046BD4604B080BD000080B582B032
:1013200000AF78607B681B68084A944663441421C8
:101330001800FEF7E9FE03009A007B681A647B68D8
:10134000034ADA63C046BD4602B080BDF8FFFDBF68
:101350000000024080B586B000AF7860396000239D
:101360007B614FE13B681B6801217A6991400A006B
:101370001340FB60FB68002B00D140E13B685B68D9
:1013800003221340012B05D03B685B680322134006
:10139000022B30D17B689B683B617B695B00032239
:1013A0009A401300DA433B6913403B613B68DA68BB
:1013B0007B695B009A4013003A6913433B617B6889
:1013C0003A699A607B685B683B6101227B699A405D
:1013D0001300DA433B6913403B613B685B681B09C0
:1013E00001221A407B699A4013003A6913433B611A
:1013F0007B683A695A603B685B6803221340032BA1
:1014000017D07B68DB683B617B695B0003229A40F5
:101410001300DA433B6913403B613B689A687B6980
:101420005B009A4013003A6913433B617B683A6959
:10143000DA603B685B6803221340022B23D17B698F
:10144000DA087B6808329200D3583B617B69072237
:1014500013409B000F229A401300DA433B6913406C
:101460003B613B681A697B6907210B409B009A40EE
:1014700013003A6913433B617B69DA087B680832E1
:1014800092003969D1507B681B683B617B695B00C6
:1014900003229A401300DA433B6913403B613B68E7
:1014A0005B6803221A407B695B009A4013003A692B
:1014B00013433B617B683A691A603B685A68C023F2
:1014C0009B02134000D19AE0544B9A69534B01217F
:1014D0000A439A61514B9B6901221340BB60BB6870
:1014E0004F4A7B699B0802339B009B583B617B6999
:1014F000032213409B000F229A401300DA433B69FA
:1015000013403B617A689023DB059A4213D07B68D5
:10151000444A93420DD07B68434A934207D07B688C
:10152000424A934201D1032306E0052304E002234B
:1015300002E0012300E000237A6903210A409200BF
:1015400093403A6913433B6135497B699B080233F9
:101550009B003A695A50364B9B683B61FB68DA4303
:101560003B6913403B613B685A6880235B0313402F
:1015700003D03A69FB6813433B612D4B3A699A608B
:101580002B4BDB683B61FB68DA433B6913403B61F3
:101590003B685A6880239B03134003D03A69FB6879
:1015A00013433B61224B3A69DA60214B5B683B6134
:1015B000FB68DA433B6913403B613B685A68802310
:1015C0009B02134003D03A69FB6813433B61184BFD
:1015D0003A695A60164B1B683B61FB68DA433B690A
:1015E00013403B613B685A6880235B02134003D081
:1015F0003A69FB6813433B610D4B3A691A607B699A
:1016000001337B613B681A687B69DA40131E00D0A6
:10161000A8E6C046C046BD4606B080BD00100240E8
:10162000000001400004004800080048000C004889
:101630000004014080B582B000AF7860080011005E
:10164000BB1C021C1A807B1C0A1C1A707B1C1B789A
:10165000002B04D0BB1C1A887B689A6103E0BB1C7A
:101660001A887B689A62C046BD4602B080BD000001
:1016700080B582B000AF78607B68002B01D1012378
:1016800082E07B6841229B5CDBB2002B07D17B6848
:101690004022002199547B681800FFF7D7F87B6837
:1016A0004122242199547B681B681A687B681B6857
:1016B00001218A431A607B685A687B681B68344939
:1016C0000A401A617B681B689A687B681B6831490D
:1016D0000A409A607B68DB68012B08D17B689A68B6
:1016E0007B681B68802109020A439A6007E07B68D7
:1016F0009A687B681B68842109020A439A607B68A8
:10170000DB68022B04D17B681B68802212015A60BF
:101710007B681B685A687B681B681F490A435A60CC
:101720007B681B68DA687B681B681A490A40DA60C4
:101730007B681A697B685B691A4311007B689B6947
:101740001A027B681B680A43DA607B68D9697B6888
:101750001A6A7B681B680A431A607B681B681A68F0
:101760007B681B6801210A431A607B6800225A6467
:101770007B684122202199547B6800221A637B6890
:1017800042220021995400231800BD4602B080BDBA
:10179000FFFFFFF0FF7FFFFF00800002B0B588B0C1
:1017A00002AFF86008007A6019000A23FB18021CD7
:1017B0001A800823FB180A1C1A80FB6841229B5CD4
:1017C000DBB2202B00D0DDE0FB681B689A69802328
:1017D0001B021A4080231B029A4201D10223D2E04D
:1017E000FB6840229B5C012B01D10223CBE0FB680C
:1017F000402201219954FB68412221219954FB6820
:10180000422210219954FB6800225A64FB687A68CE
:101810005A62FB680822BA1812885A85FB685C4A2B
:10182000DA62FB685B4A5A63FB685B8D9BB2FF2BF5
:1018300006D9FB68FF221A8580235B047B6107E0E1
:10184000FB685B8D9AB2FB681A8580239B047B61E1
:10185000FB681B8D002B00D178E0FB689B6B002B95
:1018600023D0FB689B6B4C4A9A62FB689B6B4B4A8C
:101870001A63FB689B6B0022DA62FB689B6B002299
:101880005A63FB68986B7968FB681B6828331A00F9
:10189000FB681B8D13257C19FFF782FB0300237067
:1018A0007B191B78002B3DD113E0FB6841222021DE
:1018B0009954FB68422200219954FB685B6C80229A
:1018C0001A43FB685A64FB684022002199540123A3
:1018D00059E0FB681B8DDAB27C690A23FB18198872
:1018E000F8682F4B0093230001F0B8FBFB685B8D79
:1018F0009AB2FB681B8DD31A9AB2FB685A85FB68B3
:10190000402200219954FB681021180001F0E0FBEF
:10191000FB681B681A68FB681B688021C9010A43C1
:101920001A602DE0FB68412220219954FB68422275
:1019300000219954FB685B6C10221A43FB685A64BF
:10194000FB6840220021995401231CE0FB68154AE2
:101950005A63FB681B8DDAB280239C040A23FB18B0
:101960001988F8680E4B0093230001F077FBFB68A1
:10197000402200219954FB680121180001F0A8FBC6
:10198000002300E002231800BD4606B0B0BDC046EB
:101990000000FFFF951F00084D2F0008ED2F0008E5
:1019A00000200080411B000880B584B000AF786043
:1019B0007B681B689B69FB607B681B681B68BB605E
:1019C0007B685B6B002B05D07B685B6BBA68F96842
:1019D00078689847C046BD4604B080BD80B586B0E3
:1019E00000AF78607B681B689B697B617B681B68C4
:1019F0001B683B617A6980235B0013400ED03B6912
:101A0000802213400AD07B685B6C01221A437B68FA
:101A10005A647B681B6880225200DA617A698023ED
:101A2000DB0013400ED03B69802213400AD07B6854
:101A30005B6C08221A437B685A647B681B688022AF
:101A4000D200DA617A6980239B0013400ED03B6993
:101A5000802213400AD07B685B6C02221A437B68A9
:101A60005A647B681B6880229200DA617B685B6C39
:101A7000FB60FB680B22134005D0FA687B681100FD
:101A8000180001F015F9C046BD4606B080BD80B50E
:101A900082B000AF7860C046BD4602B080BD80B560
:101AA00082B000AF7860C046BD4602B080BD80B550
:101AB00082B000AF7860C046BD4602B080BD80B540
:101AC00082B000AF7860C046BD4602B080BD80B530
:101AD00082B000AF786008001100FB1C021C1A7075
:101AE0003B000A1C1A80C046BD4602B080BD80B5CE
:101AF00082B000AF7860C046BD4602B080BD80B500
:101B000082B000AF7860C046BD4602B080BD80B5EF
:101B100082B000AF7860C046BD4602B080BD80B5DF
:101B200082B000AF7860C046BD4602B080BD80B5CF
:101B300082B000AF7860C046BD4602B080BD0000F4
:101B400090B589B002AFF860B9607A60BB687B611C
:101B5000FB6840229B5C012B01D1022313E1FB684F
:101B60004022012199547B691022134012D07B68D6
:101B7000102213400ED0FB681B681022DA61FB684C
:101B80005B6C04221A43FB685A64FB68180001F07E
:101B9000BAF9E5E07B690422134021D07B68042276
:101BA00013401DD07B69042293437B61FB681B6853
:101BB0005A6AFB685B6AD2B21A70FB685B6A5A1C8D
:101BC000FB685A62FB681B8D013B9AB2FB681A8561
:101BD000FB685B8D9BB2013B9AB2FB685A85BFE004
:101BE0007B69022213401CD07B680222134018D06C
:101BF000FB685B6A1A78FB681B689A62FB685B6A21
:101C00005A1CFB685A62FB681B8D013B9AB2FB6849
:101C10001A85FB685B8D9BB2013B9AB2FB685A85C3
:101C20009EE07B698022134000D169E07B684022FE
:101C3000134065D0FB685B8D9BB2002B4AD0FB68DC
:101C40001B8D002B46D1FB681B685B689AB2122182
:101C50007B189205920D1A80FB685B8D9BB2FF2B5F
:101C600010D9FB68FF221A85FB681B8DDAB280232E
:101C70005C047B181988F86800230093230001F0A6
:101C8000EDF93CE0FB685B8D9AB2FB681A85FB6856
:101C9000DB6A3F4A93420ED0FB681B8DDAB2FB68C9
:101CA000DC6A1223FB181988F868002300932300CC
:101CB00001F0D4F923E0FB681B8DDAB280239C0489
:101CC0001223FB181988F86800230093230001F001
:101CD000C5F914E0FB681B685A6880239B041A400E
:101CE00080239B049A4204D0FB68180000F0F4FCA7
:101CF00036E0FB684021180000F0DAFF30E02FE00A
:101D00007B69402213402BD07B684022134027D0B0
:101D1000FB685B8D9BB2002B1DD1FB681B685A686A
:101D200080239B041A4080239B049A4218D0FB68AE
:101D3000DB6A174A934209D1FB681B685A68FB6843
:101D40001B688021C9010A435A6009E0FB6818003A
:101D500000F0C2FC04E0FB684021180000F0A8FF7E
:101D60007B692022134009D07B682022134005D0D4
:101D70007A69FB681100180000F054FDFB684022EE
:101D80000021995400231800BD4607B090BDC046FD
:101D90000000FFFF80B586B000AFF860B9607A60E0
:101DA000FB68DB6A7B61BB683B61FB6840229B5C34
:101DB000012B01D10223E6E0FB6840220121995466
:101DC0003B692022134009D07B682022134005D0B4
:101DD0003A69FB681100180000F0F2FD3B6910221F
:101DE000134052D07B68102213404ED0FB685B8DAD
:101DF0009BB2002B2DD1FB6841229B5CDBB2282BD0
:101E00000BD17A6980239B049A4206D13A69FB6818
:101E10001100180000F0F4FE36E0FB6841229B5CE4
:101E2000DBB2292B10D17B69594A93420CD0FB6855
:101E30001B681022DA61FB68180001F064F8FB6887
:101E4000180000F08BFC1FE0FB681B681022DA61B1
:101E500091E0FB681B681022DA61FB685B6C04226E
:101E60001A43FB685A647B69002B05D07A6980238A
:101E70005B049A4200D07EE0FB685A6CFB6811005C
:101E8000180000F015FF76E075E03B69042213406E
:101E90002FD07B68042213402BD0FB685B8D9BB254
:101EA000002B18D0FB681B685A6AFB685B6AD2B2C9
:101EB0001A70FB685B6A5A1CFB685A62FB681B8DD0
:101EC000013B9AB2FB681A85FB685B8D9BB2013BB4
:101ED0009AB2FB685A85FB685B8D9BB2002B4CD194
:101EE0007B692B4A934248D0FB68180000F036FC0F
:101EF00043E03B69082213400AD07B680822134064
:101F000006D03A69FB681100180000F041FB35E08B
:101F10003B690222134031D07B68022213402DD04E
:101F2000FB685B8D9BB2002B18D0FB685B6A1A784C
:101F3000FB681B689A62FB685B6A5A1CFB685A6202
:101F4000FB685B8D9BB2013B9AB2FB685A85FB68CC
:101F50001B8D013B9AB2FB681A850FE07A698023DA
:101F60005B049A4202D07B69002B07D1FB68180002
:101F700000F0F4FB02E0C04600E0C046FB684022EF
:101F80000021995400231800BD4606B080BDC0460C
:101F90000000FFFF90B589B002AFF860B9607A60C9
:101FA000FB6840229B5C012B01D10223E7E0FB6828
:101FB000402201219954BB681022134017D07B683E
:101FC0001022134013D0FB681B681022DA61FB68F3
:101FD0005B6C04221A43FB685A64FB6820211800DA
:101FE00001F076F8FB68180000F08DFFC2E0BB68D6
:101FF0008022134000D17CE07B684022134000D156
:1020000077E0FB681B681A68FB681B6840218A43FD
:102010001A60FB685B8D9BB2002B55D0FB681B6878
:102020005B689AB21223FB189205920D1A80FB6826
:102030005B8D9BB2FF2B06D9FB68FF221A8580239C
:102040005B047B6110E0FB685B8D9AB2FB681A85CC
:10205000FB68DB6A4C4A934203D0FB68DB6A7B6116
:1020600002E080239B047B61FB681B8DDAB27C69F4
:102070001223FB181988F86800230093230000F04E
:10208000EDFFFB685B8D9AB2FB681B8DD31A9AB289
:10209000FB685A85FB6841229B5CDBB2222B09D18D
:1020A000FB681B681A68FB681B68802109020A43E9
:1020B0001A605FE0FB681B681A68FB681B68802178
:1020C000C9010A431A6055E0FB681B685A688023FF
:1020D0009B041A4080239B049A4204D0FB6818009A
:1020E00000F0FAFA46E0FB684021180000F0E0FD3D
:1020F00040E0BB68402213402CD07B684022134054
:1021000028D0FB685B8D9BB2002B1DD1FB681B6840
:102110005A6880239B041A4080239B049A4228D04B
:10212000FB68DB6A184A934209D1FB681B685A684E
:10213000FB681B688021C9010A435A6019E0FB68EB
:10214000180000F0C9FA14E0FB684021180000F004
:10215000AFFD0EE0BB68202213400BD07B6820222D
:10216000134007D0BA68FB681100180000F05AFB52
:1021700000E0C046FB68402200219954002318006B
:10218000BD4607B090BDC0460000FFFF90B589B0C6
:1021900002AFF860B9607A60884B7B61FB684022CF
:1021A0009B5C012B01D1022304E1FB684022012149
:1021B0009954BB681022134017D07B68102213403B
:1021C00013D0FB681B681022DA61FB685B6C042289
:1021D0001A43FB685A64FB682021180000F078FF5E
:1021E000FB68180000F08FFEDFE0BB68022213409E
:1021F0000DD07B680222134009D0FB681B68FA6887
:10220000126D9A62FB68012252421A65CDE0BB68EA
:10221000802213405ED07B68402213405AD0FB6876
:102220001021180000F054FFFB685B8D9BB2002B5F
:102230004AD0FB685B8D9BB2FF2B10D9FB68FF2255
:102240001A85FB68DB6C99B2FB681B8DDAB28023C0
:102250005B04F8680024009400F000FF11E0FB68C4
:102260005B8D9AB2FB681A85FB68DB6C99B2FB68E0
:102270001B8DDAB280239B04F8680024009400F0E0
:10228000EDFEFB685B8D9AB2FB681B8DD31A9AB288
:10229000FB685A85FB6841229B5CDBB2222B09D18B
:1022A000FB681B681A68FB681B68802109020A43E7
:1022B0001A607AE0FB681B681A68FB681B6880215B
:1022C000C9010A431A6070E0FB684021180000F061
:1022D000EFFC6AE0BB684022134058D07B68402284
:1022E000134054D0FB6841229B5CDBB2222B01D10E
:1022F000334B7B61FB685B8D9BB2FF2B11D9FB6875
:10230000FF221A85FB68DB6C99B2FB681B8DDAB281
:1023100080235C04F8687B690093230000F09EFE34
:1023200012E0FB685B8D9AB2FB681A85FB68DB6C78
:1023300099B2FB681B8DDAB280239C04F8687B6934
:102340000093230000F08AFEFB685B8D9AB2FB6865
:102350001B8DD31A9AB2FB685A85FB6841229B5C9D
:10236000DBB2222B09D1FB681B681A68FB681B686B
:10237000802109020A431A6017E0FB681B681A688B
:10238000FB681B688021C9010A431A600DE0BB6825
:102390002022134009D07B682022134005D0BA6860
:1023A000FB681100180000F03DFAFB684022002194
:1023B000995400231800BD4607B090BD002000804E
:1023C0000024008080B588B000AFF860B9607A6002
:1023D000FB68DB6ABB610023FB61FB6840229B5CFE
:1023E000012B01D10223CDE0FB6840220121995449
:1023F000BB682022134009D07B682022134005D0FF
:10240000BA68FB681100180000F0DAFABB68102205
:10241000134000D1A3E07B681022134000D19EE05E
:102420007A688023DB01134005D17A6880231B0280
:10243000134000D18CE0FB68DB6B002B0CD07A687A
:1024400080231B02134007D0FB68DB6B1B685B68B3
:10245000002B01D10123FB61FB689B6B002B0CD08F
:102460007A688023DB01134007D0FB689B6B1B68F5
:102470005B68002B01D10123FB61FB69012B2DD18E
:10248000FB6841229B5CDBB2282B0BD1BA6980230D
:102490009B049A4206D1BA68FB681100180000F04C
:1024A000AFFB54E0FB6841229B5CDBB2292B10D1CF
:1024B000BB69364A93420CD0FB681B681022DA6174
:1024C000FB68180000F01FFDFB68180000F046F9DB
:1024D0003DE0FB681B681022DA613EE0FB681B6888
:1024E0001022DA61FB685B6C04221A43FB685A64B1
:1024F0001723FB18FA684121525C1A70BB69002B44
:1025000004D0BA6980235B049A4226D11722BB18F3
:102510001B78212B03D0BB181B78292B03D1FB6818
:1025200021221A630BE01722BB181B78222B03D041
:10253000BB181B782A2B02D1FB6822221A63FB6886
:102540005A6CFB681100180000F0B2FB05E004E0D3
:10255000FB681B681022DA610FE0C0460DE0BB6823
:102560000822134009D07B680822134005D0BA68BE
:10257000FB681100180000F00BF8FB6840220021F6
:10258000995400231800BD4608B080BD0000FFFF2D
:10259000B0B584B000AF786039607B6841229B5C45
:1025A000DBB21A0028231340282B00D088E07B6878
:1025B0001B689B691B0CDAB20F257B1901210A40AD
:1025C0001A707B681B689B691B0C9AB20C203B1825
:1025D000FE210A401A807B681B689B689AB20A2415
:1025E0003B199205920D1A807B681B68DB689AB2D2
:1025F0000823FB18FE210A401A807B68DB68022B47
:1026000048D121007B181B88DB099AB23B181B8834
:1026100053409BB21A000623134020D13B187A186E
:1026200012881A807B689B6C5A1C7B689A647B6852
:102630009B6C022B4CD17B6800229A647B681B68E0
:102640000822DA617B684022002199543B181A88DD
:102650007B1919787B681800FFF739FA38E00C24E9
:102660003B190822BA1812881A8080231A027B6844
:102670001100180000F0BAFD7B6840220021995437
:102680003B191A880F23FB1819787B681800FFF78D
:102690001EFA1DE080231A027B681100180000F06A
:1026A000A5FD7B684022002199540C23FB181A8851
:1026B0000F23FB1819787B681800FFF708FA07E06A
:1026C0007B681B680822DA617B68402200219954EC
:1026D000C046BD4604B0B0BD80B582B000AF7860E2
:1026E0007B684222002199547B6841229B5CDBB2CB
:1026F000212B17D17B684122202199547B6811221C
:102700001A637B6800225A637B680121180000F07D
:102710006DFD7B684022002199547B681800FFF70B
:10272000B6F916E07B684122202199547B68122279
:102730001A637B6800225A637B680221180000F04C
:1027400055FD7B684022002199547B681800FFF7F3
:10275000A6F9C046BD4602B080BD000080B584B079
:1027600000AF78607B681B681B68FB607B68422257
:1027700000219954FA688023DB01134008D07B685C
:102780001B681A687B681B6824490A401A600CE0C1
:10279000FA6880231B02134007D07B681B681A6805
:1027A0007B681B681E490A401A607B6841229B5C5B
:1027B000DBB2292B14D17B684122282199547B68F4
:1027C00021221A637B680121180000F00FFD7B684D
:1027D0004022002199547B681800FFF768F919E03E
:1027E0007B6841229B5CDBB22A2B13D17B684122A0
:1027F000282199547B6822221A637B6802211800E1
:1028000000F0F4FC7B684022002199547B6818009A
:10281000FFF755F9C046BD4604B080BDFFBFFFFFBE
:10282000FF7FFFFF80B586B000AF786039603B68FE
:102830007B617B681B682022DA617B6841229B5C9C
:10284000DBB2212B08D17B680121180000F0CEFCFF
:102850007B6811221A630DE07B6841229B5CDBB22E
:10286000222B07D17B680221180000F0BFFC7B6897
:1028700012221A637B681B685A687B681B684E4982
:102880000A405A607B6800225A637B684B4ADA62CE
:102890007B691022134009D07B681B681022DA6123
:1028A0007B685B6C04221A437B685A647B68412214
:1028B0009B5CDBB2602B09D17B690422134005D0FD
:1028C0007B681B685B6ADBB2FB60FB687B68180097
:1028D00000F019FB7B685B6C3B617B6841229B5C71
:1028E000DBB2602B02D03B69002B07D07B685A6CAF
:1028F0007B681100180000F0DBF958E07B6841228A
:102900009B5CDBB2212B26D17B684122202199548C
:102910007B6800221A637B6842229B5CDBB2402BFF
:102920000CD17B684222002199547B68402200210F
:1029300099547B681800FFF7E2F838E07B68422280
:10294000002199547B684022002199547B6818002B
:10295000FFF79DF82BE07B6841229B5CDBB2222BCA
:1029600025D17B684122202199547B6800221A637B
:102970007B6842229B5CDBB2402B0CD17B684222FD
:10298000002199547B684022002199547B681800EB
:10299000FFF7BDF80BE07B684222002199547B6869
:1029A0004022002199547B681800FFF778F8C04650
:1029B000BD4606B080BDC04600E800FE0000FFFF37
:1029C00080B586B000AF786039607B681B681B6893
:1029D0003B613B687B610F203B187A684121525C68
:1029E0001A707B681B682022DA613B181B78212B48
:1029F00003D03B181B78292B09D17B4A7B68110037
:102A0000180000F0F3FB7B6821221A6311E00F220B
:102A1000BB181B78222B03D0BB181B782A2B08D19C
:102A2000724A7B681100180000F0E0FB7B682222EC
:102A30001A637B681B685A687B681B6880210902DF
:102A40000A435A607B681B685A687B681B68684940
:102A50000A405A607B68180000F055FA3A698023F2
:102A6000DB01134013D07B681B681A687B681B6806
:102A700060490A401A607B689B6B002B1FD07B6803
:102A80009B6B1B685B689AB27B685A8517E03A6952
:102A900080231B02134012D07B681B681A687B6876
:102AA0001B6855490A401A607B68DB6B002B06D017
:102AB0007B68DB6B1B685B689AB27B685A857B69B5
:102AC0000422134020D07B69042293437B617B68FE
:102AD0001B685A6A7B685B6AD2B21A707B685B6A51
:102AE0005A1C7B685A627B681B8D002B0CD07B685C
:102AF0001B8D013B9AB27B681A857B685B8D9BB20C
:102B0000013B9AB27B685A857B685B8D9BB2002B38
:102B100005D07B685B6C04221A437B685A647B682F
:102B20004222002199547B6800225A637B685B6CC7
:102B3000002B13D07B685A6C7B681100180000F0E2
:102B4000B7F87B6841229B5CDBB2282B47D17A69BE
:102B50007B681100180000F053F840E07B68DB6AE6
:102B6000264A934216D07B681800FFF7F7FD7B6872
:102B7000224ADA627B684122202199547B68002234
:102B80001A637B684022002199547B681800FEF785
:102B9000AEFF24E07B6841229B5CDBB2222B0FD18D
:102BA0007B684122202199547B6800221A637B684C
:102BB0004022002199547B681800FEF780FF0EE048
:102BC0007B684122202199547B6800221A637B682C
:102BD0004022002199547B681800FEF768FFC04628
:102BE000BD4606B080BDC0460180000002800000E6
:102BF00000E800FEFFBFFFFFFF7FFFFF0000FFFFB9
:102C000080B582B000AF786039607B68264ADA62AE
:102C10007B6800221A637B684122202199547B68DB
:102C20004222002199547B6800225A633B680422A7
:102C3000134022D07B681B685A6A7B685B6AD2B2F9
:102C40001A707B685B6A5A1C7B685A627B681B8DB2
:102C5000002B12D07B681B8D013B9AB27B681A85D2
:102C60007B685B8D9BB2013B9AB27B685A857B681F
:102C70005B6C04221A437B685A640C4A7B6811001F
:102C8000180000F0B3FA7B681B681022DA617B68D9
:102C90004022002199547B681800FEF728FFC046A7
:102CA000BD4602B080BDC0460000FFFF03800000AB
:102CB00080B584B000AF786039600F203B187A6827
:102CC0004121525C1A707B684222002199547B6832
:102CD000724ADA627B6800225A857B685A6C3B68CC
:102CE0001A437B685A643B181B78282B07D03B1883
:102CF0001B78292B03D03B181B782A2B0CD17B681F
:102D00000321180000F072FA7B68412228219954AF
:102D10007B68634A5A6332E0624A7B68110018009C
:102D200000F064FA7B68180000F0EDF87B6841223F
:102D30009B5CDBB2602B1FD07B6841222021995421
:102D40007B681B689B6920221340202B14D17B6871
:102D50001B689B6910221340102B09D17B681B68EC
:102D60001022DA617B685B6C04221A437B685A6428
:102D70007B681B682022DA617B6800225A637B68CB
:102D80001B6BBB607B689B6B002B3BD0BB68112B24
:102D900002D0BB68212B35D17B681B681A68802361
:102DA000DB011A408023DB019A4207D17B681B6854
:102DB0001A687B681B683C490A401A607B689B6BF9
:102DC0001800FEF772FA0300012B16D07B689B6B8C
:102DD000364A5A637B684022002199547B689B6B7A
:102DE0001800FEF77BF9031E51D07B689B6B5A6B72
:102DF0007B689B6B1800904749E07B68180000F0E7
:102E000059F844E07B68DB6B002B3BD0BB68122B8E
:102E100002D0BB68222B35D17B681B681A688023DF
:102E20001B021A4080231B029A4207D17B681B6851
:102E30001A687B681B681E490A401A607B68DB6B56
:102E40001800FEF732FA0300012B16D07B68DB6B0B
:102E5000164A5A637B684022002199547B68DB6BD9
:102E60001800FEF73BF9031E13D07B68DB6B5A6B2F
:102E70007B68DB6B180090470BE07B68180000F064
:102E800019F806E07B68180000F014F802E0C0466C
:102E900000E0C046C046BD4604B080BD0000FFFF54
:102EA000951D000803800000FFBFFFFF1F300008D2
:102EB000FF7FFFFF80B582B000AF78607B68412262
:102EC0009B5CDBB2602B0FD17B684122202199549F
:102ED0007B6800221A637B684022002199547B683A
:102EE0001800FEF724FE0AE07B6800221A637B6864
:102EF0004022002199547B681800FEF710FEC0465E
:102F0000BD4602B080BD80B582B000AF78607B68FE
:102F10001B689B6902221340022B03D17B681B684C
:102F200000229A627B681B689B6901221340012B77
:102F300007D07B681B689A697B681B6801210A437C
:102F40009A61C046BD4602B080BD000080B584B025
:102F500000AF78607B685B6AFB60FB681B681A687F
:102F6000FB681B6820490A401A60FB685B8D9BB2B6
:102F7000002B05D1FB682021180000F0A9F82EE0F5
:102F8000FB685B6AFA68128D9A18FB685A62FB68E4
:102F90005B8D9BB2FF2B03D9FB68FF221A8504E0EF
:102FA000FB685B8D9AB2FB681A85FB68986BFB68BF
:102FB0005B6A1900FB681B6828331A00FB681B8DCD
:102FC000FDF7EEFF031E05D0FB6810211800FFF788
:102FD0006FFE04E0FB684021180000F079F8C0465D
:102FE000BD4604B080BDC046FFBFFFFF80B584B0C2
:102FF00000AF78607B685B6AFB60FB681B685A689F
:10300000FB681B68802109020A435A60FB68102193
:103010001800FFF74DFEC046BD4604B080BD80B528
:1030200084B000AF78607B685B6AFB60FB689B6B79
:10303000002B03D0FB689B6B00225A63FB68DB6BA1
:10304000002B03D0FB68DB6B00225A63FB6818007F
:10305000FFF730FFC046BD4604B080BD90B587B0D5
:1030600000AFF860080011007B600A243B19021CC5
:103070001A8009203B180A1C1A703B191B889B05F3
:103080009A0D3B181B781904FF231B040B401A43AD
:103090007B681A43BB6A13435B005B087B61FB6878
:1030A0001B685B68BA6A510D8022D2000A4007494A
:1030B0000A43D2431A401100FB681B687A690A432D
:1030C0005A60C046BD4607B090BDC046FF63FF03CF
:1030D00080B584B000AF78600A00BB1C1A80002362
:1030E000FB607B685A6B3E4B9A4235D07B685A6BCB
:1030F0003C4B9A4230D07B685A6B3B4B9A422BD068
:10310000BB1C00229B5E002B03DAFB68B822134332
:10311000FB60BB1C1B880122134003D0FB68F2221A
:103120001343FB60BB1C1B880222134003D0FB68C7
:10313000F4221343FB60BB1C1B88102B03D1FB68DC
:1031400090221343FB60BB1C1B88202B3CD1FB68E7
:1031500020221343FB6037E0BB1C00229B5E002B48
:1031600003DAFB68B8221343FB60BB1C1B880122F7
:10317000134003D0FB68F2221343FB60BB1C1B8887
:103180000222134003D0FB68F4221343FB60BB1CF4
:103190001B88102B03D1FB6890221343FB60BB1CE0
:1031A0001B88202B03D1FB6860221343FB607B68E4
:1031B0005A6B0D4B9A4207D0BB1C1B88402B03D186
:1031C000FB6840221343FB607B681B6819687B68BF
:1031D0001B68FA680A431A60C046BD4604B080BD49
:1031E000951F0008C52300088D21000880B584B014
:1031F00000AF78600A00BB1C1A800023FB60BB1C78
:103200001B880122134010D0FB6842221343FB604D
:103210007B6841229B5CDBB21A0028231340282BD9
:1032200003D0FB68B0221343FB60BB1C1B88022247
:10323000134010D0FB6844221343FB607B6841229B
:103240009B5CDBB21A0028231340282B03D0FB68B9
:10325000B0221343FB60BB1C00229B5E002B03DAF1
:10326000FB68B8221343FB60BB1C1B88102B03D1E7
:10327000FB6890221343FB60BB1C1B88202B03D1EF
:10328000FB6820221343FB60BB1C1B88402B03D12F
:10329000FB6840221343FB607B681B681A68FB686D
:1032A000D9437B681B680A401A60C046BD4604B01B
:1032B00080BD000080B582B000AF786039607B6867
:1032C00041229B5CDBB2202B38D17B6840229B5C87
:1032D000012B01D1022332E07B6840220121995465
:1032E0007B684122242199547B681B681A687B689B
:1032F0001B6801218A431A607B681B681A687B6817
:103300001B6811490A401A607B681B6819687B6852
:103310001B683A680A431A607B681B681A687B68F6
:103320001B6801210A431A607B68412220219954BD
:103330007B68402200219954002300E002231800FA
:10334000BD4602B080BDC046FFEFFFFF80B584B030
:1033500000AF786039607B6841229B5CDBB2202B38
:1033600039D17B6840229B5C012B01D1022333E0E1
:103370007B684022012199547B6841222421995481
:103380007B681B681A687B681B6801218A431A6086
:103390007B681B681B68FB60FB68114A1340FB607D
:1033A0003B681B02FA681343FB607B681B68FA6882
:1033B0001A607B681B681A687B681B6801210A43D6
:1033C0001A607B684122202199547B6840220021A9
:1033D0009954002300E002231800BD4604B080BDCC
:1033E000FFF0FFFF80B588B000AF78607B68002BEE
:1033F00001D1012301E37B681B680122134000D146
:103400008DE0C34B5B680C221340042B0ED0C04BE5
:103410005B680C221340082B16D1BD4B5A688023E1
:103420005B021A4080235B029A420DD1B84B1A68A6
:1034300080239B02134000D170E07B685B68002B07
:1034400000D06BE00123D8E27B685B68012B07D1D9
:10345000AF4B1A68AE4B802149020A431A602FE035
:103460007B685B68002B0CD1A94B1A68A84BA94953
:103470000A401A60A64B1A68A54BA7490A401A6071
:103480001EE07B685B68052B0ED1A14B1A68A04B30
:103490008021C9020A431A609D4B1A689C4B802107
:1034A00049020A431A600BE0994B1A68984B9949F4
:1034B0000A401A60964B1A68954B97490A401A6061
:1034C0007B685B68002B14D0FDF716FC0300BB6122
:1034D00008E0FDF711FC0200BB69D31A642B01D987
:1034E00003238AE28A4B1A6880239B021340F0D0A0
:1034F00015E0FDF701FC0300BB6108E0FDF7FCFBF4
:103500000200BB69D31A642B01D9032375E2804BF7
:103510001A6880239B021340F0D100E0C0467B680C
:103520001B680222134000D169E0794B5B680C22D2
:1035300013400BD0764B5B680C221340082B1CD138
:10354000734B5A6880235B02134016D1704B1B6883
:103550000222134005D07B68DB68012B01D00123D8
:103560004BE26B4B1B68F822934319007B681B6985
:10357000DA00674B0A431A6041E07B68DB68002B86
:1035800024D0634B1A68624B01210A431A60FDF78D
:10359000B3FB0300BB6108E0FDF7AEFB0200BB69B3
:1035A000D31A022B01D9032327E2594B1B680222AD
:1035B0001340F1D0564B1B68F822934319007B68E7
:1035C0001B69DA00524B0A431A6018E0504B1A6824
:1035D0004F4B01218A431A60FDF78EFB0300BB614C
:1035E00008E0FDF789FB0200BB69D31A022B01D961
:1035F000032302E2464B1B6802221340F1D17B6891
:103600001B680822134036D07B68DB69002B19D079
:103610003F4B5A6A3E4B01210A435A62FDF76CFB4D
:103620000300BB6108E0FDF767FB0200BB69D31A2A
:10363000022B01D90323E0E1354B5B6A02221340E0
:10364000F1D018E0324B5A6A314B01218A435A6259
:10365000FDF752FB0300BB6108E0FDF74DFB0200E4
:10366000BB69D31A022B01D90323C6E1284B5B6A3D
:1036700002221340F1D17B681B680422134000D161
:10368000B4E01F203B1800221A70214BDA69802316
:103690005B05134010D11E4BDA691D4B8021490593
:1036A0000A43DA611A4BDA6980235B051340FB6039
:1036B000FB683B1801221A70184B1A6880235B00C4
:1036C00013401AD1154B1A68144B802149000A4344
:1036D0001A60FDF711FB0300BB6108E0FDF70CFB6E
:1036E0000200BB69D31A642B01D9032385E10B4B7C
:1036F0001A6880235B001340F0D07B689B68012B25
:103700000ED1034B1A6A024B01210A431A6235E0BB
:1037100000100240FFFFFEFFFFFFFBFF00700040B4
:103720007B689B68002B0CD1B64B1A6AB54B012104
:103730008A431A62B34B1A6AB24B04218A431A6253
:103740001CE07B689B68052B0CD1AE4B1A6AAD4B15
:1037500004210A431A62AB4B1A6AAA4B01210A439D
:103760001A620BE0A74B1A6AA64B01218A431A6220
:10377000A44B1A6AA34B04218A431A627B689B6894
:10378000002B14D0FDF7B8FA0300BB6109E0FDF788
:10379000B3FA0200BB69D31A9B4A934201D90323AF
:1037A0002BE1984B1B6A02221340F0D013E0FDF787
:1037B000A3FA0300BB6109E0FDF79EFA0200BB69B2
:1037C000D31A914A934201D9032316E18D4B1B6A08
:1037D00002221340F0D11F23FB181B78012B05D1C7
:1037E000884BDA69874B89490A40DA617B681B6834
:1037F0001022134063D07B685B69012B2AD1814B77
:103800005A6B804B04210A435A637E4B5A6B7D4BA3
:1038100001210A435A63FDF76FFA0300BB6108E018
:10382000FDF76AFA0200BB69D31A022B01D9032300
:10383000E3E0744B5B6B02221340F1D0714B5B6B86
:10384000F822934319007B689B69DA006D4B0A43A9
:103850005A6334E07B685B69053311D1694B5A6B5D
:10386000684B04218A435A63664B5B6BF82293438F
:1038700019007B689B69DA00624B0A435A631EE0B9
:10388000604B5A6B5F4B04210A435A635D4B5A6B82
:103890005C4B01218A435A63FDF72EFA0300BB619A
:1038A00008E0FDF729FA0200BB69D31A022B01D9FF
:1038B0000323A2E0534B5B6B02221340F1D17B68E0
:1038C0001B6A002B00D197E04E4B5B680C22134023
:1038D000082B00D16BE07B681B6A022B4CD1494B53
:1038E0001A68484B4A490A401A60FDF705FA030076
:1038F000BB6108E0FDF700FA0200BB69D31A022B96
:1039000001D9032379E03F4B1A6880239B041340BD
:10391000F0D13C4BDB6A0F22934319007B68DA6AD3
:10392000384B0A43DA62374B5B683A4A1340190056
:103930007B689A6A7B685B6A1A43324B0A435A6017
:10394000304B1A682F4B802149040A431A60FDF757
:10395000D3F90300BB6108E0FDF7CEF90200BB69B3
:10396000D31A022B01D9032347E0264B1A68802380
:103970009B041340F0D03FE0224B1A68214B2449AE
:103980000A401A60FDF7B8F90300BB6108E0FDF7D3
:10399000B3F90200BB69D31A022B01D903232CE02F
:1039A000184B1A6880239B041340F0D124E07B68F5
:1039B0001B6A012B01D101231FE0124B5B687B6165
:1039C000104BDB6A3B617A6980235B021A407B689B
:1039D0005B6A9A420ED13B690F221A407B68DB6A10
:1039E0009A4207D17A69F0239B031A407B689B6A4D
:1039F0009A4201D0012300E000231800BD4608B020
:103A000080BDC0460010024088130000FFFFFFEF9A
:103A1000FFFFFFFEFFFFC2FF80B584B000AF7860FC
:103A200039607B68002B01D10123B3E05B4B1B683D
:103A3000012213403A689A4211D9584B1B6801225F
:103A400093431900554B3A680A431A60534B1B685D
:103A5000012213403A689A4201D001239AE07B6820
:103A60001B680222134015D07B681B680422134098
:103A700006D04B4B5A684A4BE021C9000A435A60B2
:103A8000474B5B68F022934319007B689A68444B6C
:103A90000A435A607B681B680122134040D07B6850
:103AA0005B68012B07D13E4B1A6880239B021340B1
:103AB00014D101236EE07B685B68022B07D1384B81
:103AC0001A6880239B04134008D1012362E0344B21
:103AD0001B680222134001D101235BE0304B5B687D
:103AE0000322934319007B685A682D4B0A435A609E
:103AF000FDF702F90300FB6009E0FDF7FDF80200A5
:103B0000FB68D31A274A934201D9032342E0244B8E
:103B10005B680C221A407B685B689B009A42ECD180
:103B20001E4B1B68012213403A689A4211D21B4B6C
:103B30001B68012293431900184B3A680A431A6024
:103B4000164B1B68012213403A689A4201D00123A8
:103B500020E07B681B680422134009D0104B5B688F
:103B6000114A134019007B68DA680D4B0A435A600A
:103B700000F020F801000A4B5B681B090F2213407C
:103B80000A4AD35C0A00DA40094B1A600020FDF7AC
:103B90006DF800231800BD4604B080BD002002402F
:103BA0000010024088130000FFF8FFFF7C5100085E
:103BB0000000002080B586B000AF0023FB6000232A
:103BC000BB6000237B6100237B6000233B61204BB3
:103BD0005B68FB60FB680C221340042B02D0082BAF
:103BE00003D02CE01B4B3B612CE0FB689B0C0F22AD
:103BF0001340194AD35C7B60154BDB6A0F221340DC
:103C0000164AD35CBB60FA6880235B02134009D07C
:103C1000B9681048FCF778FA03001A007B68534330
:103C20007B6109E079680A005201521A93019B1ADC
:103C3000DB005B181B027B617B693B6102E0054B8B
:103C40003B61C0463B691800BD4606B080BDC0461A
:103C50000010024000127A0094510008A45100089C
:103C600080B500AF024B1B681800BD4680BDC04642
:103C70000000002080B500AFFFF7F2FF0100064B07
:103C80005B681B0A07221340044AD35CD9400B002F
:103C90001800BD4680BDC046001002408C5100088F
:103CA00080B586B000AF786000233B610023FB60E5
:103CB0007B681A6880235B02134000D18EE01720D6
:103CC0003B1800221A70574BDA6980235B051340BA
:103CD00010D1544BDA69534B802149050A43DA610C
:103CE000504BDA6980235B051340BB60BB683B180F
:103CF00001221A704C4B1A6880235B0013401AD1C2
:103D0000494B1A68484B802149000A431A60FCF766
:103D1000F3FF03003B6108E0FCF7EEFF02003B69A4
:103D2000D31A642B01D9032377E03F4B1A68802311
:103D30005B001340F0D03B4B1A6AC0239B0013403A
:103D4000FB60FB68002B34D07B685A68C0239B0063
:103D50001340FA689A422CD0324B1B6A334A134004
:103D6000FB60304B1A6A2F4B802149020A431A62CA
:103D70002C4B1A6A2B4B2E490A401A62294BFA68BF
:103D80001A62FB680122134013D0FCF7B5FF030051
:103D90003B6109E0FCF7B0FF02003B69D31A254AFA
:103DA000934201D9032338E01E4B1B6A02221340C1
:103DB000F0D01C4B1B6A1D4A134019007B685A68DF
:103DC000184B0A431A621723FB181B78012B05D1E5
:103DD000144BDA69134B18490A40DA617B681B6897
:103DE0000122134009D00F4B1B6B03229343190090
:103DF0007B689A680B4B0A431A637B681B68202216
:103E0000134009D0074B1B6B1022934319007B68AA
:103E1000DA68044B0A431A6300231800BD4606B053
:103E200080BDC0460010024000700040FFFCFFFF54
:103E3000FFFFFEFF88130000FFFFFFEFB0B584B067
:103E400000AF78600F23FB1801221A707B68002BEB
:103E500001D1012381E07B685B7FDBB2002B06D1BF
:103E60007B6800221A777B681800FCF799FD7B6855
:103E700002225A777B681B68DB6810221340102BE4
:103E80005CD07B681B68CA225A627B681B6853221D
:103E90005A620F257C197B68180000F0C5F90300F1
:103EA000237028003B181B78002B2CD17B681B68E3
:103EB0009A687B681B682B490A409A607B681B687C
:103EC00099687B685A687B681B691A437B685B69E1
:103ED0001A437B681B680A439A607B681B687A6890
:103EE000D2681A617B681B6819697B689B681A0431
:103EF0007B681B680A431A613C187B68180000F055
:103F0000D6F9030023700F23FB181B78002B10D168
:103F10007B681B681A6C7B681B6813490A401A642B
:103F20007B681B68196C7B689A697B681B680A430D
:103F30001A647B681B68FF225A6203E00F23FB1898
:103F400000221A700F23FB181B78002B02D17B680C
:103F500001225A770F23FB181B781800BD4604B0C6
:103F6000B0BDC046BFFF8FFFFFFFFBFFB0B586B0FF
:103F700000AFF860B9607A6000237B61FB681B7F4B
:103F8000012B01D102238EE0FB6801221A77FB6826
:103F900002225A777B68002B25D1FB681B689B683F
:103FA0004022134002D1BB680022DA70BB681B7844
:103FB000180000F0A5F903001C04BB685B7818002A
:103FC00000F09EF903001B021C43BB689B7818009D
:103FD00000F096F9030022001A43BB68DB789B05CA
:103FE00013437B6117E0FB681B689B68402213400A
:103FF00002D1BB680022DA70BB681B781A04BB6868
:104000005B781B021343BA6892781A43BB68DB786B
:104010009B0513437B61FB681B68CA225A62FB68DD
:104020001B6853225A6213257C19FB68180000F0A4
:10403000FBF80300237028003B181B78002B20D1CD
:10404000FB681B687A691A490A401A60FB681B689A
:104050009A68FB681B6817490A409A60FB681B68EE
:104060009968BB68DA68BB681B691A43FB681B6800
:104070000A439A603C18FB68180000F018F9030026
:1040800023701323FB181B78002B02D1FB6801223D
:104090005A77FB681B68FF225A62FB6800221A7776
:1040A0001323FB181B781800BD4606B0B0BDC046F0
:1040B0007F7F7F00FFFFFBFFB0B586B000AFF860E9
:1040C000B9607A6000237B61FB681B7F012B01D103
:1040D00002237AE0FB6801221A77FB6802225A77F2
:1040E0007B68002B0ED1BB685B781A00102313404D
:1040F00008D0BB685B7810229343DBB20A33DAB294
:10410000BB685A707B68002B1CD1BB68DB78180039
:1041100000F0F6F803001C04BB685B78180000F0A0
:10412000EFF803001B021C43BB689B78180000F0EB
:10413000E7F8030022001A43BB681B785B031343B4
:104140007B610EE0BB68DB781A04BB685B781B02FE
:104150001343BA6892781A43BB681B785B03134316
:104160007B61FB681B68CA225A62FB681B6853228A
:104170005A6213257C19FB68180000F055F80300FB
:10418000237028003B181B78002B0CD1FB681B68A0
:104190007A6910490A405A603C18FB68180000F020
:1041A00086F8030023701323FB181B78002B02D121
:1041B000FB6801225A77FB681B68FF225A62FB6882
:1041C00000221A771323FB181B781800BD4606B08F
:1041D000B0BDC0463FFFFF0080B584B000AF78603F
:1041E0000023FB607B681B680E4ADA60FCF784FDE5
:1041F0000300FB600AE0FCF77FFD0200FB68D21AB7
:10420000FA239B009A4201D9032306E07B681B68CE
:10421000DB6820221340EED000231800BD4604B016
:1042200080BDC0465979010080B584B000AF786088
:104230000023BB600F23FB1800221A707B681B68E9
:10424000DB68402213402BD17B681B68DA687B68EF
:104250001B6880210A43DA60FCF74EFD0300BB6057
:1042600013E0FCF749FD0200BB68D21A0F203B188F
:10427000391809781970FA239B009A4205D97B688E
:1042800004225A773B1801221A707B681B68DB688E
:104290004022134004D10F23FB181B78012BE0D1DF
:1042A0000F23FB181B781800BD4604B080BD90B5E5
:1042B00085B000AF78600F243B1900221A707B682C
:1042C0001B68DA687B681B6880218A43DA607B6838
:1042D0001B689B68202213400BD17B681800FFF7F6
:1042E0007BFF031E05D07B6804225A773B1901220D
:1042F0001A700F23FB181B781800BD4605B090BD3F
:1043000080B584B000AF0200FB1D1A700023FB6073
:1043100007E0FB680133FB60FB1DFA1D12780A3AC7
:104320001A70FB1D1B78092BF3D8FB68DBB21B014D
:10433000DAB2FB1D1B781343DBB21800BD4604B094
:1043400080BD000080B582B000AF78607B68002B34
:1043500001D1012344E07B68DB6F002B07D17B6830
:104360007822002199547B681800FCF731FB7B68A8
:104370002422DA677B681B681A687B681B68012146
:104380008A431A607B68180000F014FB0300012BBD
:1043900001D1012324E07B685B6A002B03D07B689A
:1043A000180000F047FC7B681B685A687B681B6834
:1043B0000D490A405A607B681B689A687B681B68D5
:1043C00008218A439A607B681B681A687B681B68AF
:1043D00001210A431A607B68180000F0DFFC03002B
:1043E0001800BD4602B080BDFFF7FFFF90B5ABB02F
:1043F00000AF78607B681B68DB69A422B9180B608A
:104400007B681B681B68A02039180B607B681B68E1
:104410009B689C2179180B601100BB181B68994A96
:1044200013409822BC182360BB181B68002B14D1C2
:104430007B181B68202213400FD03B181B682022DA
:1044400013400AD07B689B6E002B00D186E27B680C
:104450009B6E7A681000984780E29823FB181B68CF
:10446000002B00D114E19C23FB181B680122134090
:1044700006D1A023FB181B68834A134000D107E133
:10448000A423FB181B680122134012D0A023FB18A1
:104490001A6880235B0013400BD07B681B680122E5
:1044A0001A627B6884229B5801221A437B6884210C
:1044B0005A50A423FB181B680222134011D09C23DE
:1044C000FB181B68012213400BD07B681B6802227B
:1044D0001A627B6884229B5804221A437B688421D9
:1044E0005A50A423FB181B680422134011D09C23AC
:1044F000FB181B68012213400BD07B681B68042249
:104500001A627B6884229B5802221A437B688421AA
:104510005A50A423FB181B680822134017D0A0236D
:10452000FB181B682022134005D19C23FB181B6835
:10453000012213400BD07B681B6808221A627B683B
:1045400084229B5808221A437B6884215A50A42352
:10455000FB181A6880231B01134013D0A023FB18FB
:104560001A688023DB0413400CD07B681B68802210
:1045700012011A627B6884229B5820221A437B68AE
:1045800084215A507B6884229B58002B00D1E7E19C
:10459000A423FB181B68202213400ED0A023FB1875
:1045A0001B682022134008D07B689B6E002B04D030
:1045B0007B689B6E7A68100098477B6884229B58C2
:1045C00094217A1813607B681B689B684022134013
:1045D000402B04D07B181B682822134047D07B68EF
:1045E000180000F0EDFC7B681B689B6840221340BC
:1045F000402B37D1EFF310833B663B6E90203A1887
:10460000136001237B667B6E83F31088C0467B6852
:104610001B689A687B681B6840218A439A603B1834
:104620001B68BB66BB6E83F31088C0467B685B6FFC
:10463000002B12D07B685B6F144A5A637B685B6FF8
:104640001800FCF74BFD031E1AD07B685B6F5A6B9A
:104650007B685B6F1800904712E07B68180000F0E1
:1046600095F90DE07B68180000F090F908E07B6890
:10467000180000F08BF97B688422002199506FE1CB
:10468000C0466DE10F0800002001000489500008B9
:104690007B681B6E012B00D039E1A423FB181B683B
:1046A0001022134000D132E1A023FB181B68102216
:1046B000134000D12BE17B681B6810221A627B68D3
:1046C0001B689B6840221340402B00D09FE07B6812
:1046D0005B6F1B685A687E217B181A807B181B88C9
:1046E000002B00D13EE17B6858229B5A7A18128831
:1046F0009A4200D336E17B687A185A2112885A52BE
:104700007B685B6F9B69202B6FD0EFF310833B635B
:104710003B6BBB6701237B637B6B83F31088C046D5
:104720007B681B681A687B681B6892490A401A609C
:10473000BB6FBB63BB6B83F31088C046EFF3108382
:10474000FB63FB6B7B6701233B643B6C83F310884B
:10475000C0467B681B689A687B681B6801218A4396
:104760009A607B6F7B647B6C83F31088C046EFF3A9
:104770001083BB64BB6C3B670123FB64FB6C83F35E
:104780001088C0467B681B689A687B681B6840215C
:104790008A439A603B6F3B653B6D83F31088C0464C
:1047A0007B688022202199507B6800221A66EFF3F3
:1047B00010837B657B6DFB660123BB65BB6D83F35B
:1047C0001088C0467B681B681A687B681B681021CC
:1047D0008A431A60FB6EFB65FB6D83F31088C0464D
:1047E0007B685B6F1800FCF741FC7B6802225A660D
:1047F0007B6858229A5A7B685A215B5A9BB2D31A1B
:104800009AB27B681100180000F0C8F8AAE07B6833
:104810005822995A7B685A229B5A9AB28E203B188A
:104820008A1A1A807B685A229B5A9BB2002B00D1AD
:104830009AE03B181B88002B00D195E0EFF3108322
:10484000FB60FB6888243A19136001233B613B69D4
:1048500083F31088C0467B681B681A687B681B68F6
:1048600045490A401A603B191B687B617B6983F3E9
:104870001088C046EFF31083BB61BB6984243A19EA
:1048800013600123FB61FB6983F31088C0467B68DA
:104890001B689A687B681B6801218A439A603B19F0
:1048A0001B683B623B6A83F31088C0467B688022AA
:1048B000202199507B6800221A667B6800229A6644
:1048C000EFF310837B627B6A80243A191360012323
:1048D000BB62BB6A83F31088C0467B681B681A689A
:1048E0007B681B6810218A431A603B191B68FB62B6
:1048F000FB6A83F31088C0467B6802225A663B1825
:104900001A887B681100180000F048F82CE0A423F6
:10491000FB181B68802213400FD0A023FB181B68D4
:104920008022134009D07B68DB6E002B1ED07B6891
:10493000DB6E7A681000984718E0A423FB181B6808
:104940004022134013D0A023FB181B6840221340C1
:104950000DD07B68180000F0AEFB08E0C04606E012
:10496000C04604E0C04602E0C04600E0C046BD4686
:104970002BB090BDFFFEFFFFDFFEFFFF80B582B0D2
:1049800000AF7860C046BD4602B080BD80B582B041
:1049900000AF7860C046BD4602B080BD80B582B031
:1049A00000AF78600A00BB1C1A80C046BD4602B04A
:1049B00080BD000080B588B000AF78601E23FB1872
:1049C00000221A707B689A687B681B691A437B68AF
:1049D0005B691A437B68DB6913437B617B681B68F7
:1049E0001B688D4A134019007B681B687A690A436B
:1049F0001A607B681B685B68884A134019007B68F3
:104A0000DA687B681B680A435A607B689B697B6134
:104A10007B681B6A7A6913437B617B681B689B68B0
:104A20007F4A134019007B681B687A690A439A60C1
:104A30007B681B687B4A934227D17B4B1B6B03220D
:104A40001340032B0DD01BD8022B14D018D8002BE9
:104A500002D0012B0AD013E01F23FB1800221A708A
:104A600021E01F23FB1802221A701CE01F23FB18F1
:104A700004221A7017E01F23FB1808221A7012E094
:104A80001F23FB1810221A700DE07B681B68674A11
:104A9000934204D11F23FB1800221A7003E01F2346
:104AA000FB1810221A707B68DA6980231B029A4275
:104AB0005CD11F23FB181B78082B15D018DC042BA6
:104AC0000DD015DC002B02D0022B05D010E0FFF733
:104AD000D1F80300BB6112E0554BBB610FE0FFF75B
:104AE00069F80300BB610AE080231B02BB6106E09A
:104AF0000023BB611E23FB1801221A70C046BB694C
:104B0000002B00D17AE0BB695A007B685B685B08C8
:104B1000D2187B685B6819001000FBF7F5FA0300F8
:104B20003B613B690F2B1CD93A6980235B029A4297
:104B300017D23B699AB20E203B180F218A431A8084
:104B40003B695B089BB20722134099B23B183A18A5
:104B500012880A431A807B681B683A181288DA6048
:104B60004CE01E23FB1801221A7047E01F23FB189C
:104B70001B78082B15D018DC042B0DD015DC002B6E
:104B800002D0022B05D010E0FFF774F80300BB61E0
:104B900012E0274BBB610FE0FFF70CF80300BB618D
:104BA0000AE080231B02BB6106E00023BB611E23D9
:104BB000FB1801221A70C046BB69002B1ED07B680F
:104BC0005B685A08BB69D2187B685B6819001000E3
:104BD000FBF79AFA03003B613B690F2B0AD93A694C
:104BE00080235B029A4205D23B699AB27B681B68BC
:104BF000DA6003E01E23FB1801221A707B68002292
:104C00009A667B680022DA661E23FB181B78180060
:104C1000BD4608B080BDC046F369FFFFFFCFFFFF70
:104C2000FFF4FFFF00380140001002400044004044
:104C300000127A0080B582B000AF78607B685B6A52
:104C4000012213400BD07B681B685B684A4A134003
:104C500019007B689A6A7B681B680A435A607B6804
:104C60005B6A022213400BD07B681B685B68434A77
:104C7000134019007B68DA6A7B681B680A435A6034
:104C80007B685B6A042213400BD07B681B685B68FF
:104C90003B4A134019007B681A6B7B681B680A4308
:104CA0005A607B685B6A082213400BD07B681B68E4
:104CB0005B68344A134019007B685A6B7B681B6839
:104CC0000A435A607B685B6A102213400BD07B68F2
:104CD0001B689B682C4A134019007B689A6B7B68A1
:104CE0001B680A439A607B685B6A202213400BD0E2
:104CF0007B681B689B68254A134019007B68DA6B48
:104D00007B681B680A439A607B685B6A4022134099
:104D10001DD07B681B685B681D4A134019007B68C7
:104D20001A6C7B681B680A435A607B681A6C802384
:104D30005B039A420BD17B681B685B68154A134082
:104D400019007B685A6C7B681B680A435A607B6851
:104D50005B6A802213400BD07B681B685B680E4A3D
:104D6000134019007B689A6C7B681B680A435A6081
:104D7000C046BD4602B080BDFFFFFDFFFFFFFEFF46
:104D8000FFFFFBFFFF7FFFFFFFEFFFFFFFDFFFFFE7
:104D9000FFFFEFFFFFFF9FFFFFFFF7FF80B592B020
:104DA00002AF78607B68842200219950FBF7A4FF52
:104DB0000300FB637B681B681B6808221340082BF9
:104DC0002CD1FB6B802291037868464A0092002226
:104DD00000F08CF8031E21D0EFF310837B627B6A16
:104DE000BB630123BB62BB6A83F31088C0467B6848
:104DF0001B681A687B681B6880218A431A60BB6B3A
:104E0000FB62FB6A83F31088C0467B682022DA6766
:104E10007B6878220021995403235FE07B681B683C
:104E20001B6804221340042B46D1FB6B8022D10364
:104E300078682C4A0092002200F058F8031E3BD0FC
:104E4000EFF31083FB60FB687B6301233B613B69ED
:104E500083F31088C0467B681B681A687B681B68F0
:104E600021490A401A607B6B7B617B6983F3108860
:104E7000C046EFF31083BB61BB693B630123FB6159
:104E8000FB6983F31088C0467B681B689A687B685F
:104E90001B6801218A439A603B6B3B623B6A83F348
:104EA0001088C0467B688022202199507B68782238
:104EB00000219954032311E07B682022DA677B6884
:104EC0008022202199507B6800221A667B6800228C
:104ED0005A667B6878220021995400231800BD4649
:104EE00010B080BDFFFFFF01DFFEFFFF80B584B083
:104EF00000AFF860B9603B60FB1D1A704BE0BB6906
:104F0000013348D0FBF7F8FE02003B68D31ABA69B8
:104F10009A4202D3BB69002B01D103234BE0FB680B
:104F20001B681B680422134035D0FB681B68DB69D3
:104F300008221340082B11D1FB681B6808221A6253
:104F4000FB68180000F03CF8FB68842208219950A7
:104F5000FB6878220021995401232CE0FB681B6830
:104F6000DA6980231B011A4080231B019A4212D167
:104F7000FB681B68802212011A62FB68180000F0AF
:104F80001FF8FB68842220219950FB6878220021B9
:104F9000995403230FE0FB681B68DB69BA68134070
:104FA000BA68D31A5A425341DBB21A00FB1D1B7870
:104FB0009A42A4D000231800BD4604B080BD000072
:104FC00080B58EB000AF7860EFF310837B617B69B2
:104FD0007B630123BB61BB6983F31088C0467B6898
:104FE0001B681A687B681B6826490A401A607B6B3D
:104FF000FB61FB6983F31088C046EFF310833B62CB
:105000003B6A3B6301237B627B6A83F31088C04663
:105010007B681B689A687B681B6801218A439A60D9
:105020003B6BBB62BB6A83F31088C0467B681B6E18
:10503000012B18D1EFF31083BB60BB68FB62012327
:10504000FB60FB6883F31088C0467B681B681A68A6
:105050007B681B6810218A431A60FB6A3B613B69CD
:1050600083F31088C0467B688022202199507B689A
:1050700000221A667B6800229A66C046BD460EB0C2
:1050800080BDC046DFFEFFFF80B584B000AF786012
:105090007B685B6AFB60FB685A2200219952FB68BF
:1050A000522200219952FB681800FFF76FFCC0469E
:1050B000BD4604B080BD80B586B000AF7860EFF328
:1050C0001083BB60BB687B610123FB60FB6883F3DB
:1050D0001088C0467B681B681A687B681B68402183
:1050E0008A431A607B693B613B6983F31088C04641
:1050F0007B682022DA677B680022DA667B6818000A
:10510000FFF73CFCC046BD4606B080BD03008218D8
:10511000934200D1704719700133F9E770B500264A
:105120000C4C0D4D641BA410A64209D1002600F0C2
:1051300019F80A4C0A4D641BA410A64205D170BD93
:10514000B300EB5898470136EEE7B300EB589847A9
:105150000136F2E7B4510008B4510008B851000814
:10516000B4510008F8B5C046F8BC08BC9E4670476C
:0C517000F8B5C046F8BC08BC9E4670476D
:10517C0000000000000000000102030406070809FB
:10518C0000000000010203040203040506070809DD
:10519C000A0B0C0D0E0F1010010203040506070874
:0851AC00090A0B0C0D0E0F1097
:0451B400E900000806
:0451B800C10000082A
:0C51BC0000127A00040000000100000056
:0400000508000BF1F3
:00000001FF
