:020000040800F2
:100000000020002055610008C15F0008C75F00089C
:1000100000000000000000000000000000000000E0
:10002000000000000000000000000000CD5F00089C
:100030000000000000000000D75F0008E15F00083A
:10004000A561000800000000A5610008A561000886
:10005000A5610008A5610008A5610008A561000868
:1000600000000000A5610008F15F000815600008AD
:10007000A5610008A5610008A56100080000000056
:10008000A56100083960000800000000A5610008B3
:10009000A5610008A5610008A5610008516000087D
:1000A000A5610008A5610008A5610008A561000818
:1000B0008160000800000000000000000000000057
:1000C00010B5064C2378002B07D1054B002B02D02E
:1000D000044800E000BF0123237010BD640000202D
:1000E00000000000B8B50008044B10B5002B03D089
:1000F0000349044800E000BF10BDC04600000000F6
:1001000068000020B8B500080023C25C0133002A53
:10011000FBD1581E70470000002243088B4274D365
:1001200003098B425FD3030A8B4244D3030B8B42F8
:1001300028D3030C8B420DD3FF22090212BA030C01
:100140008B4202D31212090265D0030B8B4219D3E2
:1001500000E0090AC30B8B4201D3CB03C01A524102
:10016000830B8B4201D38B03C01A5241430B8B424A
:1001700001D34B03C01A5241030B8B4201D30B0333
:10018000C01A5241C30A8B4201D3CB02C01A52415A
:10019000830A8B4201D38B02C01A5241430A8B421D
:1001A00001D34B02C01A5241030A8B4201D30B0206
:1001B000C01A5241CDD2C3098B4201D3CB01C01A20
:1001C000524183098B4201D38B01C01A524143092A
:1001D0008B4201D34B01C01A524103098B4201D318
:1001E0000B01C01A5241C3088B4201D3CB00C01A85
:1001F000524183088B4201D38B00C01A52414308FD
:100200008B4201D34B00C01A5241411A00D2014621
:10021000524110467047FFE701B5002000F0F0F8AA
:1002200002BDC0460029F7D076E7704703460B436E
:100230007FD4002243088B4274D303098B425FD3DF
:10024000030A8B4244D3030B8B4228D3030C8B420B
:100250000DD3FF22090212BA030C8B4202D31212F1
:10026000090265D0030B8B4219D300E0090AC30BC6
:100270008B4201D3CB03C01A5241830B8B4201D373
:100280008B03C01A5241430B8B4201D34B03C01A5C
:100290005241030B8B4201D30B03C01A5241C30AD4
:1002A0008B4201D3CB02C01A5241830A8B4201D345
:1002B0008B02C01A5241430A8B4201D34B02C01A2F
:1002C0005241030A8B4201D30B02C01A5241CDD2D4
:1002D000C3098B4201D3CB01C01A524183098B421F
:1002E00001D38B01C01A524143098B4201D34B0108
:1002F000C01A524103098B4201D30B01C01A52416B
:10030000C3088B4201D3CB00C01A524183088B42F1
:1003100001D38B00C01A524143088B4201D34B00DA
:10032000C01A5241411A00D201465241104670474C
:100330005DE0CA0F00D04942031000D34042534051
:1003400000229C4603098B422DD3030A8B4212D311
:10035000FC22890112BA030A8B420CD38901921143
:100360008B4208D3890192118B4204D389013AD080
:10037000921100E08909C3098B4201D3CB01C01A55
:10038000524183098B4201D38B01C01A5241430968
:100390008B4201D34B01C01A524103098B4201D356
:1003A0000B01C01A5241C3088B4201D3CB00C01AC3
:1003B000524183088B4201D38B00C01A5241D9D2DB
:1003C00043088B4201D34B00C01A5241411A00D25C
:1003D0000146634652415B10104601D34042002B58
:1003E00000D54942704763465B1000D3404201B5D7
:1003F000002000F005F802BD0029F8D016E770478C
:100400007047C04680B582B000AF786039603B6805
:100410001800BD4602B080BD80B582B000AF7860E4
:100420007B68180000F08EF97B681800BD4602B0AA
:1004300080BD80B582B000AF78607B68180000F0A6
:1004400070F97B681800BD4602B080BD80B582B0EF
:1004500000AF78607B681800FFF7EBFF7B6818003F
:10046000BD4602B080BD80B582B000AF78607B68C9
:10047000180000F09FF97B681800BD4602B080BDEF
:1004800080B582B000AF78607B68180000F081F919
:100490007B681800BD4602B080BD80B582B000AF59
:1004A00078607B681800FFF7EBFF7B681800BD469B
:1004B00002B080BD80B582B000AF78607B68180064
:1004C00000F0B0F97B681800BD4602B080BD80B571
:1004D00082B000AF78607B68180000F092F97B680A
:1004E0001800BD4602B080BD80B582B000AF786014
:1004F0007B681800FFF7EBFF7B681800BD4602B071
:1005000080BD80B582B000AF78607B68180000F0D5
:10051000C1F97B681800BD4602B080BD80B582B0CD
:1005200000AF78607B68180000F0A3F97B681800C2
:10053000BD4602B080BD80B582B000AF78607B68F8
:100540001800FFF7EBFF7B681800BD4602B080BDC6
:1005500080B586B000AFF860B9603B60BB1D1A8003
:10056000164B1B78002B07D1154B1B68180009F0A0
:1005700005FA124B01221A700823FA18114B1100C8
:10058000180000F0ADF9BA1D0F4B1100180000F073
:10059000CDF93A000D4B1100180000F0EDF91721CC
:1005A0007B1800221A707A18094B1100180000F00D
:1005B00009FAFB681800BD4606B080BD8000002027
:1005C0000000002084000020900000209C000020FB
:1005D000A800002080B500AF024B1B681800BD4684
:1005E00080BDC0460400002090B583B000AFFB1D65
:1005F00000221A7066E0FB1D1A783B4B11001800B0
:1006000000F001FA03001B681C69FB1D1A78374BC8
:100610001100180000F005FA03001B881A000123DE
:10062000934023405A1E9341DBB2002B2DD0FB1D7B
:100630001A782F4B1100180000F001FA03001B7804
:10064000002B02D0012B0BD037E0FB1D1A78284B72
:100650001100180000F0F3F9030001221A702CE0D9
:10066000FB1D1A78224B1100180000F0E8F9030076
:1006700002221A70FB1D1A781E4B1100180000F0A0
:10068000EBF903001B68984717E0FB1D1A78184B1D
:100690001100180000F0D3F903001B785A1E934193
:1006A000DBB2002B09D0FB1D1A78114B110018008A
:1006B00000F0C5F9030000221A70FB1DFA1D127824
:1006C00001321A70FB1D1C78084B180000F08DF9E0
:1006D00003009C429B415B42DBB2002B8BD1C046A6
:1006E000C046BD4603B090BD8400002090000020AD
:1006F000A80000209C00002090B583B000AF786077
:100700007B681C68FFF766FF0300E31A5A425341F7
:10071000DBB2002B01D0FFF767FFC046BD4603B038
:1007200090BD80B582B000AF78607B68180000F0A3
:10073000A1F97B68180000F0AAF97B681800BD4693
:1007400002B080BD80B582B000AF78607B681800D1
:1007500000F0AFF97B681800BD4602B080BD80B5DF
:1007600082B000AF78607B6819687B689A687B68A4
:100770001B68D31A9B101A007B68180000F0A2F9BE
:100780007B681800FFF748FE7B681800BD4602B082
:1007900080BD80B582B000AF78607B68180000F043
:1007A000A4F97B68180000F0ADF97B681800BD461D
:1007B00002B080BD80B582B000AF78607B68180061
:1007C00000F0B2F97B681800BD4602B080BD80B56C
:1007D00082B000AF78607B6819687B689A687B6834
:1007E0001B68D31A5B101A007B68180000F0A5F98B
:1007F0007B681800FFF737FE7B681800BD4602B023
:1008000080BD80B582B000AF78607B68180000F0D2
:10081000A7F97B68180000F0B0F97B681800BD46A6
:1008200002B080BD80B582B000AF78607B681800F0
:1008300000F0B5F97B681800BD4602B080BD80B5F8
:1008400082B000AF78607B6819687B689A687B68C3
:100850001B68D31A9B101A007B68180000F0A8F9D7
:100860007B681800FFF726FE7B681800BD4602B0C3
:1008700080BD80B582B000AF78607B68180000F062
:10088000AAF97B68180000F0B3F97B681800BD4630
:1008900002B080BD80B582B000AF78607B68180080
:1008A00000F0B8F97B681800BD4602B080BD80B585
:1008B00082B000AF78607B6819687B689A687B6853
:1008C0001B68D31A1A007B68180000F0ACF97B682B
:1008D0001800FFF716FE7B681800BD4602B080BD09
:1008E00080B582B000AF786039607B685A687B68F9
:1008F0009B689A420CD078687B685B683A681900FC
:1009000000F0A4F97B685B681A1D7B685A6009E0F7
:100910007B68180000F0AEF901003A687B681800A7
:1009200000F0CEF9C046BD4602B080BD80B582B0B1
:1009300000AF786039607B685A687B689B689A4230
:100940000CD078687B685B683A68190000F07CFA24
:100950007B685B689A1C7B685A6009E07B681800BA
:1009600000F086FA01003A687B68180000F0A6FAE9
:10097000C046BD4602B080BD80B582B000AF786091
:1009800039607B685A687B689B689A420CD07868AB
:100990007B685B683A68190000F054FB7B685B6811
:1009A0001A1D7B685A6009E07B68180000F05EFB46
:1009B00001003A687B68180000F07EFBC046BD4627
:1009C00002B080BD80B582B000AF786039603B680E
:1009D000180000F035FC02007B681100180000F0E0
:1009E00038FCC046BD4602B080BD80B582B000AFC5
:1009F00078607B685A687B681B68D31A5B101800A4
:100A0000BD4602B080BD80B582B000AF786039606D
:100A10007B681A683B689B00D3181800BD4602B07B
:100A200080BD80B582B000AF786039607B681A689D
:100A30003B685B00D3181800BD4602B080BD80B58E
:100A400082B000AF786039607B681A683B68D31861
:100A50001800BD4602B080BD80B582B000AF78609E
:100A600039607B681A683B689B00D3181800BD4644
:100A700002B080BD80B582B000AF78607B6818009E
:100A800000F018FC7B681800BD4602B080BD80B540
:100A900082B000AF78607B6800221A607B68002219
:100AA0005A607B6800229A607B681800BD4602B0DD
:100AB00080BD80B582B000AF78607B681800BD460D
:100AC00002B080BD80B584B000AFF860B9607A60D4
:100AD000BB68002B05D0FB687A68B968180000F085
:100AE000F2FBC046BD4604B080BD80B582B000AF09
:100AF00078607B68180000F0F6FB7B681800BD4644
:100B000002B080BD80B582B000AF78607B68002203
:100B10001A607B6800225A607B6800229A607B68BA
:100B20001800BD4602B080BD80B582B000AF7860CD
:100B30007B681800BD4602B080BD80B584B000AFB0
:100B4000F860B9607A60BB68002B05D0FB687A68F2
:100B5000B968180000F0D0FBC046BD4604B080BDA7
:100B600080B582B000AF78607B68180000F0D4FBDD
:100B70007B681800BD4602B080BD80B582B000AF72
:100B800078607B6800221A607B6800225A607B686C
:100B900000229A607B681800BD4602B080BD80B517
:100BA00082B000AF78607B681800BD4602B080BD9F
:100BB00080B584B000AFF860B9607A60BB68002B84
:100BC00005D0FB687A68B968180000F0AEFBC04633
:100BD000BD4604B080BD80B582B000AF78607B6850
:100BE000180000F0B2FB7B681800BD4602B080BD63
:100BF00080B582B000AF78607B6800221A607B68A5
:100C000000225A607B6800229A607B681800BD460B
:100C100002B080BD80B582B000AF78607B681800FC
:100C2000BD4602B080BD80B584B000AFF860B96049
:100C30007A60BB68002B05D0FB687A68B968180039
:100C400000F08CFBC046BD4604B080BD80B584B0CA
:100C500000AFF860B9607A607B68180000F08EFB26
:100C60000200B968FB68180000F091FBC046BD4661
:100C700004B080BD80B584B000AF78607B681A1D79
:100C80000C23FB181100180000F098FBFB681800FB
:100C9000BD4604B080BD80B582B000AF181C00F026
:100CA00005F803001800BD4602B080BD80B582B0D3
:100CB00000AF3B1D187001231800BD4602B080BD77
:100CC000F0B58DB000AFF860B9607A605D4AFB683E
:100CD0000121180000F080FB0300BB62FB681B6869
:100CE0007B62FB685B683B62FB68180000F0C2FB3C
:100CF00003007B611423FA180826BB1911001800A1
:100D000000F0C8FB0300FB61FB68BA6A1100180021
:100D100000F0D7FB0300BB61BB69FB62FC68FB69A9
:100D20009B00BA69D5187B68180000F027FB030008
:100D30001A0029002000FFF789FF0023FB62FFF75C
:100D4000AAFF031E27D0BB19180000F0E4FB030024
:100D50001C68FB68180000F0E7FB0300BA69786ABA
:100D6000210000F0C3FB0300FB62FB6A0433FB625B
:100D7000BB19180000F0CFFB03001C68FB681800CB
:100D800000F0D2FB0300FA6A396A200000F0AEFBE3
:100D90000300FB6227E008257B19180000F0BBFB6D
:100DA00003001C68FB68180000F0BEFB0300BA6972
:100DB000786A210000F0C1FB0300FB62FB6A043388
:100DC000FB627B19180000F0A6FB03001C68FB689F
:100DD000180000F0A9FB0300FA6A396A200000F04D
:100DE000ACFB0300FB62FFF756FF03001A00012370
:100DF0005340DBB2002B09D0FB68180000F094FBD5
:100E00000200396A7B6A180000F0B2FBF868FB68E0
:100E10009A687B6AD31A9B101A007B6A1900FFF745
:100E200051FEFB68BA691A60FB68FA6A5A60BB6ACD
:100E30009B00BA69D218FB689A60C046BD460DB0E7
:100E4000F0BDC046D0B5000880B584B000AFF860F2
:100E5000B9607A607B68180000F09AFB0200B968FC
:100E6000FB68180000F09DFBC046BD4604B080BD85
:100E700080B584B000AF78607B681A1D0C23FB1826
:100E80001100180000F0A5FBFB681800BD4604B077
:100E900080BD80B582B000AF181C00F005F80300DB
:100EA0001800BD4602B080BD80B582B000AF3B1DCA
:100EB000187001231800BD4602B080BDF0B58DB09A
:100EC00000AFF860B9607A605D4AFB6801211800E4
:100ED00000F08DFB0300BB62FB681B687B62FB6854
:100EE0005B683B62FB68180000F0CFFB03007B618E
:100EF0001423FA180826BB191100180000F0D5FBBE
:100F00000300FB61FB68BA6A1100180000F0E4FB03
:100F10000300BB61BB69FB62FC68FB695B00BA69EB
:100F2000D5187B68180000F033FB03001A00290075
:100F30002000FFF789FF0023FB62FFF7AAFF031ED3
:100F400027D0BB19180000F0F1FB03001C68FB68F8
:100F5000180000F0F4FB0300BA69786A210000F081
:100F6000D0FB0300FB62FB6A0233FB62BB19180073
:100F700000F0DCFB03001C68FB68180000F0DFFBDE
:100F80000300FA6A396A200000F0BBFB0300FB6231
:100F900027E008257B19180000F0C8FB03001C6837
:100FA000FB68180000F0CBFB0300BA69786A2100E7
:100FB00000F0CEFB0300FB62FB6A0233FB627B198D
:100FC000180000F0B3FB03001C68FB68180000F079
:100FD000B6FB0300FA6A396A200000F0B9FB03008F
:100FE000FB62FFF756FF03001A0001235340DBB2F8
:100FF000002B09D0FB68180000F0A1FB0200396A41
:101000007B6A180000F0BFFBF868FB689A687B6A8F
:10101000D31A5B101A007B6A1900FFF78EFDFB687C
:10102000BA691A60FB68FA6A5A60BB6A5B00BA69FF
:10103000D218FB689A60C046BD460DB0F0BDC046F0
:10104000D0B5000880B584B000AFF860B9607A60B0
:101050007B68180000F0A7FB0200B968FB68180065
:1010600000F0AAFBC046BD4604B080BD80B584B088
:1010700000AF78607B681A1D0C23FB181100180064
:1010800000F0B1FBFB681800BD4604B080BD80B520
:1010900082B000AF181C00F005F803001800BD4630
:1010A00002B080BD80B582B000AF3B1D1870012337
:1010B0001800BD4602B080BDF0B58DB000AFF8603D
:1010C000B9607A605D4AFB680121180000F099FB65
:1010D0000300BB62FB681B687B62FB685B683B626A
:1010E000FB68180000F0DBFB03007B611423FA1897
:1010F0000826BB191100180000F0E1FB0300FB619A
:10110000FB68BA6A1100180000F0F0FB0300BB6135
:10111000BB69FB62FC68FB699B00BA69D5187B68F8
:10112000180000F040FB03001A0029002000FFF720
:1011300089FF0023FB62FFF7AAFF031E27D0BB191C
:10114000180000F0FDFB03001C68FB68180000F0AD
:1011500000FC0300BA69786A210000F0DCFB0300A0
:10116000FB62FB6A0433FB62BB19180000F0E8FB6A
:1011700003001C68FB68180000F0EBFB0300FA6A30
:10118000396A200000F0C7FB0300FB6227E0082556
:101190007B19180000F0D4FB03001C68FB681800E2
:1011A00000F0D7FB0300BA69786A210000F0DAFB8F
:1011B0000300FB62FB6A0433FB627B19180000F03A
:1011C000BFFB03001C68FB68180000F0C2FB0300B3
:1011D000FA6A396A200000F0C5FB0300FB62FFF7E2
:1011E00056FF03001A0001235340DBB2002B09D045
:1011F000FB68180000F0ADFB0200396A7B6A18003A
:1012000000F0CBFBF868FB689A687B6AD31A9B10E6
:101210001A007B6A1900FFF7CBFCFB68BA691A60F9
:10122000FB68FA6A5A60BB6A9B00BA69D218FB680D
:101230009A60C046BD460DB0F0BDC046D0B50008AE
:1012400080B582B000AF78607B681800BD4602B000
:1012500080BDB0B582B000AF786039607B685A68F5
:101260007B689B689A4212D07C687B685D683B68AB
:10127000180000F0A2FB03001A002900200000F073
:10128000A5FB7B685B685A1C7B685A600EE07B6834
:10129000180000F0AFFB04003B68180000F08DFB65
:1012A00002007B682100180000F0CAFBC046BD4662
:1012B00002B0B0BD80B582B000AF78607B68180026
:1012C000BD4602B080BD80B584B000AFF860B960A3
:1012D0007A607A68B968FB68180000F071FCC04653
:1012E000BD4604B080BD80B582B000AF78607B6839
:1012F0001800BD4602B080BD80B584B000AFF86074
:10130000B9607A607A68B968FB68180000F069FC17
:10131000C046BD4604B080BD80B582B000AF7860E5
:101320007B681800BD4602B080BD80B584B000AFB8
:10133000F860B9607A607A68B968FB68180000F0F4
:1013400061FCC046BD4604B080BD80B582B000AF30
:1013500078607B681800BD4602B080BD80B584B05F
:1013600000AFF860B9607A607A68B968FB68180005
:1013700000F059FCC046BD4604B080BD80B582B0C7
:1013800000AF78607B681800BD4602B080BD90B5A4
:1013900085B000AFF860B9607A607B681800FFF72D
:1013A000EDFF03001C68BB6819000420FFF72AF852
:1013B00003001C60C046BD4605B090BD80B582B03C
:1013C00000AF786039603B681A687B681A607B6898
:1013D0001800BD4602B080BD90B587B000AFF86080
:1013E000B9607A60FB68180000F02DFC0400FB680F
:1013F000180000F039FC0300E21ABB689A429B41D6
:101400005B42DBB2002B03D07B68180009F0C4FB01
:10141000FB68180000F028FC0400FB68180000F0CE
:1014200023FC03003B610823FA181023FB1811006A
:10143000180000F027FC03001B68E3187B61FB68C1
:10144000180000F011FC02007B69934207D3FB688F
:10145000180000F0F8FB02007B69934205D9FB6895
:10146000180000F0F0FB030000E07B691800BD46A7
:1014700007B090BD80B584B000AF78607A680C2367
:10148000FB1811001800FFF799FFFB681800BD4614
:1014900004B080BD90B583B000AF786039607B68E0
:1014A000180000F038F803001C683B68180000F0D2
:1014B00032F803001B68E31A9B101800BD4603B006
:1014C00090BD80B582B000AF786039603B68002B7A
:1014D00007D07B683A681100180000F0E5FB0300B4
:1014E00000E000231800BD4602B080BDB0B586B054
:1014F00002AFF860B9607A603B603C687A68B968AE
:10150000F8686B461D70230000F0DEFB0300180036
:10151000BD4604B0B0BD80B582B000AF78607B68D6
:101520001800BD4602B080BD80B582B000AF7860C3
:101530007B681800BD4602B080BD90B585B000AF95
:10154000F860B9607A603B60FB68180000F0CEFB81
:101550000400BB68180000F0C9FB01003B687A6812
:10156000200000F0D3FB03001800BD4605B090BD7D
:1015700080B584B000AFF860B9607A60BA68FB6883
:101580001100180000F0D4FBC046BD4604B080BD79
:1015900080B582B000AF78607B681800BD4602B0AD
:1015A00080BD90B585B000AFF860B9607A607B68A7
:1015B0001800FFF7EDFF03001C88BB68190002202C
:1015C000FEF720FF0300221C1A80C046BD4605B06E
:1015D00090BD80B582B000AF786039603B681A6812
:1015E0007B681A607B681800BD4602B080BD90B56C
:1015F00087B000AFF860B9607A60FB68180000F04F
:10160000A6FB0400FB681800FFF7EFF90300E21ADD
:10161000BB689A429B415B42DBB2002B03D07B68E4
:10162000180009F0B9FAFB681800FFF7DEF90400AA
:10163000FB681800FFF7D9F903003B610823FA188B
:101640001023FB181100180000F01CFB03001B689E
:10165000E3187B61FB681800FFF7C7F902007B699C
:10166000934207D3FB68180000F071FB02007B690E
:10167000934205D9FB68180000F069FB030000E005
:101680007B691800BD4607B090BD80B584B000AF3F
:1016900078607A680C23FB1811001800FFF799FF97
:1016A000FB681800BD4604B080BD90B583B000AFA4
:1016B000786039607B68180000F038F803001C6817
:1016C0003B68180000F032F803001B68E31A5B1057
:1016D0001800BD4603B090BD80B582B000AF786001
:1016E00039603B68002B07D07B683A68110018000E
:1016F00000F03EFB030000E000231800BD4602B0EE
:1017000080BDB0B586B002AFF860B9607A603B606A
:101710003C687A68B968F8686B461D70230000F071
:1017200037FB03001800BD4604B0B0BD80B582B0E1
:1017300000AF78607B681800BD4602B080BD80B500
:1017400082B000AF78607B681800BD4602B080BDF3
:1017500090B585B000AFF860B9607A603B60FB6817
:10176000180000F027FB0400BB68180000F022FB03
:1017700001003B687A68200000F02CFB0300180091
:10178000BD4605B090BD80B584B000AFF860B960CB
:101790007A60BA68FB681100180000F02DFBC046A3
:1017A000BD4604B080BD80B582B000AF78607B6874
:1017B0001800BD4602B080BD90B585B000AFF8609E
:1017C000B9607A607B681800FFF7EDFF03001C68C2
:1017D000BB6819000420FEF715FE03001C60C0461C
:1017E000BD4605B090BD80B582B000AF786039606D
:1017F0003B681A687B681A607B681800BD4602B0B7
:1018000080BD90B587B000AFF860B9607A60FB68C2
:10181000180000F000FB0400FB68180000F00CFB4F
:101820000300E21ABB689A429B415B42DBB2002B89
:1018300003D07B68180009F0AFF9FB68180000F0CE
:10184000FBFA0400FB68180000F0F6FA03003B61A5
:101850000823FA181023FB181100180000F012FAE0
:1018600003001B68E3187B61FB68180000F0E4FAD2
:1018700002007B69934207D3FB68180000F0CBFAA3
:1018800002007B69934205D9FB68180000F0C3FA97
:10189000030000E07B691800BD4607B090BD80B52D
:1018A00084B000AF78607A680C23FB181100180030
:1018B000FFF799FFFB681800BD4604B080BD90B5E6
:1018C00083B000AF786039607B68180000F038F8AA
:1018D00003001C683B68180000F032F803001B6826
:1018E000E31A9B101800BD4603B090BD80B582B0CE
:1018F00000AF786039603B68002B07D07B683A689E
:101900001100180000F0A6FA030000E00023180000
:10191000BD4602B080BDB0B586B002AFF860B96018
:101920007A603B603C687A68B968F8686B461D70FD
:10193000230000F09FFA03001800BD4604B0B0BDBC
:1019400080B582B000AF78607B681800BD4602B0F9
:1019500080BD80B582B000AF78607B681800BD465E
:1019600002B080BD90B585B000AFF860B9607A6014
:101970003B60FB68180000F08FFA0400BB68180099
:1019800000F08AFA01003B687A68200000F094FABF
:1019900003001800BD4605B090BD80B584B000AF0F
:1019A000F860B9607A60BA68FB681100180000F04E
:1019B00095FAC046BD4604B080BD80B582B000AF88
:1019C00078607B681800BD4602B080BD80B584B0E9
:1019D00000AFF860B9607A607B681800FFF7EDFF30
:1019E0000200B968FB68180000F087FAC046BD46DF
:1019F00004B080BD80B584B000AF78607B681A1DEC
:101A00000C23FB181100180000F08FFAFB68180077
:101A1000BD4604B080BD80B582B000AF181C00F098
:101A200005F803001800BD4602B080BD80B582B045
:101A300000AF3B1D187001231800BD4602B080BDE9
:101A4000F0B58DB000AFF860B9607A605B4AFB68B2
:101A50000121180000F077FA0300BB62FB681B68E5
:101A60007B62FB685B683B62FB68180000F0B9FAB8
:101A700003007B611423FA180826BB191100180013
:101A800000F0BFFA0300FB61FB68BA6A110018009E
:101A900000F0CDFA0300BB61BB69FB62FC68BA6968
:101AA000FB69D5187B681800FFF787FF03001A0051
:101AB00029002000FFF78AFF0023FB62FFF7ABFF3E
:101AC000031E27D0BB19180000F0DBFA03001C68C6
:101AD000FB68180000F0DEFA0300BA69786A21009A
:101AE00000F0BAFA0300FB62FB6A0133FB62BB1928
:101AF000180000F0C6FA03001C68FB68180000F02C
:101B0000C9FA0300FA6A396A200000F0A5FA030056
:101B1000FB6227E008257B19180000F0B2FA0300E9
:101B20001C68FB68180000F0B5FA0300BA69786A0F
:101B3000210000F0B8FA0300FB62FB6A0133FB628C
:101B40007B19180000F09DFA03001C68FB68180060
:101B500000F0A0FA0300FA6A396A200000F0A3FA44
:101B60000300FB62FFF757FF03001A0001235340F5
:101B7000DBB2002B09D0FB68180000F08BFA0200E2
:101B8000396A7B6A180000F0A9FAF868FB689A685D
:101B90007B6AD31A1A007B6A1900FFF744F8FB68C6
:101BA000BA691A60FB68FA6A5A60BA69BB6AD218E5
:101BB000FB689A60C046BD460DB0F0BDD0B50008C8
:101BC00080B584B000AFF860B9607A607B689A0035
:101BD000BB681100180008F0BDFFC046BD4604B048
:101BE00080BD80B584B000AFF860B9607A607B6872
:101BF0005A00BB681100180008F0ACFFC046BD4693
:101C000004B080BD80B584B000AFF860B9607A6080
:101C10007B689A00BB681100180008F09BFFC04663
:101C2000BD4604B080BD80B584B000AFF860B96037
:101C30007A607A68BB681100180008F08BFFC04614
:101C4000BD4604B080BD80B582B000AF78607B68CF
:101C5000180000F06FFA0300180000F04FFA0300BC
:101C60001800BD4602B080BD80B582B000AF78607C
:101C70007B685A687B681B68D31A9B101800BD46A6
:101C800002B080BD80B582B000AF786039607B68FB
:101C90001A683B681B689A4201D23B6800E07B6887
:101CA0001800BD4602B080BD80B582B000AF78603C
:101CB000396039687B680022180000F051FA03008F
:101CC0001800BD4602B080BD80B584B000AFF8609A
:101CD000B9607A603B603B687A68B968F86800F080
:101CE00067FA03001800BD4604B080BD80B584B01B
:101CF00000AF78607A680C23FB181100180000F020
:101D000077FAFB681800BD4604B080BD80B584B08A
:101D100000AFF860B9607A603B607A68B968FB68C8
:101D2000180000F077FA03001800BD4604B080BD2B
:101D300080B582B000AF786039603A687B68110086
:101D4000180000F07CFAC046BD4602B080BD80B5E8
:101D500082B000AF78607B68180000F095FA03004D
:101D6000180000F075FA03001800BD4602B080BDEF
:101D700080B582B000AF7860396039687B68002236
:101D8000180000F097FA03001800BD4602B080BDAD
:101D900080B584B000AFF860B9607A603B603B68A2
:101DA0007A68B968F86800F0ABFA03001800BD461D
:101DB00004B080BD80B584B000AF78607A680C2331
:101DC000FB181100180000F0BBFAFB681800BD46B4
:101DD00004B080BD80B584B000AFF860B9607A60AF
:101DE0003B607A68B968FB68180000F0BBFA030032
:101DF0001800BD4604B080BD80B582B000AF7860E9
:101E000039603A687B681100180000F0C0FAC046DB
:101E1000BD4602B080BD80B582B000AF78607B68FF
:101E2000180000F0D9FA0300180000F0B9FA030016
:101E30001800BD4602B080BD80B582B000AF7860AA
:101E40007B685A687B681B68D31A9B101800BD46D4
:101E500002B080BD80B582B000AF7860396039686B
:101E60007B680022180000F0CDFA03001800BD4680
:101E700002B080BD80B584B000AFF860B9607A6010
:101E80003B603B687A68B968F86800F0E3FA0300E1
:101E90001800BD4604B080BD80B584B000AF786046
:101EA0007A680C23FB181100180000F0F3FAFB68A5
:101EB0001800BD4604B080BD80B584B000AFF860A6
:101EC000B9607A603B607A68B968FB68180000F016
:101ED000F3FA03001800BD4604B080BD80B582B09F
:101EE00000AF786039603A687B681100180000F034
:101EF000F8FAC046BD4602B080BD90B585B000AFCF
:101F0000F860B9607A607B681800FFF756FD03003F
:101F10001C78BB6819000120FEF774FA0300221C2C
:101F20001A70C046BD4605B090BD80B582B000AF06
:101F3000786039603B681A687B681A607B681800B3
:101F4000BD4602B080BD90B587B000AFF860B96003
:101F50007A60FB68180000F0CDFA0400FB681800F6
:101F600000F0D9FA0300E21ABB689A429B415B4237
:101F7000DBB2002B03D07B68180008F00DFEFB6875
:101F8000180000F0C8FA0400FB68180000F0C3FA5B
:101F900003003B610823FA181023FB1811001800F6
:101FA000FFF770FE03001B68E3187B61FB681800F5
:101FB00000F0B1FA02007B69934207D3FB68180076
:101FC00000F098FA02007B69934205D9FB6818007B
:101FD00000F090FA030000E07B691800BD4607B0EE
:101FE00090BD80B584B000AF78607A680C23FB1890
:101FF00011001800FFF799FFFB681800BD4604B0F8
:1020000080BD90B583B000AF786039607B68180000
:1020100000F037F803001C683B68180000F031F846
:1020200003001B68E31A1800BD4603B090BD80B5DD
:1020300082B000AF786039603B68002B07D07B68C6
:102040003A681100180000F073FA030000E0002362
:102050001800BD4602B080BDB0B586B002AFF860D2
:10206000B9607A603B603C687A68B968F8686B462A
:102070001D70230000F06CFA03001800BD4604B088
:10208000B0BD80B582B000AF78607B681800BD46F7
:1020900002B080BD80B582B000AF78607B68180068
:1020A000BD4602B080BD90B585B000AFF860B960A4
:1020B0007A603B60FB68180000F05CFA0400BB68C3
:1020C000180000F057FA01003B687A68200000F021
:1020D00061FA03001800BD4605B090BD80B584B01C
:1020E00000AFF860B9607A60BA68FB681100180048
:1020F00000F062FAC046BD4604B080BD80B584B031
:1021000000AF78600A4BFB607B68180000F063FA50
:102110000300BB600823FA180C23FB1811001800F9
:1021200000F066FA03001B681800BD4604B080BDCD
:10213000FFFFFF1F80B582B000AF78607B6818009A
:10214000BD4602B080BD000080B582B000AF7860AF
:10215000024B1800BD4602B080BDC046FFFFFF1F06
:1021600080B584B000AFF860B9607A60FB68180091
:10217000FFF7EAFF0200BB689A429B415B42DBB279
:102180005A1E9341DBB2002B08D0BA688023DB05CE
:102190009A4201D308F0FAFC08F0F5FCBB689B00FA
:1021A000180008F0DBFC03001800BD4604B080BD39
:1021B000B0B584B000AFF860B9607A603B60FB688E
:1021C000180000F027FA0400BB68180000F022FA9B
:1021D00005007B68180000F01DFA02003B6829002A
:1021E000200000F020FA03001800BD4604B0B0BD86
:1021F00080B582B000AF786039603B00180000F015
:1022000030FA03001A687B681A607B681800BD46C4
:1022100002B080BD80B586B000AFF860B9607A606A
:102220001723FB1801221A707A68B968FB68180036
:1022300000F020FA03001800BD4606B080BD80B54E
:1022400082B000AF78603960C046BD4602B080BD44
:1022500080B584B000AF78600A4BFB607B681800E3
:1022600000F019FA0300BB600823FA180C23FB18CE
:102270001100180000F0BCF903001B681800BD46EF
:1022800004B080BDFFFFFF3F80B582B000AF786033
:102290007B681800BD4602B080BD000080B582B0EA
:1022A00000AF7860024B1800BD4602B080BDC0464A
:1022B000FFFFFF3F80B584B000AFF860B9607A607F
:1022C000FB681800FFF7EAFF0200BB689A429B41D7
:1022D0005B42DBB25A1E9341DBB2002B06D0BB68D7
:1022E000002B01DA08F052FC08F04DFCBB685B00E3
:1022F000180008F033FC03001800BD4604B080BD90
:10230000B0B584B000AFF860B9607A603B60FB683C
:10231000180000F0CDF90400BB68180000F0C8F9FF
:1023200005007B68180000F0C3F902003B68290033
:10233000200000F0C6F903001800BD4604B0B0BD8F
:1023400080B582B000AF786039603B00180000F0C3
:10235000D6F903001A687B681A607B681800BD46CE
:1023600002B080BD80B586B000AFF860B9607A6019
:102370001723FB1801221A707A68B968FB681800E5
:1023800000F0C6F903001800BD4606B080BD80B558
:1023900082B000AF78603960C046BD4602B080BDF3
:1023A00080B584B000AF78600A4BFB607B68180092
:1023B00000F0BFF90300BB600823FA180C23FB18D8
:1023C0001100180000F014F903001B681800BD4646
:1023D00004B080BDFFFFFF1F80B582B000AF786002
:1023E0007B681800BD4602B080BD000080B582B099
:1023F00000AF7860024B1800BD4602B080BDC046F9
:10240000FFFFFF1F80B584B000AFF860B9607A604D
:10241000FB681800FFF7EAFF0200BB689A429B4185
:102420005B42DBB25A1E9341DBB2002B08D0BA6884
:102430008023DB059A4201D308F0A8FB08F0A3FB38
:10244000BB689B00180008F089FB03001800BD461C
:1024500004B080BDB0B584B000AFF860B9607A60F8
:102460003B60FB68180000F071F90400BB681800BD
:1024700000F06CF905007B68180000F067F90200B5
:102480003B682900200000F06AF903001800BD46EF
:1024900004B0B0BD80B582B000AF786039603B0059
:1024A000180000F07AF903001A687B681A607B68EC
:1024B0001800BD4602B080BD80B586B000AFF860A0
:1024C000B9607A601723FB1801221A707A68B9681C
:1024D000FB68180000F06AF903001800BD4606B05A
:1024E00080BD80B582B000AF78603960C046BD461F
:1024F00002B080BD80B582B000AF78607B68180004
:1025000000F082F90300180000F062F903001800DF
:10251000BD4602B080BD80B582B000AF78607B68F8
:102520005A687B681B68D31A1800BD4602B080BD8C
:1025300080B582B000AF7860396039687B6800226E
:10254000180000F077F903001800BD4602B080BD06
:1025500080B584B000AFF860B9607A603B603B68DA
:102560007A68B968F86800F085F903001800BD467C
:1025700004B080BD80B584B000AF78607A680C2369
:10258000FB181100180000F095F9FB681800BD4613
:1025900004B080BD80B584B000AFF860B9607A60E7
:1025A0003B607A68B968FB68180000F095F9030091
:1025B0001800BD4604B080BD80B582B000AF786021
:1025C00039603A687B681100180000F09AF9C0463B
:1025D000BD4602B080BD80B582B000AF78607B6838
:1025E000180000F097F903001800BD4602B080BD46
:1025F00080B582B000AF786039603B681A687B684C
:102600001B689A4201D23B6800E07B681800BD4617
:1026100002B080BD80B582B000AF78607B681800E2
:10262000BD4602B080BD80B586B000AFF860B9602D
:102630007A603B60BA68FB68D31A9B107B617B6948
:10264000002B06DD7B699A00F9687B68180008F0AA
:10265000ADFE7B699B007A68D3181800BD4606B0B2
:1026600080BD80B582B000AF78607B681800BD4641
:1026700002B080BD80B584B000AFF860B9607A6008
:102680007A68B968FB68180000F051F90300180077
:10269000BD4604B080BD80B582B000AF78607B6875
:1026A000180000F05EF903001800BD4602B080BDBE
:1026B00080B582B000AF78607B681800BD4602B07C
:1026C00080BD80B586B000AFF860B9607A603B60CD
:1026D000BA68FB68D31A5B107B617B69002B06DD4F
:1026E0007B695A00F9687B68180008F05FFE7B6917
:1026F0005B007A68D3181800BD4606B080BD80B56F
:1027000082B000AF78607B681800BD4602B080BD23
:1027100080B584B000AFF860B9607A607A68B96853
:10272000FB68180000F02AF903001800BD4604B049
:1027300080BD80B582B000AF78607B68180000F083
:1027400037F903001800BD4602B080BD80B582B0E5
:1027500000AF78607B681800BD4602B080BD80B5D0
:1027600086B000AFF860B9607A603B60BA68FB6819
:10277000D31A9B107B617B69002B06DD7B699A0075
:10278000F9687B68180008F011FE7B699B007A6885
:10279000D3181800BD4606B080BD80B582B000AF2A
:1027A00078607B681800BD4602B080BD80B584B0FB
:1027B00000AFF860B9607A607A68B968FB681800A1
:1027C00000F003F903001800BD4604B080BD00000E
:1027D00080B584B000AF78600A4BFB607B6818005E
:1027E00000F00DF90300BB600823FA180C23FB1856
:1027F00011001800FFF7FCFE03001B681800BD461F
:1028000004B080BDFFFFFF7F80B582B000AF78606D
:102810007B681800BD4602B080BD000080B582B064
:1028200000AF7860024B1800BD4602B080BDC046C4
:10283000FFFFFF7F80B584B000AFF860B9607A60B9
:10284000FB681800FFF7EAFF0200BB689A429B4151
:102850005B42DBB25A1E9341DBB2002B01D008F081
:1028600092F9BB68180008F079F903001800BD461A
:1028700004B080BDB0B584B000AFF860B9607A60D4
:102880003B60FB68180000F0C7F80400BB68180044
:1028900000F0C2F805007B68180000F0BDF80200E7
:1028A0003B682900200000F0C0F803001800BD4676
:1028B00004B0B0BD80B582B000AF786039603B0035
:1028C000180000F0CDF803001A687B681A607B6876
:1028D0001800BD4602B080BD80B586B000AFF8607C
:1028E000B9607A601723FB1801221A707A68B968F8
:1028F000FB68180000F0BDF803001800BD4606B0E4
:1029000080BD80B582B000AF78603960C046BD46FA
:1029100002B080BD80B582B000AF78607B681800DF
:10292000FFF712FC03001800BD4602B080BD90B551
:1029300085B000AFF860B9607A60FB68180000F0FD
:10294000A9F80400BB68180000F0A4F801007B6837
:102950001A00200000F0AFF803001800BD4605B0D3
:1029600090BD80B582B000AF78607B681800FFF73B
:1029700095FC03001800BD4602B080BD90B585B03F
:1029800000AFF860B9607A60FB68180000F0B8F832
:102990000400BB68180000F0B3F801007B681A005F
:1029A000200000F0BEF803001800BD4605B090BD41
:1029B00080B582B000AF78607B681800FFF716FD25
:1029C00003001800BD4602B080BD90B585B000AFD1
:1029D000F860B9607A60FB68180000F0C7F804007E
:1029E000BB68180000F0C2F801007B681A002000E4
:1029F00000F0CDF803001800BD4605B090BD80B5CD
:102A000082B000AF78607B68180000F0E5F8030042
:102A10001800BD4602B080BD80B582B000AF7860BE
:102A20007B681800BD4602B080BD80B586B000AF9F
:102A3000F860B9607A603B60BA68FB68D31A7B6162
:102A40007B69002B05DD7A69F9687B68180008F05E
:102A5000ADFC7B697A68D3181800BD4606B080BD0E
:102A600080B582B000AF78607B681800BD4602B0C8
:102A700080BD80B584B000AFF860B9607A607A68D4
:102A8000B968FB68180000F0B4F803001800BD46F0
:102A900004B080BD80B582B000AF78603B1D1800E7
:102AA00000F0C1F80300180000F0C7F80300180098
:102AB000BD4602B080BDB0B584B000AFF860B9606B
:102AC0007A60FB681800FFF7A5FD0400BB681800DA
:102AD000FFF7A0FD05007B681800FFF79BFD0300D2
:102AE0001A002900200000F0B1F802003B1D11007F
:102AF000180000F0BCF803001800BD4604B0B0BDDB
:102B000080B582B000AF78603B1D180000F0B9F8C6
:102B10000300180000F0BFF803001800BD4602B023
:102B200080BDB0B584B000AFF860B9607A60FB6872
:102B30001800FFF7BDFD0400BB681800FFF7B8FDE3
:102B400005007B681800FFF7B3FD03001A00290099
:102B5000200000F0A9F802003B1D1100180000F051
:102B6000B4F803001800BD4604B0B0BD80B582B013
:102B700000AF78603B1D180000F0B1F803001800AA
:102B800000F0B7F803001800BD4602B080BDB0B534
:102B900084B000AFF860B9607A60FB681800FFF796
:102BA000D5FD0400BB681800FFF7D0FD05007B6869
:102BB0001800FFF7CBFD03001A002900200000F0E9
:102BC000A1F802003B1D1100180000F0ACF8030052
:102BD0001800BD4604B0B0BD80B582B000AF7860CB
:102BE0007B681800FFF71AFE03001800BD4602B00C
:102BF00080BD90B585B000AFF860B9607A60FB68C1
:102C0000180000F09AF80400BB68180000F095F86E
:102C100001007B681A00200000F0A0F803001800F3
:102C2000BD4605B090BD80B582B000AF78607B68CE
:102C30001B681800BD4602B080BD80B582B000AFF1
:102C400078607B681800BD4602B080BD80B584B056
:102C500000AFF860B9607A607A68B968FB681800FC
:102C600000F0A1F803001800BD4604B080BD80B597
:102C700082B000AF786039603B681800BD4602B092
:102C800080BD80B582B000AF78607B681B6818009B
:102C9000BD4602B080BD80B582B000AF78607B6871
:102CA0001800BD4602B080BD80B584B000AFF860AA
:102CB000B9607A607A68B968FB68180000F084F837
:102CC00003001800BD4604B080BD80B582B000AFDF
:102CD000786039603B681800BD4602B080BD80B5A1
:102CE00082B000AF78607B681B681800BD4602B0F8
:102CF00080BD80B582B000AF78607B681800BD46AB
:102D000002B080BD80B584B000AFF860B9607A6071
:102D10007A68B968FB68180000F067F803001800CB
:102D2000BD4604B080BD80B582B000AF7860396028
:102D30003B681800BD4602B080BD80B582B000AFD0
:102D400078603B1D180000F061F80300180000F0E7
:102D500067F803001800BD4602B080BDB0B584B06E
:102D600000AFF860B9607A60FB681800FFF754FEA6
:102D70000400BB681800FFF74FFE05007B681800D1
:102D8000FFF74AFE03001A002900200000F051F866
:102D900002003B1D1100180000F05CF80300180051
:102DA000BD4604B0B0BD80B584B000AFF860B96076
:102DB0007A607A68B968FB68180000F055F803007B
:102DC0001800BD4604B080BD80B584B000AFF86087
:102DD000B9607A607A68B968FB68180000F061F839
:102DE00003001800BD4604B080BD80B584B000AFBC
:102DF000F860B9607A607A68B968FB68180000F01A
:102E00006DF803001800BD4604B080BD80B582B0E7
:102E100000AF78607B681B681800BD4602B080BDBB
:102E200080B582B000AF78607B681800BD4602B004
:102E300080BD80B584B000AFF860B9607A607A6810
:102E4000B968FB68180000F066F803001800BD467A
:102E500004B080BD80B582B000AF786039603B6857
:102E60001800BD4602B080BD80B586B000AFF860E6
:102E7000B9607A60BA68FB68D31A9B107B617B6982
:102E8000002B06D07B699A00F9687B68180008F06F
:102E90008DFA7B699B007A68D3181800BD4606B08E
:102EA00080BD80B586B000AFF860B9607A60BA685E
:102EB000FB68D31A5B107B617B69002B06D07B69B2
:102EC0005A00F9687B68180008F070FA7B695B00AB
:102ED0007A68D3181800BD4606B080BD80B586B0AC
:102EE00000AFF860B9607A60BA68FB68D31A9B10CB
:102EF0007B617B69002B06D07B699A00F9687B684F
:102F0000180008F053FA7B699B007A68D318180000
:102F1000BD4606B080BD80B584B000AFF860B96032
:102F20007A607A68B968FB68180000F005F8030059
:102F30001800BD4604B080BD80B586B000AFF86013
:102F4000B9607A60BA68FB68D31A7B617B69002B31
:102F500005D07A69F9687B68180008F027FA7B6960
:102F60007A68D3181800BD4606B080BD80B582B01F
:102F700000AF786039607B68012B13D13B68174A3A
:102F800093420FD1164B1800FDF760FA154B18004D
:102F9000FDF783FA144B1800FDF7A6FA134B18003F
:102FA000FDF7C9FA7B68002B13D13B680B4A9342AB
:102FB0000FD10E4B180000F01BF80B4B180000F05F
:102FC00032F8084B180000F049F8054B180000F0E3
:102FD00060F8C046BD4602B080BDC046FFFF00009D
:102FE00084000020900000209C000020A800002009
:102FF000B0B582B000AF78607B681C687B685D68A4
:103000007B681800FFF746F803001A00290020002B
:10301000FFF764F87B681800FDF749FC7B6818002F
:10302000BD4602B0B0BDB0B582B000AF78607B687D
:103030001C687B685D687B681800FEF78AFC0300EB
:103040001A0029002000FEF7A8FC7B681800FDF795
:10305000F6FB7B681800BD4602B0B0BDB0B582B0CB
:1030600000AF78607B681C687B685D687B681800CF
:10307000FEF765FB03001A0029002000FEF783FB22
:103080007B681800FDF7A3FB7B681800BD4602B003
:10309000B0BDB0B582B000AF78607B681C687B685B
:1030A0005D687B681800FEF73FFA03001A002900EC
:1030B0002000FEF75DFA7B681800FDF750FB7B6887
:1030C0001800BD4602B0B0BD80B500AF034B19007B
:1030D0000120FFF74BFFBD4680BDC046FFFF00004B
:1030E00080B500AF034B19000020FFF73FFFBD463E
:1030F00080BDC046FFFF0000B0B584B000AF78606F
:1031000039603B680A21180000F0D2FB04000C254E
:103110007B19180007F034FD7B1978680022210024
:1031200007F012FF7B19180007F02CFD7B680021C7
:10313000180007F087FF04007B68180007F060FFA5
:1031400001003B681A00200000F0EEFBC0467868E2
:10315000BD4604B0B0BD80B584B000AFF860B960C2
:10316000FB1D1A70FB68BA681A60FB68FA1D1278BA
:103170001A71FB683021180000F020F9282003F0B4
:1031800077F8FB680221180000F018F9282003F0F6
:103190006FF8FB680C21180000F010F9282003F0EC
:1031A00067F8FB680421180000F008F9282003F0F4
:1031B0005FF8FB680121180000F000F9022003F01D
:1031C00057F8FB681800BD4604B080BDB0B598B094
:1031D00000AF786008001100FB1C021C1A70BB1CB9
:1031E0000A1C1A705F23FB1800221A702EE05F245D
:1031F0003B191B780C257A1939190978D1543B19D8
:103200001B783A1912784032D1B27A19D3180A1CB5
:103210001A753B191B783A1912781432D0B27A1900
:103220002821D3185B18021C1A703B191B783A1915
:1032300012785432D0B27A193C21D3185B18021C90
:103240001A703B191A783B1901321A705F23FB1868
:103250001B78132BCBD9FB1C1A78BB1C18785E2566
:1032600079190C23FC1813009B009B189B00E31892
:103270001B5C0B7028003B181B7870221340DAB2DD
:103280005D257B19802149420A431A703B181B783F
:103290001A015C217B181A7008243B1900221A605D
:1032A0007B191B7804221343DAB23B191A703B19BD
:1032B00000225A707B181B7804221343DAB23B19A0
:1032C0009A703B190022DA700E4B01221A707B684B
:1032D00018687B681B7999B23A19042303F02AFD18
:1032E000C0467B681B6841229B5CDBB2213B5A4293
:1032F0005341DBB2002BF4D1C046C046BD4618B0E6
:10330000B0BDC046B400002090B585B000AF786075
:1033100008001100FB1C021C1A70BB1C0A1C1A704E
:103320000F203B18FA1C12780F218A431A70FB1CDD
:103330001B781A010E243B191A7008217B180022F1
:103340001A603A18BB1C12781B781343DBB20422B4
:103350001343DAB27B181A707B1800225A703A199C
:10336000BB1C12781B781343DBB204221343DAB27E
:103370007B189A700C007B180022DA700E4B012229
:103380001A707B6818687B681B7999B23A19042314
:1033900003F0D0FCC0467B681B6841229B5CDBB21B
:1033A000213B5A425341DBB2002BF4D1C046C04608
:1033B000BD4605B090BDC046B400002080B582B0C7
:1033C00000AF78600A00FB1C1A70FB1C19787B6840
:1033D00000221800FFF798FFC046BD4602B080BD2E
:1033E00090B583B000AF78600C0010001900FB1C92
:1033F000221C1A70BB1C021C1A707B1C0A1C1A703F
:103400007B1C1A78BB1C19787B681800FFF7DEFE5E
:10341000FB1C1A787B681100180000F07DF803008F
:1034200019007B6801221800FFF76EFFC046BD46F9
:1034300003B090BD80B584B000AFF860B9601900EA
:10344000FB1D1A70BB1D0A1C1A70BB1D1A78FB1DD0
:103450001978FB681800FFF7B9FE10E0BB681A780E
:10346000FB681100180000F057F803001900FB6812
:1034700001221800FFF748FFBB680133BB60BB683F
:103480001B78002BEAD1C046C046BD4604B080BDC3
:1034900090B585B000AF78600C0010001900FB1CDF
:1034A000221C1A70BB1C021C1A707B1C0A1C1A708E
:1034B0000F23FB1800221A7012E0BA1C0F243B19CC
:1034C00012781B78D318D9B2FB1C1A7878680B00D5
:1034D0008021FFF785FF3B193A19127801321A70E3
:1034E0000F23FA187B1C12781B789A42E5D3C0464A
:1034F000C046BD4605B090BD80B582B000AF7860D3
:103500007B6801211800FFF759FF022002F0B0FE8E
:10351000C046BD4602B080BDB0B598B000AF78607F
:103520000A00FB1C1A70224BFB65224BBB65302541
:103530007B19214A13CA13C313CA13C303CA03C393
:1035400012781A700C23FB181C4A13CA13C313CA2F
:1035500013C303CA03C312781A70FB1C1A78FB6DDD
:103560001100180007F03DFF03007B657B6D002B09
:1035700005D07A6DFB6DD31A7A19D35C14E0FB1C6D
:103580001A78BB6D1100180007F02BFF03007B6554
:103590007B6D002B06D07A6DBB6DD31A0C22BA1846
:1035A000D35C01E0FB1C1B781800BD4618B0B0BD11
:1035B000ECB5000810B6000834B6000858B600088C
:1035C00080B582B000AF78607B68180007F0DFFC40
:1035D0007B681800BD4602B080BDF0B5ADB000AF4D
:1035E000F860B960FB1D1A70FB681800FFF784FFD4
:1035F000AB23FC18BB68180000F030FD03002370FB
:10360000AF23FB1800221A70AE23FB1800221A7099
:1036100041E1AD23FB1800221A709BE0AD23FB189B
:103620001A78AB23FB181B78D218AE23FB181B7833
:103630009B00D418BB68180000F01BFD030001229A
:103640009C4201DB00231A1CD3B2002B7CD0AD2698
:10365000BA19AB23FB1812781B78D318DAB2AE2153
:103660007B181B789B00DBB2D318DAB210257B19CC
:10367000B968180000F0D8FC7B19180007F0C2FCEC
:103680000200AF203B181B7893429B415B42DCB2A7
:103690007B191800FFF794FF002C1FD0BA19AB2339
:1036A000FB1812781B78D318DAB2AE217B181B787E
:1036B0009B00DBB2D318DAB230243B19B96818008A
:1036C00000F0B2FC3B19180007F09CFC0200AF2090
:1036D0003B181A703B191800FFF772FFAD26BA1994
:1036E000AB23FB1812781B78D318DAB2AE23FB1881
:1036F0001B789B00DBB2D318DAB250257B19B9686E
:10370000180000F091FC7B190021180007F09AFCCA
:103710000400AE23FB181A7813009B009B189B0033
:103720001A00FB1D1B7819001000FCF77FFD030039
:10373000D9B2BB191A78F8680B002100FFF77AFE9E
:103740007B191800FFF73CFFAD22BB18BA1812789E
:1037500001321A70AD23FB181B78032B00D85DE7EC
:10376000AC23FB1800221A7089E0AC23FB181A78EE
:10377000AB23FB181B78D218AE23FB181B789B00D9
:10378000D418BB68180000F074FC030001229C42AE
:1037900001DB00231A1CD3B2002B4AD0AC23FA1849
:1037A000AB217B1812781B78D318DAB2AE217B18C4
:1037B0001B789B00DBB2D318DAB288257B19B96875
:1037C000180000F031FC7B199A697026BB191100B2
:1037D0001800FFF791FCBB190021180007F032FC1C
:1037E0000400AE217B181A7813009B009B189B00E5
:1037F0001A00FB1D1B7819001000FCF717FD0300D1
:10380000DAB2AF217B181B78D318DBB20133D9B2FF
:10381000AC23FB181A78F8680B002100FFF70AFEAA
:10382000BB19180007F0B3FB7B191800FFF7C8FE9F
:103830001FE0AE23FB181A7813009B009B189B0017
:103840001A00FB1D1B7819001000FCF7EFFC0300A9
:10385000DCB2FB1D1B7819001420FCF7E7FC030009
:10386000DAB2AC23FB181978F86813002200FFF7CE
:103870000FFEAC22BB18BA18127801321A70AC23B2
:10388000FB181B78032B00D86FE7AE22BB18BA18C1
:10389000127801321A70AE23FA18FB1D12781B78C9
:1038A0009A4200D2B5E6C046C046BD462DB0F0BD36
:1038B00080B586B000AF7860396001237B613B68DA
:1038C0005B433B613A683B695343FB603A68FB6882
:1038D0005343BB603B687A689A4201D27B691EE021
:1038E0007A683B699A4202D27B69013317E07A68B1
:1038F000FB689A4202D27B69023310E07A68BB68A7
:103900009A4202D27B69033309E0B9687868FCF710
:1039100003FC03007B607B6904337B61DAE71800FA
:10392000BD4606B080BD000080B588B000AFF8602D
:10393000B9607A60BB68013BFB6122E07B6864216F
:103940001800FCF76FFC0B005B007B617B68642157
:103950001800FCF7E1FB03007B607B695A1CF968E7
:10396000FB69CB1817498A5C1A70FB69013BFA683E
:10397000D31814497A698A1812781A70FB69023BC5
:10398000FB617B68632BD9D87B68092B10D97B68D6
:103990005B00BB61BB695A1CFB68013309498A5C47
:1039A0001A70084ABB69D3181A78FB681A7005E0C8
:1039B0007B68DBB23033DAB2FB681A70C046BD46B2
:1039C00008B080BDF4B6000880B582B000AF786062
:1039D0007B681800FCF798FB03001800BD4602B096
:1039E00080BDF0B587B000AF7860396017217B18D3
:1039F0003A68D20F1A707B181B78002B02D03B68F4
:103A00005B4200E03B683B613B690A21180000F023
:103A10003FFB0300FB601726BB191A78FB68D4181C
:103A200008257B19180007F0ABF87B1978682D2260
:103A3000210007F089FA7B19180007F0A3F8BB19D9
:103A40001A787B681100180007F0FCFA3A69FB68E5
:103A5000190000F059FBC0467868BD4607B0F0BDBC
:103A600080B582B000AF78607B68180000F09CFBE6
:103A70007B681800BD4602B080BD80B582B000AF43
:103A800078607B681800FFF7EBFF7B681800BD4685
:103A900002B080BDB0B584B000AF786039607B689B
:103AA0003A681A607B681C1D0C257B19180007F00A
:103AB00067F87A190D4B1900200007F089FB7B1974
:103AC000180007F05FF87B681C331800FFF7D5FF7C
:103AD0007B682822002199547B682922002199546F
:103AE0007B681800BD4604B0B0BDC0467CB6000877
:103AF00090B585B000AFF860B9607A603B60FB6854
:103B00001C331C00FB681C33180000F05EFB030034
:103B100001331900200000F066FBFB681C331C0019
:103B2000FB681C33180000F050FB0300013B190038
:103B3000200000F090FB03001A00BB681900100081
:103B400007F02BFAFB681C331C00FB681C331800C1
:103B500000F03BFB0300013B1900200000F07BFB61
:103B600003007A689A61FB681C331C00FB681C33F5
:103B7000180000F02AFB0300013B1900200000F0B0
:103B80006AFB03003A68DA61C046BD4605B090BDE5
:103B9000F0B5B5B000AF78607B6828229B5C002B45
:103BA00000D1CCE0CF23FB1800221A7055E07B68CF
:103BB0001C331A00CF257B191B781900100000F068
:103BC0004AFB030001220021180007F03FFA7B683E
:103BD0001C331A007B191B781900100000F03BFB06
:103BE00003001C007B191B785A1C3C26BB191100D2
:103BF0001800FFF7F6FE2423FB18804AB9191800B5
:103C000000F037FB7B681A001C327B191B78190007
:103C1000100000F020FB03001A000C203B182421A8
:103C20007918180000F03FFB0C203B181900200009
:103C300007F0B9F90C203B18180007F0A8F9242167
:103C40007B18180007F0A3F9BB19180007F09FF9BB
:103C50007B197A19127801321A70CF23FB181C785D
:103C60007B681C33180000F0B0FA03009C429B41B3
:103C70005B42DBB2002B9AD17B6828220121995448
:103C8000CE23FB1801221A702AE07B681C331A002D
:103C9000CE257B191B781900100000F0DCFA030018
:103CA0001C007B681C331A007B191B78190010005C
:103CB00000F0D1FA03001A005426BB19504918002D
:103CC00000F00BFBBB191900200007F06CF9BB19C1
:103CD000180007F05CF97B197A19127801321A7012
:103CE000CE23FB181C787B681C33180000F06DFA9B
:103CF00003009C429B415B42DBB2002BC5D17B6839
:103D00001C330021180000F0A6FA03001C007B6899
:103D10001C330021180000F09EFA03001A006C25E5
:103D20007B193849180000F0D8FA7B1919002000D7
:103D300007F039F97B19180007F029F95AE0CD236B
:103D4000FB1800221A7046E07B681C331A00CD2550
:103D50007B191B781900100000F07DFA03001C008D
:103D60007B191B785A1CB426BB1911001800FFF7E9
:103D700038FE9C23FB18214AB919180000F079FA83
:103D80007B681A001C327B191B781900100000F0A8
:103D900062FA03001A0084203B189C21791818004D
:103DA00000F081FA84203B181900200007F0FBF88E
:103DB00084203B18180007F0EAF89C217B181800B3
:103DC00007F0E5F8BB19180007F0E1F87B197A193C
:103DD000127801321A70CD23FB181C787B681C33D3
:103DE000180000F0F2F903009C429B415B42DBB2F9
:103DF000002BA9D1C046BD4635B0F0BD80B6000845
:103E000084B6000888B60008F0B591B000AF7860BD
:103E10007B6828229B5C002B61D17B6828220121D2
:103E200099543F23FB1801221A702AE07B681C3347
:103E30001A003F257B191B781900100000F00BFABF
:103E400003001C007B681C331A007B191B781900C7
:103E5000100000F000FA03001A000C26BB192249DA
:103E6000180000F03AFABB191900200007F09BF87F
:103E7000BB19180007F08BF87B197A1912780132F8
:103E80001A703F23FB181C787B681C33180000F065
:103E90009CF903009C429B415B42DBB2002BC5D1E5
:103EA0007B681C330021180000F0D5F903001C00CA
:103EB0007B681C330021180000F0CDF903001A00C4
:103EC00024257B190949180000F007FA7B1919000D
:103ED000200007F068F87B19180007F058F8C04672
:103EE000BD4611B0F0BDC04684B6000888B60008D3
:103EF000B0B58EB000AF78607B6828229B5C002B49
:103F00000DD07B6828229B5C1C007B681C3318004A
:103F100000F05BF903009C4201D2012300E0002382
:103F2000002B61D07B681C331A007B6828215B5C06
:103F3000013B1900100000F08EF903001C007B68A3
:103F40001C331A007B6828215B5C013B19001000C0
:103F500000F081F9030001220021180007F076F833
:103F6000020008257B192249180000F0B6F97B19D8
:103F70001900200007F017F87B19180007F007F860
:103F80007B681C331A007B6828215B5C19001000D9
:103F900000F061F903001C007B681C331A007B6889
:103FA00028215B5C1900100000F055F90300012284
:103FB0000021180007F04AF8020020257B190D495E
:103FC000180000F08AF97B191900200006F0EBFFB9
:103FD0007B19180006F0DBFF7B6828229B5C01330D
:103FE000D9B27B6828229954C046BD460EB0B0BDF8
:103FF00084B6000888B6000880B582B000AF78604B
:1040000039607B683A681100180007F0AFF83B6828
:104010009A697B689A613B68DA697B68DA617B68D8
:104020001800BD4602B080BD80B584B000AFF86016
:10403000B960FB1D1A70BB681C331A00FB1D1B788E
:104040001900100000F007F90200FB6811001800C9
:10405000FFF7D2FFF868BD4604B080BD80B582B0DE
:1040600000AF78607B6829229B5C1800BD4602B0D7
:1040700080BD80B582B000AF78607B681C331800CB
:1040800000F0A3F80300DBB21800BD4602B080BD0B
:1040900080B586B000AF7860396001237B613B68F2
:1040A0005B433B613A683B695343FB603A68FB689A
:1040B0005343BB603B687A689A4201D27B691EE039
:1040C0007A683B699A4202D27B69013317E07A68C9
:1040D000FB689A4202D27B69023310E07A68BB68BF
:1040E0009A4202D27B69033309E0B9687868FCF729
:1040F00013F803007B607B6904337B61DAE7180007
:10410000BD4606B080BD000080B588B000AFF86045
:10411000B9607A60BB68013BFB6122E07B68642187
:104120001800FCF77FF80B005B007B617B68642163
:104130001800FBF7F1FF03007B607B695A1CF968EC
:10414000FB69CB1817498A5C1A70FB69013BFA6856
:10415000D31814497A698A1812781A70FB69023BDD
:10416000FB617B68632BD9D87B68092B10D97B68EE
:104170005B00BB61BB695A1CFB68013309498A5C5F
:104180001A70084ABB69D3181A78FB681A7005E0E0
:104190007B68DBB23033DAB2FB681A70C046BD46CA
:1041A00008B080BDC0B7000880B582B000AF7860AD
:1041B0007B68180000F0D6F87B68180000F0DFF884
:1041C0007B681800BD4602B080BD80B582B000AFEC
:1041D00078607B685A687B681B68D31A5B1118008B
:1041E000BD4602B080BD80B582B000AF7860396056
:1041F0007B681800FFF7E9FF02003B689A429B4189
:104200005B42DBB2002B0CD07B681800FFF7DDFFB0
:1042100002003B689A1A7B681100180000F002F94E
:1042200015E07B681800FFF7D0FF02003B6893425F
:104230009B415B42DBB2002B09D07B681A683B686C
:104240005B01D2187B681100180000F0A7F9C04686
:10425000BD4602B080BD80B582B000AF78603960E5
:104260007B681A683B685B01D3181800BD4602B032
:1042700080BD80B584B000AFF860B9607A607A68BC
:10428000BB681100180006F035FF0300180000F0AD
:10429000A6F90200FB681100180006F05EFEF8683F
:1042A000BD4604B080BD80B584B000AFF860B96091
:1042B0007A607A68BB681100180006F005FF0300F9
:1042C000180000F08CF90200FB681100180006F0DD
:1042D00044FEF868BD4604B080BDB0B588B000AFFC
:1042E000F860B9607A60BB681800FFF76DFB0300E7
:1042F000FB6118243B197A681100180006F010FFC2
:1043000014257B193A191100180000F071F97A1977
:10431000FB681100180006F010FE7B19180006F06B
:1043200031FC3B19180006F02DFC7B68180006F0E4
:1043300067FE0200FB69D218FB681100180006F046
:1043400063FEFA69B968FB68180006F0C3FE7A6874
:10435000FB681100180006F0B7FEC046F868BD46BD
:1043600008B0B0BD80B582B000AF78607B6818003F
:1043700000F04DF97B681800BD4602B080BD80B5E5
:1043800082B000AF78607B6800221A607B680022F0
:104390005A607B6800229A607B681800BD4602B0B4
:1043A00080BD80B584B000AFF860B9607A60BB684A
:1043B000002B05D0FB687A68B968180000F030F966
:1043C000C046BD4604B080BD80B582B000AF786005
:1043D0007B681800BD4602B080BD80B584B000AFD8
:1043E000F860B9607A60BA68FB681100180000F0E4
:1043F00027F9C046BD4604B080BD80B582B000AF8D
:10440000181C00F005F803001800BD4602B080BD7E
:1044100080B582B000AF3B1D187001231800BD4667
:1044200002B080BDB0B588B000AF786039603B683D
:10443000002B00D1ABE07B681800FFF7C6FE03003D
:10444000FB617B689A687B685B68D31A5B11BB6110
:104450007B68180000F003F90200FB69934203D85F
:104460007B68180000F0FBF8BA693B689A420FD3EA
:104470007B685C687B681800FFF7A6FF02003B685A
:104480001900200000F0FCF802007B685A607EE012
:10449000414A39687B68180000F003F903007B612A
:1044A0007B687A691100180000F049F903003B614C
:1044B000FFF7A3FF031E1CD0FB695B013A69D41808
:1044C0007B681800FFF780FF02003B68190020009E
:1044D00000F0D6F87B681C687B685D687B68180014
:1044E000FFF772FF03003A692900200000F03CF951
:1044F00030E00023FB60FB695B013A69D4187B68FC
:104500001800FFF761FF02003B681900200000F06F
:10451000B7F8FB695B013A69D318FB607B681C68DC
:104520007B685D687B681800FFF74EFF03003A69FF
:104530002900200000F02DF97B681C687B685D680D
:104540007B681800FFF740FF03001A0029002000D5
:10455000FFF743FF78687B6819687B689A687B6817
:104560001B68D31A5B111A00FFF71BFF7B683A69BF
:104570001A60FA693B68D3185B013A69D2187B6804
:104580005A607B695B013A69D2187B689A60C046C1
:10459000BD4608B0B0BDC0468CB6000890B585B029
:1045A00000AF786039607B685A683B68D31A5B114A
:1045B000FB60FB68002B0ED07B685C687B68180092
:1045C000FFF702FF02003B6821001800FFF705FF1C
:1045D0007B683A685A60C046BD4605B090BD80B55C
:1045E00082B000AF78607B681800BD4602B080BD25
:1045F00080B582B000AF786039607B683A6811009E
:10460000180000F0E1F87868BD4602B080BD80B5C2
:1046100082B000AF78607B681800BD4602B080BDF4
:1046200080B584B000AFF860B9607A607A68B96824
:10463000FB68180000F0D7F8C046BD4604B080BD46
:1046400080B582B000AF786039603A687B6811004D
:10465000180000F0D9F8C046BD4602B080BD80B554
:1046600082B000AF78607B68180000F003F90300A7
:10467000180000F0E3F803001800BD4602B080BD4A
:1046800080B584B000AFF860B9607A60BA68FB6842
:104690001100180000F0F7F803001800BD4604B040
:1046A00080BD90B587B000AFF860B9607A60FB68F4
:1046B0001800FFF7D4FF0400FB681800FFF785FD22
:1046C0000300E21ABB689A429B415B42DBB2002BBB
:1046D00003D07B68180006F05FFAFB681800FFF74C
:1046E00074FD0400FB681800FFF76FFD03003B61D9
:1046F0000823FA181023FB1811001800FDF7C2FA5E
:1047000003001B68E3187B61FB681800FFF75DFD81
:1047100002007B69934207D3FB681800FFF79FFFF5
:1047200002007B69934205D9FB681800FFF797FFE9
:10473000030000E07B691800BD4607B090BD80B55E
:1047400082B000AF786039603B68002B07D07B688F
:104750003A681100180000F0AAF8030000E00023F6
:104760001800BD4602B080BDB0B586B002AFF8609B
:10477000B9607A603B603C687A68B968F8686B46F3
:104780001D70230000F0A3F803001800BD4604B01C
:10479000B0BD90B585B000AFF860B9607A603B609D
:1047A000FB68180000F0A5F80400BB68180000F0D2
:1047B000A0F801003B687A68200000F0AAF8030026
:1047C0001800BD4605B090BD80B582B000AF7860DE
:1047D00039603A687B681100180006F0D2F97868F1
:1047E000BD4602B080BD80B584B000AFF860B9604E
:1047F0007A607B685A01BB681100180006F0AAF9BC
:10480000C046BD4604B080BD80B582B000AF7860C0
:1048100039600AE07B68180000F08DF8030018008A
:1048200000F092F87B6820337B607A683B689A429C
:10483000F0D1C046C046BD4602B080BD80B584B050
:1048400000AF78600A4BFB607B68180000F088F8C6
:104850000300BB600823FA180C23FB181100180092
:10486000FDF7C6FE03001B681800BD4604B080BDFE
:10487000FFFFFF0380B582B000AF78607B6818004F
:10488000BD4602B080BD80B584B000AF78603960AD
:104890000F23FB1801221A703A687B681100180078
:1048A00000F06BF803001800BD4604B080BD80B571
:1048B00082B000AF7860396039687B6800221800E8
:1048C00000F086F803001800BD4602B080BD80B538
:1048D00084B000AFF860B9607A603B603B687A688A
:1048E000B968F86800F09CF803001800BD4604B0F1
:1048F00080BD80B584B000AF78607A680C23FB1867
:104900001100180000F0ACF8FB681800BD4604B0B8
:1049100080BD80B584B000AFF860B9607A603B605C
:104920007A68B968FB68180000F0ACF8030018005A
:10493000BD4604B080BD80B582B000AF78607B68B2
:104940001800BD4602B080BD80B582B000AF78606F
:104950007B681800FEF734FEC046BD4602B080BD3D
:1049600080B582B000AF78607B68180000F09FF8D7
:1049700003001800BD4602B080BD80B584B000AF12
:10498000786039607B68FB600DE0FB681800FFF71A
:10499000D2FF0300180000F0B9F83B68013B3B6010
:1049A000FB682033FB603B68002BEED1FB681800EE
:1049B000BD4604B080BD000080B582B000AF786015
:1049C000024B1800BD4602B080BDC046FFFFFF038A
:1049D00080B584B000AFF860B9607A60FB681800F9
:1049E000FFF7EAFF0200BB689A429B415B42DBB2E1
:1049F0005A1E9341DBB2002B08D0BA6880231B05F6
:104A00009A4201D306F0C2F806F0BDF8BB685B011C
:104A1000180006F0A3F803001800BD4604B080BDDE
:104A2000B0B584B000AFF860B9607A603B60FB68F5
:104A3000180000F082F80400BB68180000F07DF850
:104A400005007B68180000F078F802003B68290038
:104A5000200000F07BF803001800BD4604B0B0BD94
:104A600080B582B000AF786039603B00180000F07C
:104A700095F803001A687B681A607B681800BD46C9
:104A800002B080BD80B586B000AFF860B9607A60D2
:104A90001723FB1801221A707A68B968FB6818009E
:104AA00000F085F803001800BD4606B080BD80B553
:104AB00082B000AF78607B681800FFF77DFF0300CD
:104AC0001800BD4602B080BDB0B584B000AF7860BC
:104AD0007C680C257B19180006F052F87A190A4BED
:104AE0001900200006F074FB7B19180006F04AF844
:104AF0007B6800229A617B680022DA617B6818007B
:104B0000BD4604B0B0BDC0467CB6000890B583B0C9
:104B100000AF78607B6819002020FBF773FC04006D
:104B2000200020231A00002106F053FC2000FFF78C
:104B3000CBFFC046BD4603B090BD80B582B000AF8C
:104B400078607B681800BD4602B080BD90B587B024
:104B500000AFF860B9607A603B607B687B6114E00D
:104B60007B691800FFF7E7FE0400FB681800FFF7F9
:104B7000E2FE01003B681A00200000F046F8FB68E6
:104B80002033FB607B6920337B61FA68BB689A4203
:104B9000E6D17B691800BD4607B090BD80B582B0F4
:104BA00000AF78607B681800BD4602B080BDB0B52C
:104BB00086B000AFF860B9607A607B687B6115E011
:104BC0007B691800FFF7B7FE04000C257B1918005D
:104BD00000F05CF803001900200000F079F87B1960
:104BE000180000F044F87B6920337B610823FA1831
:104BF0000C23FB181100180000F025F8031EDFD16C
:104C00007B691800BD4606B0B0BD80B584B000AF6A
:104C1000F860B9607A60BB68180000F071F80200B3
:104C2000F9687B68180000F074F8BB681800FFF79B
:104C300082FE02007B681100180000F07EF8C0467A
:104C4000BD4604B080BD80B582B000AF78603960E9
:104C50003A687B681100180000F07EF803001A0023
:104C600001235340DBB21800BD4602B080BD80B5C1
:104C700082B000AF78607B681B6820331A007B68C5
:104C80001A607B681800BD4602B080BD80B582B056
:104C900000AF78607B681B681800BD4602B080BD1D
:104CA00080B582B000AF786039607B683A681100E7
:104CB000180006F052F93B689A697B689A613B6874
:104CC000DA697B68DA617B681800BD4602B080BD96
:104CD00090B583B000AF786039603B68180000F091
:104CE00052F804007B6819002020FBF78BFB0300BF
:104CF00021001800FFF7D4FFC046BD4603B090BDA9
:104D000080B582B000AF78607B681800BD4602B005
:104D100080BD80B584B000AFF860B9607A607B6810
:104D2000180000F030F80200B968FB68180000F0C5
:104D300033F8C046BD4604B080BD80B582B000AF38
:104D4000786039603A687B681100180000F03DF81F
:104D5000C046BD4602B080BD90B583B000AF78605C
:104D600039607B68180000F03DF804003B681800CB
:104D700000F038F80300E31A5A425341DBB218003E
:104D8000BD4603B090BD80B582B000AF78607B684F
:104D90001800BD4602B080BD90B585B000AFF86088
:104DA000B9607A607B681800FFF7EDFF0400BB680C
:104DB00019002020FBF726FB030021001800FFF755
:104DC0006FFFC046BD4605B090BD80B582B000AF54
:104DD000786039603B681800FEF7F2FBC046BD46BC
:104DE00002B080BD80B582B000AF78607B681B6880
:104DF0001800BD4602B080BD80B582B000AF7860BB
:104E000039603B681A687B681A607B681A1D3B68CA
:104E100004331900100006F0A9F97B681C331A004E
:104E20003B681C331900100000F01DFD3B68282270
:104E3000995C7B68282299543B682922995C7B689D
:104E4000292299547B681800BD4602B080BD80B508
:104E500082B000AF78607B681C33180000F041FD21
:104E60007B680433180006F092F87B681800BD4692
:104E700002B080BD90B58DB000AF80239B00144A76
:104E80001900100001F0A5FE124B1B68002B04D086
:104E9000104B1B681800FFF72BF80F4B1B68002BFB
:104EA00012D00D4B1C680B4B1A683B1D11001800EB
:104EB000FFF7A2FF3B1D022219002000FEF78DFB29
:104EC0003B1D1800FFF7C3FFC046BD460DB090BDA7
:104ED000000800480C03002010030020B0B5FE4C71
:104EE000A54400AF01F060F900F062FA00F010FC98
:104EF00000F0E8FB00F0D2FA00F0B0FB00F01AFB83
:104F000000F086FBF54930243B194E221800FEF7CD
:104F100022F9F34B3A191A603A1D3B1D1100180093
:104F2000FEF7B8FDEF4B3A1D1A6050243B191800EC
:104F300005F026FE3A19EC4938257B19180006F0D1
:104F400047F93B1D7919381D0022FEF7D1FD7B1969
:104F5000180006F01CF83B19180005F013FE6C242D
:104F60003B19180005F00CFE3A19E04954257B194D
:104F7000180006F02DF93B1D7919381D0122FEF7A6
:104F8000B7FD7B19180006F002F83B19180005F070
:104F9000F9FD88243B19180005F0F2FD3A19D449AF
:104FA00070257B19180006F013F93B1D7919381D7F
:104FB0000222FEF79DFD7B19180005F0E8FF3B1962
:104FC000180005F0DFFDA4243B19180005F0D8FDFA
:104FD0003A19C8498C257B19180006F0F9F83B1DD1
:104FE0007919381D0322FEF783FD7B19180005F09F
:104FF000CEFF3B19180005F0C5FDC0243B19180071
:1050000005F0BEFD3A19BC49A8257B19180006F029
:10501000DFF83B1D7919381D0422FEF769FD7B1965
:10502000180005F0B4FF3B19180005F0ABFDDC24B7
:105030003B19180005F0A4FD3A19B049C4257B19A5
:10504000180006F0C5F83B1D7919381D0522FEF73A
:105050004FFD7B19180005F09AFF3B19180005F069
:1050600091FDF8243B19180005F08AFD3A19A4496E
:10507000E0257B19180006F0ABF83B1D7919381DA7
:105080000622FEF735FD7B19180005F080FF3B195D
:10509000180005F077FD8A2464003B19180005F01C
:1050A0006FFD3A199749FC257B19180006F090F816
:1050B0003B1D7919381D0722FEF71AFD7B191800D0
:1050C00005F065FF3B19180005F05CFD98246400AD
:1050D0003B19180005F054FD3A198B498C256D00D9
:1050E0007B19180006F074F83B1D7919381D082249
:1050F000FEF7FEFC7B19180005F049FF3B1918006C
:1051000005F040FDA62464003B19180005F038FDA9
:105110003A197E499A256D007B19180006F058F857
:105120003B1D7919381D0922FEF7E2FC7B19180096
:1051300005F02DFF3B19180005F024FDB424640090
:105140003B19180005F01CFD3A197149A8256D009E
:105150007B19180006F03CF83B1D7919381D0A220E
:10516000FEF7C6FC7B19180005F011FF3B1918006B
:1051700005F008FDC22464003B19180005F000FD8D
:105180003A196449B6256D007B19180006F020F81D
:105190003B1D7919381D0B22FEF7AAFC7B1918005C
:1051A00005F0F5FE3B19180005F0ECFCD024640076
:1051B0003B19180005F0E4FC3A195749C4256D0065
:1051C0007B19180006F004F83B1D7919381D0C22D4
:1051D000FEF78EFC7B19180005F0D9FE3B1918006C
:1051E00005F0D0FCDE2464003B19180005F0C8FC73
:1051F0003A194A49D2256D007B19180005F0E8FFDD
:105200003B1D7919381D0D22FEF772FC7B19180021
:1052100005F0BDFE3B19180005F0B4FCEC24640059
:105220003B19180005F0ACFC3A193D49E0256D002A
:105230007B19180005F0CCFF3B1D7919381D0E2293
:10524000FEF756FC7B19180005F0A1FE3B1918006B
:1052500005F098FCFA2464003B19180005F090FC56
:105260003A193049EE256D007B19180005F0B0FFA2
:105270003B1D7919381D0F22FEF73AFC7B191800E7
:1052800005F085FE3B19180005F07CFC8424A40081
:105290003B19180005F074FC3A192349FC256D00F0
:1052A0007B19180005F094FF3B1D7919381D102259
:1052B000FEF71EFC7B19180005F069FE3B1918006B
:1052C00005F060FC3B1D1800FEF79EFD3B1D18001D
:1052D000FEF75EFC2AE0C046C0FDFFFFB8000020DC
:1052E000100300200C030020A8B60008ACB600088C
:1052F000B0B60008B4B60008B8B60008BCB60008DE
:10530000C0B60008C4B60008C8B60008CCB600088D
:10531000D0B60008D8B60008E0B60008E4B6000829
:10532000E8B60008ECB60008F0B600081C4B1C6894
:105330001C4B1A688525AD007B1911001800FFF77A
:105340005BFD7B19022219002000FEF746F97B194C
:105350001800FFF77CFD144B9022D1053800002285
:10536000FBF7F6F8FA239B00180000F081FF80237A
:105370005B000E480122190001F00EFCFA239B008D
:10538000180000F075FF80235B0008480022190018
:1053900001F002FCFA239B00180000F069FFE6E729
:1053A000100300200C030020754E00080008004880
:1053B00090B595B000AF20243B19180030231A0097
:1053C000002106F006F81023FB18180010231A001D
:1053D000002105F0FEFF3B00180010231A000021F9
:1053E00005F0F7FF21007B180A221A607B180122C2
:1053F000DA607B1810221A617B180122DA617B18AF
:1054000002221A627B1800225A627B18A0229203A1
:105410009A627B180022DA627B18180003F0AEFA59
:1054200003005A1E9341DBB2002B01D000F016FAA4
:1054300010217B1807221A607B1802225A607B1801
:1054400000229A607B180022DA607B180121180084
:1054500003F0AEFD03005A1E9341DBB2002B01D0D6
:1054600000F0FCF93B000C4A1A603B000022DA60B5
:105470003B00802292005A603B00180003F0DCFEE3
:1054800003005A1E9341DBB2002B01D000F0E6F975
:10549000C046BD4615B090BD2000010080B500AFEC
:1054A000214B224A1A60204B214A5A601E4B00228F
:1054B0009A601D4B0122DA601B4B00221A611A4BC5
:1054C00000225A61184B00229A61174B0022DA61C0
:1054D000154B00221A62144B180001F095FB0300D3
:1054E0005A1E9341DBB2002B01D000F0B7F90E4BEE
:1054F0000021180003F0AAF903005A1E9341DBB201
:10550000002B01D000F0AAF9074B0021180003F08E
:10551000E9F903005A1E9341DBB2002B01D000F0E1
:105520009DF9C046BD4680BDB80000200054004033
:105530000B02000080B586B000AF3B1D180014239D
:105540001A00002105F045FF3B0000221A602E4B97
:105550002E4A1A602C4B00225A602B4B7F229A60F5
:10556000294B3822FF32DA60274B00221A61264B82
:1055700000225A61244B00229A61234B180003F049
:1055800029FF03005A1E9341DBB2002B01D000F02B
:1055900065F93B1D16221A703B1D10225A703B1DE7
:1055A00000229A703B1D0022DA603B1D00221A6126
:1055B000391D154B0122180003F0A4FF03005A1EE9
:1055C0009341DBB2002B01D000F048F93B000422EC
:1055D0001A703B0003225A703B0030229A703B0045
:1055E0002322DA703900084B0122180004F030F849
:1055F00003005A1E9341DBB2002B01D000F02EF9BC
:10560000C046BD4606B080BD940100200028004081
:1056100080B500AF0E4B0F4A1A600D4B0E4A5A6010
:105620000B4B00229A600A4B1322DA60084B0022CF
:105630009A61074B180004F050F903005A1E934179
:10564000DBB2002B01D000F009F9C046BD4680BD99
:10565000B4010020001000407FBB000080B500AF07
:10566000164B174A1A60154B962212025A60134BBA
:1056700000229A60114B0022DA60104B00221A615E
:105680000E4B0C225A610D4B00229A610B4B0022EB
:10569000DA610A4B00221A62084B00225A62074B59
:1056A000180004F073FB03005A1E9341DBB2002B79
:1056B00001D000F0D3F8C046BD4680BDFC010020FB
:1056C0000044004080B582B000AF104B5A690F4BC8
:1056D00001210A435A610D4B5B69012213407B6033
:1056E0007B68002201210A2000F092FE0A2000F0CF
:1056F000A4FE002201210B2000F08AFE0B2000F006
:105700009CFEC046BD4602B080BDC04600100240AF
:1057100090B589B000AF0C243B19180014231A006F
:10572000002105F056FE494B5A69484B80218902F9
:105730000A435A61454B5A6980239B021340BB6060
:10574000BB68424B5A69414B8021C9020A435A61E6
:105750003E4B5A698023DB0213407B607B683B4BE6
:105760005A693A4B802109030A435A61374B5A69F7
:1057700080231B0313403B603B68F0231B0234482B
:105780000022190001F008FAF0239B0031480022A2
:10579000190001F001FAD82359019023DB050022FA
:1057A000180001F0F9F93B192B4A1A603B19002245
:1057B0005A603B1902229A603A199023DB051100C6
:1057C000180001F079F821007B18F02212021A600B
:1057D0000C003B1901225A603B1900229A603B19C8
:1057E0000022DA603B191A4A1900100001F064F82F
:1057F00021007B18F02292001A600C003B19012254
:105800005A603B1900229A603B190022DA603B196A
:10581000104A1900100001F04FF821007B18D8221F
:1058200052011A607B1801225A607B1800229A608C
:105830007B180022DA607A189023DB05110018002B
:1058400001F03AF8C046BD4609B090BD00100240D4
:1058500000040048000800483104000080B500AF93
:1058600072B6C046FEE7F0B585B000AF786039602B
:105870007C683B681800FEF7A8FC05003B68180030
:10588000FEF7F8FF02000C26BB191100180000F00B
:1058900043F8BB191A002900200000F066F8BB1974
:1058A000180000F048F83B68180000F08FF8050079
:1058B0003B68180000F09AF806007B681C687B685B
:1058C0001800FEF781FD030022003100280000F0DF
:1058D0009EF802007B685A607B681800BD4605B0E0
:1058E000F0BDB0B582B000AF78607B681C687B68A3
:1058F0005D687B681800FEF767FD03001A00290049
:105900002000FEF76AFD7B68180000F045F87B6810
:105910001800BD4602B0B0BD80B582B000AF78605F
:1059200039607B683A681100180000F082F87868E6
:10593000BD4602B080BD80B582B000AF78607B68A4
:10594000180000F095F87B681800BD4602B080BDD5
:1059500080B582B000AF78607B681800FFF7EBFF7E
:105960007B681800BD4602B080BD80B584B000AF32
:10597000F860B9607A60FB687A681100180000F07E
:1059800080F8BA68FB681100180000F08EF8FB6818
:105990001800BD4604B080BD80B582B000AF78600D
:1059A0007B6819687B689A687B681B68D31A5B11EF
:1059B0001A007B681800FEF7F4FC7B681800FFF7FC
:1059C000C7FF7B681800BD4602B080BD80B584B0BB
:1059D00000AF78607A680C23FB181100180000F003
:1059E00081F8FB681800BD4604B080BD80B584B066
:1059F00000AF78607B681A1D0C23FB18110018009B
:105A000000F070F8FB681800BD4604B080BD80B59A
:105A100084B000AFF860B9607A603B607A68B968BA
:105A2000FB68180000F06CF803001800BD4604B0D5
:105A300080BD80B582B000AF786039603A687B681D
:105A40001100180000F004F87868BD4602B080BD6F
:105A500080B582B000AF786039603A687B68110029
:105A6000180000F062F87B681800BD4602B080BDE7
:105A700080B582B000AF78607B681800BD4602B088
:105A800080BD80B582B000AF786039603A687B68CD
:105A900011001800FFF7DCFF7B681800FEF76FFCB1
:105AA0007B681800BD4602B080BD80B582B000AFF3
:105AB000786039603A687B6811001800FEF73FFE95
:105AC00002007B681A607B681A687B685A607B6892
:105AD0001A683B685B01D2187B689A60C046BD4675
