:020000040800F2
:1000000000200020A13200080D3100081331000843
:1000100000000000000000000000000000000000E0
:10002000000000000000000000000000193100087E
:100030000000000000000000233100082D310008FE
:10004000F132000800000000F1320008F13200082F
:10005000F1320008F1320008F1320008F1320008F4
:1000600000000000F13200083D3100086131000855
:10007000F1320008F1320008F132000800000000FF
:10008000F13200088531000800000000F13200085C
:10009000F1320008F1320008F13200089D31000809
:1000A000F1320008F1320008F1320008F1320008A4
:1000B000CD3100080000000000000000000000003A
:1000C00010B5064C2378002B07D1054B002B02D02E
:1000D000044800E000BF0123237010BD5C00002035
:1000E0000000000048860008044B10B5002B03D028
:1000F0000349044800E000BF10BDC04600000000F6
:1001000060000020488600080023C25C0133002AFA
:10011000FBD1581E70470000002243088B4274D365
:1001200003098B425FD3030A8B4244D3030B8B42F8
:1001300028D3030C8B420DD3FF22090212BA030C01
:100140008B4202D31212090265D0030B8B4219D3E2
:1001500000E0090AC30B8B4201D3CB03C01A524102
:10016000830B8B4201D38B03C01A5241430B8B424A
:1001700001D34B03C01A5241030B8B4201D30B0333
:10018000C01A5241C30A8B4201D3CB02C01A52415A
:10019000830A8B4201D38B02C01A5241430A8B421D
:1001A00001D34B02C01A5241030A8B4201D30B0206
:1001B000C01A5241CDD2C3098B4201D3CB01C01A20
:1001C000524183098B4201D38B01C01A524143092A
:1001D0008B4201D34B01C01A524103098B4201D318
:1001E0000B01C01A5241C3088B4201D3CB00C01A85
:1001F000524183088B4201D38B00C01A52414308FD
:100200008B4201D34B00C01A5241411A00D2014621
:10021000524110467047FFE701B5002000F0F0F8AA
:1002200002BDC0460029F7D076E7704703460B436E
:100230007FD4002243088B4274D303098B425FD3DF
:10024000030A8B4244D3030B8B4228D3030C8B420B
:100250000DD3FF22090212BA030C8B4202D31212F1
:10026000090265D0030B8B4219D300E0090AC30BC6
:100270008B4201D3CB03C01A5241830B8B4201D373
:100280008B03C01A5241430B8B4201D34B03C01A5C
:100290005241030B8B4201D30B03C01A5241C30AD4
:1002A0008B4201D3CB02C01A5241830A8B4201D345
:1002B0008B02C01A5241430A8B4201D34B02C01A2F
:1002C0005241030A8B4201D30B02C01A5241CDD2D4
:1002D000C3098B4201D3CB01C01A524183098B421F
:1002E00001D38B01C01A524143098B4201D34B0108
:1002F000C01A524103098B4201D30B01C01A52416B
:10030000C3088B4201D3CB00C01A524183088B42F1
:1003100001D38B00C01A524143088B4201D34B00DA
:10032000C01A5241411A00D201465241104670474C
:100330005DE0CA0F00D04942031000D34042534051
:1003400000229C4603098B422DD3030A8B4212D311
:10035000FC22890112BA030A8B420CD38901921143
:100360008B4208D3890192118B4204D389013AD080
:10037000921100E08909C3098B4201D3CB01C01A55
:10038000524183098B4201D38B01C01A5241430968
:100390008B4201D34B01C01A524103098B4201D356
:1003A0000B01C01A5241C3088B4201D3CB00C01AC3
:1003B000524183088B4201D38B00C01A5241D9D2DB
:1003C00043088B4201D34B00C01A5241411A00D25C
:1003D0000146634652415B10104601D34042002B58
:1003E00000D54942704763465B1000D3404201B5D7
:1003F000002000F005F802BD0029F8D016E770478C
:100400007047C046B0B584B000AF786039603B68D3
:100410000A21180000F0B4FB04000C257B19180019
:1004200007F0F6FB7B1978680022210007F0D4FD65
:100430007B19180007F0EEFB7B680021180007F01D
:1004400049FE04007B68180007F022FE01003B68AB
:100450001A00200000F0D0FBC0467868BD4604B00A
:10046000B0BD80B584B000AFF860B960FB1D1A70F4
:10047000FB68BA681A60FB68FA1D12781A71FB688B
:100480003021180000F015F9282002F097FFFB68D2
:100490000221180000F00DF9282002F08FFFFB6800
:1004A0000C21180000F005F9282002F087FFFB68F6
:1004B0000421180000F0FDF8282002F07FFFFB68FF
:1004C0000121180000F0F5F8022002F077FFFB6828
:1004D0001800BD4604B080BDB0B598B000AF7860DC
:1004E00008001100FB1C021C1A70BB1C0A1C1A70AD
:1004F0005F23FB1800221A702EE05F243B191B7843
:100500000C257A1939190978D1543B191B783A19F5
:1005100012784032D1B27A19D3180A1C1A753B19D5
:100520001B783A1912781432D0B27A192821D318CC
:100530005B18021C1A703B191B783A191278543256
:10054000D0B27A193C21D3185B18021C1A703B19DF
:100550001A783B1901321A705F23FB181B78132B92
:10056000CBD9FB1C1A78BB1C18785E2579190C2393
:10057000FC1813009B009B189B00E3181B5C0B707E
:1005800028003B181B7870221340DAB25D243B1917
:10059000802149420A431A703B181B781A015C20DB
:1005A0003B181A7008217B1800221A603B191B782F
:1005B00004221343DAB27B181A707B1800225A7097
:1005C0003B181B7804221343DAB27B189A700C0094
:1005D0007B180022DA707B6818687B681B7999B2F7
:1005E0003A19042303F032FCC0467B681B684122A1
:1005F0009B5CDBB2213B5A425341DBB2002BF4D16E
:10060000C046C046BD4618B0B0BD90B585B000AF7D
:10061000786008001100FB1C021C1A70BB1C0A1C2D
:100620001A700F203B18FA1C12780F218A431A7097
:10063000FB1C1B781A010E243B191A7008217B1829
:1006400000221A603A18BB1C12781B781343DBB2E5
:1006500004221343DAB27B181A707B1800225A70F6
:100660003A19BB1C12781B781343DBB204221343E4
:10067000DAB27B189A700C007B180022DA707B6863
:1006800018687B681B7999B23A19042303F0DEFBE2
:10069000C0467B681B6841229B5CDBB2213B5A420F
:1006A0005341DBB2002BF4D1C046C046BD4605B075
:1006B00090BD80B582B000AF78600A00FB1C1A7054
:1006C000FB1C19787B6800221800FFF79EFFC046CC
:1006D000BD4602B080BD90B583B000AF78600C001D
:1006E00010001900FB1C221C1A70BB1C021C1A7083
:1006F0007B1C0A1C1A707B1C1A78BB1C19787B683F
:100700001800FFF7E9FEFB1C1A787B68110018003F
:1007100000F06EF8030019007B6801221800FFF753
:1007200074FFC046BD4603B090BD80B584B000AF35
:10073000F860B9601900FB1D1A70BB1D0A1C1A7005
:10074000BB1D1A78FB1D1978FB681800FFF7C4FE63
:1007500010E0BB681A78FB681100180000F048F838
:1007600003001900FB6801221800FFF74EFFBB6869
:100770000133BB60BB681B78002BEAD1C046C04682
:10078000BD4604B080BD90B585B000AF78600C0068
:1007900010001900FB1C221C1A70BB1C021C1A70D2
:1007A0007B1C0A1C1A700F23FB1800221A7012E01F
:1007B000BA1C0F243B1912781B78D318D9B2FB1C32
:1007C0001A7878680B008021FFF785FF3B193A19EA
:1007D000127801321A700F23FA187B1C12781B78DA
:1007E0009A42E5D3C046C046BD4605B090BD000064
:1007F000B0B598B000AF78600A00FB1C1A70224BAD
:10080000FB65224BBB6530257B19214A13CA13C3F4
:1008100013CA13C303CA03C312781A700C23FB183C
:100820001C4A13CA13C313CA13C303CA03C31278DF
:100830001A70FB1C1A78FB6D1100180007F019FEE6
:1008400003007B657B6D002B05D07A6DFB6DD31AA1
:100850007A19D35C14E0FB1C1A78BB6D11001800E8
:1008600007F007FE03007B657B6D002B06D07A6DD9
:10087000BB6DD31A0C22BA18D35C01E0FB1C1B78A9
:100880001800BD4618B0B0BD608600088486000818
:10089000A8860008CC86000880B582B000AF7860DA
:1008A0007B68180007F0BBFB7B681800BD4602B0F0
:1008B00080BDF0B5ADB000AFF860B960FB1D1A7037
:1008C000AB23FC18BB68180000F0B6FC03002370D3
:1008D000AF23FB1800221A70AE23FB1800221A70F7
:1008E00041E1AD23FB1800221A709BE0AD23FB18F9
:1008F0001A78AB23FB181B78D218AE23FB181B7891
:100900009B00D418BB68180000F0A1FC0300012272
:100910009C4201DB00231A1CD3B2002B7CD0AD26F5
:10092000BA19AB23FB1812781B78D318DAB2AE21B0
:100930007B181B789B00DBB2D318DAB210257B1929
:10094000B968180000F05EFC7B19180007F0A2FBE4
:100950000200AF203B181B7893429B415B42DCB204
:100960007B191800FFF798FF002C1FD0BA19AB2392
:10097000FB1812781B78D318DAB2AE217B181B78DB
:100980009B00DBB2D318DAB230243B19B9681800E7
:1009900000F038FC3B19180007F07CFB0200AF2088
:1009A0003B181A703B191800FFF776FFAD26BA19ED
:1009B000AB23FB1812781B78D318DAB2AE23FB18DE
:1009C0001B789B00DBB2D318DAB250257B19B968CB
:1009D000180000F017FC7B190021180007F07AFBC3
:1009E0000400AE23FB181A7813009B009B189B0091
:1009F0001A00FB1D1B7819001000FFF717FC0300FD
:100A0000D9B2BB191A78F8680B002100FFF78DFEE8
:100A10007B191800FFF740FFAD22BB18BA181278F7
:100A200001321A70AD23FB181B78032B00D85DE749
:100A3000AC23FB1800221A7089E0AC23FB181A784B
:100A4000AB23FB181B78D218AE23FB181B789B0036
:100A5000D418BB68180000F0FAFB030001229C4286
:100A600001DB00231A1CD3B2002B4AD0AC23FA18A6
:100A7000AB217B1812781B78D318DAB2AE217B1821
:100A80001B789B00DBB2D318DAB288257B19B968D2
:100A9000180000F0B7FB7B199A697026BB1911008A
:100AA0001800FFF7AFFCBB190021180007F012FB7C
:100AB0000400AE217B181A7813009B009B189B0042
:100AC0001A00FB1D1B7819001000FFF7AFFB030095
:100AD000DAB2AF217B181B78D318DBB20133D9B25D
:100AE000AC23FB181A78F8680B002100FFF71DFEF5
:100AF000BB19180007F093FA7B191800FFF7CCFE1A
:100B00001FE0AE23FB181A7813009B009B189B0074
:100B10001A00FB1D1B7819001000FFF787FB03006C
:100B2000DCB2FB1D1B7819001420FFF77FFB0300CC
:100B3000DAB2AC23FB181978F86813002200FFF72B
:100B400022FEAC22BB18BA18127801321A70AC23FC
:100B5000FB181B78032B00D86FE7AE22BB18BA181E
:100B6000127801321A70AE23FA18FB1D12781B7826
:100B70009A4200D2B5E6C046C046BD462DB0F0BD93
:100B800080B586B000AF7860396001237B613B6837
:100B90005B433B613A683B695343FB603A68FB68DF
:100BA0005343BB603B687A689A4201D27B691EE07E
:100BB0007A683B699A4202D27B69013317E07A680E
:100BC000FB689A4202D27B69023310E07A68BB6804
:100BD0009A4202D27B69033309E0B9687868FFF76B
:100BE0009BFA03007B607B6904337B61DAE71800C2
:100BF000BD4606B080BD000080B588B000AFF8608B
:100C0000B9607A60BB68013BFB6122E07B686421CC
:100C10001800FFF707FB0B005B007B617B6864211A
:100C20001800FFF779FA03007B607B695A1CF968AA
:100C3000FB69CB1817498A5C1A70FB69013BFA689B
:100C4000D31814497A698A1812781A70FB69023B22
:100C5000FB617B68632BD9D87B68092B10D97B6833
:100C60005B00BB61BB695A1CFB68013309498A5CA4
:100C70001A70084ABB69D3181A78FB681A7005E025
:100C80007B68DBB23033DAB2FB681A70C046BD460F
:100C900008B080BD6887000880B582B000AF78607A
:100CA00039603B681800BD4602B080BD80B582B097
:100CB00000AF78607B681800FFF726FA0300180081
:100CC000BD4602B080BDF0B587B000AF7860396036
:100CD00017217B183A68D20F1A707B181B78002BEB
:100CE00002D03B685B4200E03B683B613B690A2104
:100CF000180000F0BBFA0300FB601726BB191A7836
:100D0000FB68D41808257B19180006F081FF7B19B1
:100D100078682D22210007F05FF97B19180006F092
:100D200079FFBB191A787B681100180007F0D2F917
:100D30003A69FB68190000F0D5FAC0467868BD46EC
:100D400007B0F0BD80B582B000AF78607B68180056
:100D500000F018FB7B681800BD4602B080BD80B56E
:100D600082B000AF78607B681800FFF7EBFF7B680C
:100D70001800BD4602B080BDB0B584B000AF786049
:100D800039607B683A681A607B681C1D0C257B19EA
:100D9000180006F03DFF7A190D4B1900200007F0EE
:100DA0005FFA7B19180006F035FF7B681C331800CA
:100DB000FFF7D5FF7B682822002199547B68292200
:100DC000002199547B681800BD4604B0B0BDC046F0
:100DD000F086000890B585B000AFF860B9607A6021
:100DE0003B60FB681C331C00FB681C33180000F0E0
:100DF000DAFA030001331900200000F0E2FAFB6880
:100E00001C331C00FB681C33180000F0CCFA0300F4
:100E1000013B1900200000F00CFB03001A00BB6826
:100E20001900100007F001F9FB681C331C00FB6877
:100E30001C33180000F0B7FA0300013B1900200032
:100E400000F0F7FA03007A689A61FB681C331C0013
:100E5000FB681C33180000F0A6FA0300013B1900E0
:100E6000200000F0E6FA03003A68DA61C046BD46A9
:100E700005B090BDF0B5B5B000AF78607B682822B2
:100E80009B5C002B00D1CCE0CF23FB1800221A7012
:100E900055E07B681C331A00CF257B191B7819009D
:100EA000100000F0C6FA030001220021180007F02C
:100EB00015F97B681C331A007B191B781900100088
:100EC00000F0B7FA03001C007B191B785A1C3C2663
:100ED000BB1911001800FFF7F6FE2423FB18804A07
:100EE000B919180000F0B3FA7B681A001C327B199C
:100EF0001B781900100000F09CFA03001A000C2067
:100F00003B1824217918180000F0BBFA0C203B187C
:100F10001900200007F08FF80C203B18180007F08C
:100F20007EF824217B18180007F079F8BB19180007
:100F300007F075F87B197A19127801321A70CF23ED
:100F4000FB181C787B681C33180000F02CFA030097
:100F50009C429B415B42DBB2002B9AD17B682822EA
:100F600001219954CE23FB1801221A702AE07B68D4
:100F70001C331A00CE257B191B781900100000F0D5
:100F800058FA03001C007B681C331A007B191B787D
:100F90001900100000F04DFA03001A005426BB1986
:100FA0005049180000F087FABB191900200007F01B
:100FB00042F8BB19180007F032F87B197A19127839
:100FC00001321A70CE23FB181C787B681C33180082
:100FD00000F0E9F903009C429B415B42DBB2002B2D
:100FE000C5D17B681C330021180000F022FA0300F1
:100FF0001C007B681C330021180000F01AFA030063
:101000001A006C257B193849180000F054FA7B1936
:101010001900200007F00FF87B19180006F0FFFFF9
:101020005AE0CD23FB1800221A7046E07B681C337F
:101030001A00CD257B191B781900100000F0F9F972
:1010400003001C007B191B785A1CB426BB19110025
:101050001800FFF738FE9C23FB18214AB919180025
:1010600000F0F5F97B681A001C327B191B78190017
:10107000100000F0DEF903001A0084203B189C21C8
:101080007918180000F0FDF984203B1819002000A1
:1010900006F0D1FF84203B18180006F0C0FF9C2109
:1010A0007B18180006F0BBFFBB19180006F0B7FF4D
:1010B0007B197A19127801321A70CD23FB181C782B
:1010C0007B681C33180000F06EF903009C429B41C2
:1010D0005B42DBB2002BA9D1C046BD4635B0F0BDA6
:1010E000F4860008F8860008FC860008F0B591B088
:1010F00000AF78607B6828229B5C002B61D17B6805
:101100002822012199543F23FB1801221A702AE05A
:101110007B681C331A003F257B191B7819001000CF
:1011200000F087F903001C007B681C331A007B1950
:101130001B781900100000F07CF903001A000C263F
:10114000BB192249180000F0B6F9BB19190020009C
:1011500006F071FFBB19180006F061FF7B197A19C0
:10116000127801321A703F23FB181C787B681C33FD
:10117000180000F018F903009C429B415B42DBB26F
:10118000002BC5D17B681C330021180000F051F9F9
:1011900003001C007B681C330021180000F049F993
:1011A00003001A0024257B190949180000F083F96F
:1011B0007B191900200006F03EFF7B19180006F08D
:1011C0002EFFC046BD4611B0F0BDC046F8860008EF
:1011D000FC86000880B582B000AF786039607B681B
:1011E0003A681100180007F009F83B689A697B68B3
:1011F0009A613B68DA697B68DA617B681800BD46F2
:1012000002B080BD80B584B000AFF860B960FB1D4E
:101210001A70BB681C331A00FB1D1B7819001000E4
:1012200000F007F90200FB6811001800FFF7D2FF79
:10123000F868BD4604B080BD80B582B000AF78606C
:101240007B6829229B5C1800BD4602B080BD80B53A
:1012500082B000AF78607B681C33180000F0A3F800
:101260000300DBB21800BD4602B080BD80B586B079
:1012700000AF7860396001237B613B685B433B6171
:101280003A683B695343FB603A68FB685343BB6071
:101290003B687A689A4201D27B691EE07A683B69B2
:1012A0009A4202D27B69013317E07A68FB689A425E
:1012B00002D27B69023310E07A68BB689A4202D29C
:1012C0007B69033309E0B9687868FEF725FF0300FE
:1012D0007B607B6904337B61DAE71800BD4606B0AA
:1012E00080BD000080B588B000AFF860B9607A605A
:1012F000BB68013BFB6122E07B6864211800FEF7BC
:1013000091FF0B005B007B617B6864211800FEF796
:1013100003FF03007B607B695A1CF968FB69CB18EB
:1013200017498A5C1A70FB69013BFA68D3181449A3
:101330007A698A1812781A70FB69023BFB617B6834
:10134000632BD9D87B68092B10D97B685B00BB6104
:10135000BB695A1CFB68013309498A5C1A70084A48
:10136000BB69D3181A78FB681A7005E07B68DBB29A
:101370003033DAB2FB681A70C046BD4608B080BD93
:101380003488000880B582B000AF78607B681800B0
:1013900000F0D6F87B68180000F0DFF87B681800D2
:1013A000BD4602B080BD80B582B000AF78607B687A
:1013B0005A687B681B68D31A5B111800BD4602B0DF
:1013C00080BD80B582B000AF786039607B6818005E
:1013D000FFF7E9FF02003B689A429B415B42DBB2A8
:1013E000002B0CD07B681800FFF7DDFF02003B6884
:1013F0009A1A7B681100180000F002F915E07B686A
:101400001800FFF7D0FF02003B6893429B415B420C
:10141000DBB2002B09D07B681A683B685B01D218ED
:101420007B681100180000F0A7F9C046BD4602B065
:1014300080BD80B582B000AF786039607B681A6883
:101440003B685B01D3181800BD4602B080BD80B573
:1014500084B000AFF860B9607A607A68BB68110048
:10146000180006F08FFE0300180000F0A6F9020035
:10147000FB681100180006F0B8FDF868BD4604B01E
:1014800080BD80B584B000AFF860B9607A607A68DA
:10149000BB681100180006F05FFE0300180000F0A2
:1014A0008CF90200FB681100180006F09EFDF86838
:1014B000BD4604B080BDB0B588B000AFF860B9607B
:1014C0007A60BB681800FFF7F1FB0300FB6118248A
:1014D0003B197A681100180006F06AFE14257B1982
:1014E0003A191100180000F071F97A19FB6811001F
:1014F000180006F06AFD7B19180006F08BFB3B19FB
:10150000180006F087FB7B68180006F0C1FD02009A
:10151000FB69D218FB681100180006F0BDFDFA69DE
:10152000B968FB68180006F01DFE7A68FB681100B8
:10153000180006F011FEC046F868BD4608B0B0BD00
:1015400080B582B000AF78607B68180000F04DF97C
:101550007B681800BD4602B080BD80B582B000AF88
:1015600078607B6800221A607B6800225A607B6882
:1015700000229A607B681800BD4602B080BD80B52D
:1015800084B000AFF860B9607A60BB68002B05D00A
:10159000FB687A68B968180000F030F9C046BD46AB
:1015A00004B080BD80B582B000AF78607B68180061
:1015B000BD4602B080BD80B584B000AFF860B960B0
:1015C0007A60BA68FB681100180000F027F9C0467D
:1015D000BD4604B080BD80B582B000AF181C00F0DD
:1015E00005F803001800BD4602B080BD80B582B08A
:1015F00000AF3B1D187001231800BD4602B080BD2E
:10160000B0B588B000AF786039603B68002B00D17E
:10161000ABE07B681800FFF7C6FE0300FB617B6848
:101620009A687B685B68D31A5B11BB617B681800A2
:1016300000F003F90200FB69934203D87B681800AD
:1016400000F0FBF8BA693B689A420FD37B685C688C
:101650007B681800FFF7A6FF02003B681900200016
:1016600000F0FCF802007B685A607EE0414A39686D
:101670007B68180000F003F903007B617B687A69DE
:101680001100180000F049F903003B61FFF7A3FFC8
:10169000031E1CD0FB695B013A69D4187B681800F3
:1016A000FFF780FF02003B681900200000F0D6F829
:1016B0007B681C687B685D687B681800FFF772FFB9
:1016C00003003A692900200000F03CF930E00023D3
:1016D000FB60FB695B013A69D4187B681800FFF76F
:1016E00061FF02003B681900200000F0B7F8FB69B9
:1016F0005B013A69D318FB607B681C687B685D6896
:101700007B681800FFF74EFF03003A6929002000AC
:1017100000F02DF97B681C687B685D687B681800A9
:10172000FFF740FF03001A0029002000FFF743FFE6
:1017300078687B6819687B689A687B681B68D31A2D
:101740005B111A00FFF71BFF7B683A691A60FA69A0
:101750003B68D3185B013A69D2187B685A607B6991
:101760005B013A69D2187B689A60C046BD4608B0F2
:10177000B0BDC0460087000890B585B000AF786066
:1017800039607B685A683B68D31A5B11FB60FB6861
:10179000002B0ED07B685C687B681800FFF702FFA7
:1017A00002003B6821001800FFF705FF7B683A68DC
:1017B0005A60C046BD4605B090BD80B582B000AF4E
:1017C00078607B681800BD4602B080BD80B582B0ED
:1017D00000AF786039607B683A681100180000F04B
:1017E000E1F87868BD4602B080BD80B582B000AF38
:1017F00078607B681800BD4602B080BD80B584B0BB
:1018000000AFF860B9607A607A68B968FB68180060
:1018100000F0D7F8C046BD4604B080BD80B582B0A8
:1018200000AF786039603A687B681100180000F0FA
:10183000D9F8C046BD4602B080BD80B582B000AFC9
:1018400078607B68180000F003F90300180000F0CE
:10185000E3F803001800BD4602B080BD80B584B037
:1018600000AFF860B9607A60BA68FB6811001800D0
:1018700000F0F7F803001800BD4604B080BD90B535
:1018800087B000AFF860B9607A60FB681800FFF7B6
:10189000D4FF0400FB681800FFF785FD0300E21A7F
:1018A000BB689A429B415B42DBB2002B03D07B6852
:1018B000180006F0B9F9FB681800FFF774FD040082
:1018C000FB681800FFF76FFD03003B610823FA185F
:1018D0001023FB181100180000F0D7F803001B6854
:1018E000E3187B61FB681800FFF75DFD02007B6970
:1018F000934207D3FB681800FFF79FFF02007B6944
:10190000934205D9FB681800FFF797FF030000E03A
:101910007B691800BD4607B090BD80B582B000AFAE
:10192000786039603B68002B07D07B683A6811000B
:10193000180000F0BCF8030000E000231800BD46CA
:1019400002B080BDB0B586B002AFF860B9607A6011
:101950003B603C687A68B968F8686B461D70230084
:1019600000F0B5F803001800BD4604B0B0BD90B556
:1019700085B000AFF860B9607A603B60FB68180022
:1019800000F0B7F80400BB68180000F0B2F80100DE
:101990003B687A68200000F0BCF803001800BD46E0
:1019A00005B090BD80B582B000AF786039603A680C
:1019B0007B681100180006F02CF97868BD4602B06B
:1019C00080BD80B584B000AFF860B9607A607B6894
:1019D0005A01BB681100180006F004F9C046BD4664
:1019E00004B080BD80B582B000AF786039600AE095
:1019F0007B68180000F09FF80300180000F0A4F8BE
:101A00007B6820337B607A683B689A42F0D1C0469D
:101A1000C046BD4602B080BD80B584B000AF7860DE
:101A20000A4BFB607B68180000F09AF80300BB606B
:101A30000823FA180C23FB181100180000F09DF879
:101A400003001B681800BD4604B080BDFFFFFF0304
:101A500080B582B000AF78607B681800BD4602B0E8
:101A600080BD80B584B000AF786039600F23FB186B
:101A700001221A703A687B681100180000F08FF894
:101A800003001800BD4604B080BD80B582B000AF31
:101A9000786039607B681A683B681B689A4201D29B
:101AA0003B6800E07B681800BD4602B080BD80B591
:101AB00082B000AF7860396039687B680022180016
:101AC00000F098F803001800BD4602B080BD80B554
:101AD00084B000AFF860B9607A603B603B687A68B8
:101AE000B968F86800F0AEF803001800BD4604B00D
:101AF00080BD80B584B000AF78607A680C23FB1895
:101B00001100180000F0BEF8FB681800BD4604B0D4
:101B100080BD80B584B000AFF860B9607A603B608A
:101B20007A68B968FB68180000F0BEF80300180076
:101B3000BD4604B080BD80B582B000AF78607B68E0
:101B40001800BD4602B080BD80B582B000AF78609D
:101B50007B681800FEF7A0FEC046BD4602B080BDFF
:101B600080B582B000AF78607B68180000F0B1F8F3
:101B700003001800BD4602B080BD80B582B000AF42
:101B8000786039603B681A687B681B689A4201D2AA
:101B90003B6800E07B681800BD4602B080BD80B5A0
:101BA00084B000AF786039607B68FB600DE0FB6853
:101BB0001800FFF7C0FF0300180000F0B9F83B68F9
:101BC000013B3B60FB682033FB603B68002BEED1A0
:101BD000FB681800BD4604B080BD000080B582B02F
:101BE00000AF7860024B1800BD4602B080BDC04611
:101BF000FFFFFF0380B584B000AFF860B9607A6082
:101C0000FB681800FFF7EAFF0200BB689A429B419D
:101C10005B42DBB25A1E9341DBB2002B08D0BA689C
:101C200080231B059A4201D305F0F8FF05F0F3FF6E
:101C3000BB685B01180005F0D9FF03001800BD4622
:101C400004B080BDB0B584B000AFF860B9607A6010
:101C50003B60FB68180000F082F80400BB681800C5
:101C600000F07DF805007B68180000F078F80200AD
:101C70003B682900200000F07BF803001800BD46F7
:101C800004B0B0BD80B582B000AF786039603B0071
:101C9000180000F095F803001A687B681A607B68EA
:101CA0001800BD4602B080BD80B586B000AFF860B8
:101CB000B9607A601723FB1801221A707A68B96834
:101CC000FB68180000F085F803001800BD4606B058
:101CD00080BD80B582B000AF78607B681800FFF7E8
:101CE0007DFF03001800BD4602B080BDB0B584B0D2
:101CF00000AF78607C680C257B19180005F088FF20
:101D00007A190A4B1900200006F0AAFA7B1918006C
:101D100005F080FF7B6800229A617B680022DA610F
:101D20007B681800BD4604B0B0BDC046F086000810
:101D300090B583B000AF78607B6819002020FEF773
:101D4000ABFF0400200020231A00002106F089FBCD
:101D50002000FFF7CBFFC046BD4603B090BD80B565
:101D600082B000AF78607B681800BD4602B080BDCD
:101D700090B587B000AFF860B9607A603B607B686F
:101D80007B6114E07B691800FFF7D5FE0400FB6857
:101D90001800FFF7D0FE01003B681A00200000F099
:101DA00046F8FB682033FB607B6920337B61FA686F
:101DB000BB689A42E6D17B691800BD4607B090BD6A
:101DC00080B582B000AF78607B681800BD4602B075
:101DD00080BDB0B586B000AFF860B9607A607B684E
:101DE0007B6115E07B691800FFF7A5FE04000C2558
:101DF0007B19180000F05CF803001900200000F0C7
:101E000079F87B19180000F044F87B6920337B6176
:101E10000823FA180C23FB181100180000F025F80D
:101E2000031EDFD17B691800BD4606B0B0BD80B58A
:101E300084B000AFF860B9607A60BB68180000F049
:101E400071F80200F9687B68180000F074F8BB684C
:101E50001800FFF770FE02007B681100180000F008
:101E60007EF8C046BD4604B080BD80B582B000AFEC
:101E7000786039603A687B681100180000F07EF8DD
:101E800003001A0001235340DBB21800BD4602B024
:101E900080BD80B582B000AF78607B681B6820335E
:101EA0001A007B681A607B681800BD4602B080BDCE
:101EB00080B582B000AF78607B681B681800BD46B3
:101EC00002B080BD80B582B000AF786039607B68B9
:101ED0003A681100180006F088F83B689A697B6838
:101EE0009A613B68DA697B68DA617B681800BD46F5
:101EF00002B080BD90B583B000AF786039603B68B8
:101F0000180000F052F804007B6819002020FEF74A
:101F1000C3FE030021001800FFF7D4FFC046BD46F2
:101F200003B090BD80B582B000AF78607B681800C8
:101F3000BD4602B080BD80B584B000AFF860B96026
:101F40007A607B68180000F030F80200B968FB681E
:101F5000180000F033F8C046BD4604B080BD80B51F
:101F600082B000AF786039603A687B681100180071
:101F700000F03DF8C046BD4602B080BD90B583B0CC
:101F800000AF786039607B68180000F03DF804000D
:101F90003B68180000F038F80300E31A5A42534136
:101FA000DBB21800BD4603B090BD80B582B000AF73
:101FB00078607B681800BD4602B080BD90B585B0E2
:101FC00000AFF860B9607A607B681800FFF7EDFF3A
:101FD0000400BB6819002020FEF75EFE030021000C
:101FE0001800FFF76FFFC046BD4605B090BD80B535
:101FF00082B000AF786039603B681800FEF74CFC97
:10200000C046BD4602B080BD80B582B000AF7860EA
:102010007B681B681800BD4602B080BD80B582B0E9
:1020200000AF78607B681C33180000F0C2FC7B684E
:102030000433180005F0F3FF7B681800BD4602B0BA
:1020400080BD80B582B000AF786039603B681A68A7
:102050007B681A607B681A1D3B6804331900100006
:1020600006F0CCF87B681C331A003B681C3319005F
:10207000100000F0B9FC3B682822995C7B6828229C
:1020800099543B682922995C7B68292299547B6882
:102090001800BD4602B080BDF0B5FE4CA54400AFAF
:1020A00001F028F900F02AFA00F0D8FB00F0B0FBAC
:1020B00000F09AFA00F078FB00F0E2FA00F04EFB34
:1020C000F5493026BB194E221800FEF7CAF93A1D11
:1020D0003B1D11001800FEF74FFE50243B1918005D
:1020E00005F096FD3A19ED4938257B19180006F0E0
:1020F000B7F83B1D7919381D0022FEF76BFE7B19DE
:10210000180005F08CFF3B19180005F083FD6C24C6
:102110003B19180005F07CFD3A19E14954257B195B
:10212000180006F09DF83B1D7919381D0122FEF7B5
:1021300051FE7B19180005F072FF3B19180005F0DD
:1021400069FD88243B19180005F062FD3A19D5494C
:1021500070257B19180006F083F83B1D7919381D8E
:102160000222FEF737FE7B19180005F058FF3B19D5
:10217000180005F04FFDA4243B19180005F048FD98
:102180003A19C9498C257B19180006F069F83B1DDE
:102190007919381D0322FEF71DFE7B19180005F082
:1021A0003EFF3B19180005F035FDC0243B1918000F
:1021B00005F02EFD3A19BD49A8257B19180006F037
:1021C0004FF83B1D7919381D0422FEF703FE7B19D9
:1021D000180005F024FF3B19180005F01BFDDC2456
:1021E0003B19180005F014FD3A19B149C4257B19B3
:1021F000180006F035F83B1D7919381D0522FEF749
:10220000E9FD7B19180005F00AFF3B19180005F0DD
:1022100001FDF8243B19180005F0FAFC3A19A5490C
:10222000E0257B19180006F01BF83B1D7919381DB5
:102230000622FEF7CFFD7B19180005F0F0FE3B19D2
:10224000180005F0E7FC8A2464003B19180005F02B
:10225000DFFC3A199849FC257B19180006F000F8B4
:102260003B1D7919381D0722FEF7B4FD7B191800B4
:1022700005F0D5FE3B19180005F0CCFC982464004D
:102280003B19180005F0C4FC3A198C498C256D00E7
:102290007B19180005F0E4FF3B1D7919381D082251
:1022A000FEF798FD7B19180005F0B9FE3B191800E0
:1022B00005F0B0FCA62464003B19180005F0A8FC4A
:1022C0003A197F499A256D007B19180005F0C8FF5F
:1022D0003B1D7919381D0922FEF77CFD7B1918007A
:1022E00005F09DFE3B19180005F094FCB424640031
:1022F0003B19180005F08CFC3A197249A8256D00AD
:102300007B19180005F0ACFF3B1D7919381D0A2216
:10231000FEF760FD7B19180005F081FE3B191800DF
:1023200005F078FCC22464003B19180005F070FC2D
:102330003A196549B6256D007B19180005F090FF24
:102340003B1D7919381D0B22FEF744FD7B1918003F
:1023500005F065FE3B19180005F05CFCD024640014
:102360003B19180005F054FC3A195849C4256D0072
:102370007B19180005F074FF3B1D7919381D0C22DC
:10238000FEF728FD7B19180005F049FE3B191800DF
:1023900005F040FCDE2464003B19180005F038FC11
:1023A0003A194B49D2256D007B19180005F058FFEA
:1023B0003B1D7919381D0D22FEF70CFD7B19180005
:1023C00005F02DFE3B19180005F024FCEC246400F8
:1023D0003B19180005F01CFC3A193E49E0256D0038
:1023E0007B19180005F03CFF3B1D7919381D0E22A2
:1023F000FEF7F0FC7B19180005F011FE3B191800E0
:1024000005F008FCFA2464003B19180005F000FCF4
:102410003A193149EE256D007B19180005F020FFAF
:102420003B1D7919381D0F22FEF7D4FC7B191800CB
:1024300005F0F5FD3B19180005F0ECFB8424A40021
:102440003B19180005F0E4FB3A192449FC256D00FE
:102450007B19180005F004FF3B1D7919381D102267
:10246000FEF7B8FC7B19180005F0D9FD3B191800E0
:1024700005F0D0FB3B1D1800FEF738FE3B1D180091
:10248000FEF7F8FC3A1D8524A4003B191100180042
:1024900026E0C046BCFDFFFF780000201C87000836
:1024A0002087000824870008288700082C87000858
:1024B0003087000834870008388700083C87000808
:1024C00040870008448700084C87000854870008AC
:1024D000588700085C870008608700086487000848
:1024E000FFF7AFFD3919BB1902221800FEF7E1F919
:1024F0003B191800FFF792FDFEE7C04690B595B076
:1025000000AF20243B19180030231A00002105F0E9
:10251000A8FF1023FB18180010231A00002105F053
:10252000A0FF3B00180010231A00002105F099FFBE
:1025300021007B180A221A607B180122DA607B18BE
:1025400010221A617B180122DA617B1802221A62BA
:102550007B1800225A627B18A02292039A627B1891
:102560000022DA627B18180003F094FA03005A1E66
:102570009341DBB2002B01D000F016FA10217B183A
:1025800007221A607B1802225A607B1800229A6088
:102590007B180022DA607B180121180003F094FDFB
:1025A00003005A1E9341DBB2002B01D000F0FCF96E
:1025B0003B000C4A1A603B000022DA603B0080229C
:1025C00092005A603B00180003F0C2FE03005A1E3E
:1025D0009341DBB2002B01D000F0E6F9C046BD46C6
:1025E00015B090BD2000010080B500AF214B224AFC
:1025F0001A60204B214A5A601E4B00229A601D4BE4
:102600000122DA601B4B00221A611A4B00225A6128
:10261000184B00229A61174B0022DA61154B0022F9
:102620001A62144B180001F07BFB03005A1E934101
:10263000DBB2002B01D000F0B7F90E4B00211800DF
:1026400003F090F903005A1E9341DBB2002B01D036
:1026500000F0AAF9074B0021180003F0CFF903009E
:102660005A1E9341DBB2002B01D000F09DF9C04609
:10267000BD4680BD78000020005400400B020000E1
:1026800080B586B000AF3B1D180014231A0000214E
:1026900005F0E7FE3B0000221A602E4B2E4A1A601E
:1026A0002C4B00225A602B4B7F229A60294B3822F8
:1026B000FF32DA60274B00221A61264B00225A6152
:1026C000244B00229A61234B180003F00FFF0300F4
:1026D0005A1E9341DBB2002B01D000F065F93B1D7F
:1026E00016221A703B1D10225A703B1D00229A7050
:1026F0003B1D0022DA603B1D00221A61391D154B7B
:102700000122180003F08AFF03005A1E9341DBB236
:10271000002B01D000F048F93B0004221A703B0066
:1027200003225A703B0030229A703B002322DA7059
:102730003900084B0122180004F016F803005A1E55
:102740009341DBB2002B01D000F02EF9C046BD460C
:1027500006B080BD540100200028004080B500AFC5
:102760000E4B0F4A1A600D4B0E4A5A600B4B00225B
:102770009A600A4B0922DA60084B00229A61074BE3
:10278000180004F036F903005A1E9341DBB2002B07
:1027900001D000F009F9C046BD4680BD740100209B
:1027A000001000407FBB000080B500AF164B174AF9
:1027B0001A60154B962212025A60134B00229A603F
:1027C000114B0022DA60104B00221A610E4B0C22D2
:1027D0005A610D4B00229A610B4B0022DA610A4BC1
:1027E00000221A62084B00225A62074B180004F0BC
:1027F00015FB03005A1E9341DBB2002B01D000F001
:10280000D3F8C046BD4680BDBC0100200044004056
:1028100080B582B000AF104B5A690F4B01210A43BB
:102820005A610D4B5B69012213407B607B6800227B
:1028300000210A2000F092FE0A2000F0A4FE0022EF
:1028400000210B2000F08AFE0B2000F09CFEC04609
:10285000BD4602B080BDC0460010024090B589B0B0
:1028600000AF0C243B19180014231A00002105F0B6
:10287000F8FD494B5A69484B802189020A435A6145
:10288000454B5A6980239B021340BB60BB68424B97
:102890005A69414B8021C9020A435A613E4B5A6929
:1028A0008023DB0213407B607B683B4B5A693A4BC9
:1028B000802109030A435A61374B5A6980231B035D
:1028C00013403B603B68F0231B0234480022190090
:1028D00001F008FAF0239B0031480022190001F0B2
:1028E00001FAD82359019023DB050022180001F0DA
:1028F000F9F93B192B4A1A603B1900225A603B191F
:1029000002229A603A199023DB051100180001F0A9
:1029100079F821007B18F02212021A600C003B1992
:1029200001225A603B1900229A603B190022DA60AA
:102930003B191A4A1900100001F064F821007B18B5
:10294000F02292001A600C003B1901225A603B19D8
:1029500000229A603B190022DA603B19104A1900E4
:10296000100001F04FF821007B18D82252011A60A4
:102970007B1801225A607B1800229A607B18002283
:10298000DA607A189023DB051100180001F03AF89C
:10299000C046BD4609B090BD00100240000400488A
:1029A000000800483104000080B500AF72B6C04690
:1029B000FEE7B0B582B000AF78607B681C687B68CA
:1029C0005D687B681800FEF7EDFD03001A00290022
:1029D0002000FEF7F0FD7B68180000F050F87B68DF
:1029E0001800BD4602B0B0BDF0B585B000AF78604C
:1029F00039607C683B681800FEF7D5FC05003B6831
:102A00001800FFF725F802000C26BB19110018006A
:102A100000F04FF8BB191A002900200000F065F8FB
:102A2000BB19180000F054F83B68180000F074F867
:102A300005003B68180000F07FF806007B681C6802
:102A40007B681800FEF7AEFD03002200310028006D
:102A500000F083F802007B685A607B681800BD466E
:102A600005B0F0BD80B582B000AF78607B6818001B
:102A700000F02EF87B681800BD4602B080BD80B51E
:102A800082B000AF78607B6819687B689A687B6861
:102A90001B68D31A5B111A007B681800FEF76FFDE4
:102AA0007B681800FFF7DEFF7B681800BD4602B0A8
:102AB00080BD80B582B000AF786039607B683A68CD
:102AC0001100180000F05BF87868BD4602B080BDC8
:102AD00080B582B000AF78607B68180000F06EF8B7
:102AE0007B681800BD4602B080BD80B584B000AFE1
:102AF000F860B9607A60FB687A681100180000F02D
:102B000066F8BA68FB681100180000F074F8FB68FA
:102B10001800BD4604B080BD80B584B000AF7860B9
:102B20007A680C23FB181100180000F081F8FB688C
:102B30001800BD4604B080BD80B584B000AF786099
:102B40007B681A1D0C23FB181100180000F070F8A8
:102B5000FB681800BD4604B080BD80B584B000AFEE
:102B6000F860B9607A603B607A68B968FB68180001
:102B700000F06CF803001800BD4604B080BD80B5BD
:102B800082B000AF786039603A687B681100180045
:102B900000F004F87868BD4602B080BD80B582B010
:102BA00000AF786039603A687B681100180000F067
:102BB00062F87B681800BD4602B080BD80B582B067
:102BC00000AF78607B681800BD4602B080BD80B55C
:102BD00082B000AF786039603A687B6811001800F5
:102BE000FFF7DCFF7B681800FEF7B7FC7B68180076
:102BF000BD4602B080BD80B582B000AF786039605C
:102C00003A687B6811001800FEF787FE02007B68B7
:102C10001A607B681A687B685A607B681A683B6830
:102C20005B01D2187B689A60C046BD4602B080BD89
:102C300080B582B000AF786039603B681A687B6805
:102C40001A607B681800BD4602B080BD80B586B0B2
:102C500000AFF860B9607A601723FB1801221A7080
:102C60007A68B968FB68180000F00FF803001800D4
:102C7000BD4606B080BD80B582B000AF78603960D7
:102C80007B681800BD4602B080BDB0B586B000AF0D
:102C9000F860B9607A607B687B6115E07B69180039
:102CA000FEF749FF04000C257B19180000F043F8DB
:102CB00003001900200000F048F87B19180000F00C
:102CC0002BF87B6920337B610823FA180C23FB184F
:102CD0001100180000F007F8031EDFD17B6918000F
:102CE000BD4606B0B0BD90B583B000AF7860396026
:102CF0007B68180000F041F803001C683B6818006E
:102D000000F03BF803001B68E31A5A1E9341DBB244
:102D10001800BD4603B090BD80B582B000AF7860AA
:102D20007B681B6820331A007B681A607B68180078
:102D3000BD4602B080BD80B582B000AF78607B68D0
:102D40001B681800BD4602B080BD90B583B000AFCF
:102D5000786039603B68180000F018F804007B6860
:102D600019002020FDF798FF030021001800FEF74E
:102D700031FAC046BD4603B090BD80B582B000AF09
:102D800078607B681800BD4602B080BD80B582B017
:102D900000AF78607B681800BD4602B080BD0000BF
:102DA00080B582B000AF0F4B9A690E4B01210A43E8
:102DB0009A610C4B9B69012213407B607B68094B35
:102DC000DA69084B802149050A43DA61054BDA6963
:102DD00080235B0513403B603B68C046BD4602B0A4
:102DE00080BDC0460010024090B58BB000AF786047
:102DF00014243B19180014231A00002105F031FB9C
:102E00007B681B68464A934200D085E0454B5A696F
:102E1000444B8021C9020A435A61424B5A698023BC
:102E2000DB0213403B613B6921007B18C0221A6022
:102E30007B1812225A607B1800229A607B180322AA
:102E4000DA607B1801221A617B18374A19001000DA
:102E500000F0D8FD334BDA69324B802189030A43F5
:102E6000DA61304BDA6980239B031340FB60FB6817
:102E70002E4B2F4A1A602D4B00225A602B4B0022FA
:102E80009A602A4B8022DA60284B00221A61274B75
:102E900000225A61254B00229A61244B0022DA61FC
:102EA000224B180000F08CFB031E01D0FFF77CFDC5
:102EB0007B681E4ADA631D4B7A685A621D4B1E4AB4
:102EC0001A601C4B10225A601A4B00229A60194B50
:102ED0008022DA60174B00221A61164B00225A61D9
:102EE000144B00229A61134B0022DA61114B180037
:102EF00000F066FB031E01D0FFF756FD7B680D4A0C
:102F00009A630C4B7A685A6200220021172000F065
:102F100025FB172000F037FBC046BD460BB090BD27
:102F2000005400400010024000040048CC00002083
:102F300030000240100100201C00024080B582B029
:102F400000AF78607B681B68064A934206D1064B47
:102F50001A6A054B802109020A431A62C046BD461F
:102F600002B080BD002800400010024080B584B04F
:102F700000AF78607B681B680D4A934213D10D4BFC
:102F8000DA690C4B10210A43DA610A4BDB69102223
:102F90001340FB60FB6800220021112000F0DEFAE4
:102FA000112000F0F0FAC046BD4604B080BDC04616
:102FB000001000400010024090B58BB000AF786068
:102FC00014243B19180014231A00002105F049FAB3
:102FD0007B681B68474A934200D086E0464BDA691B
:102FE000454B802189020A43DA61434BDA69802329
:102FF0009B0213403B613B693F4B5A693E4B80212A
:1030000089020A435A613C4B5A6980239B02134050
:10301000FB60FB6821007B180C221A607B180222DF
:103020005A607B1800229A607B180322DA607B18B2
:1030300001221A617A189023DB051100180000F0B4
:10304000E1FC2E4B2E4A1A602C4B00225A602B4B6F
:1030500000229A60294B8022DA60284B00221A61F4
:10306000264B00225A61254B00229A61234B0022F5
:10307000DA61224B180000F0A3FA031E01D0FFF71B
:1030800093FC7B681D4A5A671C4B7A685A621D4B39
:103090001D4A1A601B4B10225A601A4B00229A607C
:1030A000184B8022DA60174B00221A61154B002260
:1030B0005A61144B00229A61124B0022DA61114BC3
:1030C000180000F07DFA031E01D0FFF76DFC7B684D
:1030D0000C4A1A670B4B7A685A62002200211C20A6
:1030E00000F03CFA1C2000F04EFAC046BD460BB082
:1030F00090BDC04600440040001002404402002041
:1031000058000240880200204400024080B500AF11
:10311000FEE780B500AFFEE780B500AFC046BD4614
:1031200080BD80B500AFC046BD4680BD80B500AF54
:1031300000F028F9C046BD4680BD000080B500AF54
:10314000054B180000F067FB044B180000F063FB10
:10315000C046BD4680BDC04610010020CC00002006
:1031600080B500AF054B180000F055FB044B18006C
:1031700000F051FBC046BD4680BDC046880200201D
:103180004402002080B500AF034B180003F081FC1F
:10319000C046BD4680BDC0467401002080B500AF6A
:1031A000094B1B689A69E023DB00134004D0064BEF
:1031B000180000F06BFF03E0034B180000F04CFF19
:1031C000C046BD4680BDC0467800002080B500AF37
:1031D000034B180003F076FEC046BD4680BDC046D6
:1031E000BC01002080B500AF01231800BD4680BDA2
:1031F00080B582B000AF7860396005F0A5F90300B2
:1032000016221A6001235B421800BD4602B080BD41
:1032100080B582B000AF786001235A427B6811000C
:103220001800FFF7E5FFFEE780B586B000AF7860D5
:10323000144A154BD31A7B617B693B61134B1B68A6
:10324000002B02D1114B124A1A60104B1A687B688E
:10325000D3183A699A4207D205F076F903000C2296
:103260001A6001235B4209E0084B1B68FB60074BB7
:103270001A687B68D218054B1A60FB681800BD46B7
:1032800006B080BD0020002000040000CC02002019
:103290002004002080B500AFC046BD4680BD0000C0
:1032A0000D488546FFF7F6FF0C480D490D4A0023EF
:1032B00002E0D458C4500433C4188C42F9D30A4AEB
:1032C0000A4C002301E013600432A242FBD305F054
:1032D00041F9FEF7E1FEFEE700200020000000209B
:1032E0005C000020588A00085C00002020040020B8
:1032F000FEE7000080B500AF074B1A68064B1021AF
:103300000A431A60002000F009F8FFF749FD002386
:103310001800BD4680BDC0460020024090B583B075
:1033200000AF7860144B1C68144B1B781900FA230B
:103330009800FCF7F1FE030019002000FCF7ECFEFA
:103340000300180000F02FF9031E01D001230FE045
:103350007B68032B0BD8796801235B42002218009D
:1033600000F0FCF8064B7A681A60002300E00123A5
:103370001800BD4603B090BD0000002008000020EA
:103380000400002080B500AF054B1B781A00054BE8
:103390001B68D218034B1A60C046BD4680BDC046AC
:1033A00008000020D002002080B500AF024B1B684F
:1033B0001800BD4680BDC046D002002080B584B054
:1033C00000AF7860FFF7F0FF0300BB607B68FB6035
:1033D000FB68013305D00A4B1B781A00FB689B1869
:1033E000FB60C046FFF7E0FF0200BB68D31AFA6833
:1033F0009A42F7D8C046C046BD4604B080BDC0461C
:103400000800002080B582B000AF0200FB1D1A70DA
:10341000FB1D1B787F2B09D8FB1D1B781A001F236F
:103420001A40044B012191400A001A60C046BD4673
:1034300002B080BD00E100E090B583B000AF0200B3
:103440003960FB1D1A70FB1D1B787F2B28D82F4A73
:10345000FB1D1B785BB29B08C0339B009B58FA1D79
:103460001278110003220A40D200FF2191400A0085
:10347000D2431A4011003B689B01FF221A40FB1DFA
:103480001B78180003230340DB009A401F48FB1DF4
:103490001B785BB29B080A43C0339B001A5031E093
:1034A0001B4AFB1D1B7819000F230B40083B9B0890
:1034B00006339B00D31804331B68FA1D12781100E1
:1034C00003220A40D200FF2191400A00D2431A4051
:1034D00011003B689B01FF221A40FB1D1B7818005E
:1034E00003230340DB009A400948FB1D1B781C00A6
:1034F0000F232340083B9B080A4306339B00C31855
:1035000004331A60C046BD4603B090BD00E100E040
:1035100000ED00E080B582B000AF78607B685A1E95
:1035200080235B049A4201D3012310E00A4B7A689E
:10353000013A5A6001235B4203211800FFF77CFF28
:10354000054B00229A60044B07221A6000231800E2
:10355000BD4602B080BDC04610E000E080B584B03A
:1035600000AFB9607A600F217B18021C1A70BA682C
:103570007B181B785BB211001800FFF75DFFC04697
:10358000BD4604B080BD80B582B000AF0200FB1D17
:103590001A70FB1D1B785BB21800FFF733FFC046A3
:1035A000BD4602B080BD80B582B000AF78607B6858
:1035B0001800FFF7AFFF03001800BD4602B080BD42
:1035C00080B584B000AF78600023FB607B68002B7F
:1035D00001D1012336E07B682122022199547B68C6
:1035E0001B681B68FB60FB68184A1340FB607B6824
:1035F0005A687B689B681A437B68DB681A437B6860
:103600001B691A437B685B691A437B689B691A4391
:103610007B68DB691343FA681343FB607B681B68B4
:10362000FA681A607B68180000F0D0F97B68002205
:103630009A637B682122012199547B682022002112
:10364000995400231800BD4604B080BD0FC0FFFF91
:1036500080B586B000AFF860B9607A603B60172330
:10366000FB1800221A70FB6820229B5C012B01D101
:1036700002234FE0FB68202201219954FB6821229C
:103680009B5CDBB2012B3AD1FB68212202219954C9
:10369000FB6800229A63FB681B681A68FB681B685A
:1036A00001218A431A603B687A68B968F86800F0BB
:1036B00060F9FB68DB6A002B08D0FB681B681A689E
:1036C000FB681B680E210A431A600FE0FB681B6849
:1036D0001A68FB681B680A210A431A60FB681B68AA
:1036E0001A68FB681B6804218A431A60FB681B6820
:1036F0001A68FB681B6801210A431A6007E0FB682F
:103700002022002199541723FB1802221A70172334
:10371000FB181B781800BD4606B080BD80B582B08E
:1037200000AF78607B6821229B5CDBB2022B08D063
:103730007B6804229A637B6820220021995401232C
:1037400020E07B681B681A687B681B680E218A432F
:103750001A607B681B681A687B681B6801218A43B2
:103760001A607B681A6C7B68DB6B012191400A0050
:103770005A607B682122012199547B682022002114
:10378000995400231800BD4602B080BD80B584B0B6
:1037900000AF78600F217B1800221A707B6821220D
:1037A0009B5CDBB2022B06D07B6804229A637B18F9
:1037B00001221A7028E07B681B681A687B681B6806
:1037C0000E218A431A607B681B681A687B681B6835
:1037D00001218A431A607B681A6C7B68DB6B0121CC
:1037E00091400A005A607B682122012199547B682C
:1037F0002022002199547B685B6B002B04D07B68EE
:103800005B6B7A68100098470F23FB181B78180031
:10381000BD4604B080BD80B584B000AF78607B68E1
:10382000DB6B1B68FB607B681B681B68BB607B688D
:103830001B6C04229A401300FA68134024D0BB6822
:103840000422134020D07B681B681B682022134091
:1038500007D17B681B681A687B681B6804218A4350
:103860001A607B681A6C7B68DB6B042191400A004C
:103870005A607B68DB6A002B00D16AE07B68DB6AF8
:103880007A681000984764E07B681B6C02229A40BB
:103890001300FA6813402BD0BB680222134027D0D4
:1038A0007B681B681B68202213400BD17B681B6858
:1038B0001A687B681B680A218A431A607B68212288
:1038C000012199547B681A6C7B68DB6B0221914063
:1038D0000A005A607B682022002199547B689B6A09
:1038E000002B36D07B689B6A7A681000984730E0DE
:1038F0007B681B6C08229A401300FA68134028D09A
:10390000BB680822134024D07B681B681A687B6858
:103910001B680E218A431A607B681A6C7B68DB6B1C
:10392000012191400A005A607B6801229A637B68FA
:103930002122012199547B682022002199547B681F
:103940001B6B002B05D07B681B6B7A6810009847B7
:10395000FFE7C046BD4604B080BD80B582B000AF71
:1039600078607B6821229B5CDBB21800BD4602B008
:1039700080BD80B584B000AFF860B9607A603B600C
:10398000FB681A6CFB68DB6B012191400A005A60EE
:10399000FB681B683A685A60FB685B68102B08D1AB
:1039A000FB681B687A689A60FB681B68BA68DA6013
:1039B00007E0FB681B68BA689A60FB681B687A6856
:1039C000DA60C046BD4604B080BD000080B582B05C
:1039D00000AF78607B681B68084A944663441421F2
:1039E0001800FCF799FB03009A007B681A647B6857
:1039F000034ADA63C046BD4602B080BDF8FFFDBF92
:103A00000000024080B586B000AF786039600023C6
:103A10007B614FE13B681B6801217A6991400A0094
:103A20001340FB60FB68002B00D140E13B685B6802
:103A300003221340012B05D03B685B68032213402F
:103A4000022B30D17B689B683B617B695B00032262
:103A50009A401300DA433B6913403B613B68DA68E4
:103A60007B695B009A4013003A6913433B617B68B2
:103A70003A699A607B685B683B6101227B699A4086
:103A80001300DA433B6913403B613B685B681B09E9
:103A900001221A407B699A4013003A6913433B6143
:103AA0007B683A695A603B685B6803221340032BCA
:103AB00017D07B68DB683B617B695B0003229A401F
:103AC0001300DA433B6913403B613B689A687B69AA
:103AD0005B009A4013003A6913433B617B683A6983
:103AE000DA603B685B6803221340022B23D17B69B9
:103AF000DA087B6808329200D3583B617B69072261
:103B000013409B000F229A401300DA433B69134095
:103B10003B613B681A697B6907210B409B009A4017
:103B200013003A6913433B617B69DA087B6808320A
:103B300092003969D1507B681B683B617B695B00EF
:103B400003229A401300DA433B6913403B613B6810
:103B50005B6803221A407B695B009A4013003A6954
:103B600013433B617B683A691A603B685A68C0231B
:103B70009B02134000D19AE0544B9A69534B0121A8
:103B80000A439A61514B9B6901221340BB60BB6899
:103B90004F4A7B699B0802339B009B583B617B69C2
:103BA000032213409B000F229A401300DA433B6923
:103BB00013403B617A689023DB059A4213D07B68FF
:103BC000444A93420DD07B68434A934207D07B68B6
:103BD000424A934201D1032306E0052304E0022375
:103BE00002E0012300E000237A6903210A409200E9
:103BF00093403A6913433B6135497B699B08023323
:103C00009B003A695A50364B9B683B61FB68DA432C
:103C10003B6913403B613B685A6880235B03134058
:103C200003D03A69FB6813433B612D4B3A699A60B4
:103C30002B4BDB683B61FB68DA433B6913403B611C
:103C40003B685A6880239B03134003D03A69FB68A2
:103C500013433B61224B3A69DA60214B5B683B615D
:103C6000FB68DA433B6913403B613B685A68802339
:103C70009B02134003D03A69FB6813433B61184B26
:103C80003A695A60164B1B683B61FB68DA433B6933
:103C900013403B613B685A6880235B02134003D0AA
:103CA0003A69FB6813433B610D4B3A691A607B69C3
:103CB00001337B613B681A687B69DA40131E00D0D0
:103CC000A8E6C046C046BD4606B080BD0010024012
:103CD000000001400004004800080048000C0048B3
:103CE0000004014080B582B000AF78600800110088
:103CF000BB1C021C1A807B1C0A1C1A707B1C1B78C4
:103D0000002B04D0BB1C1A887B689A6103E0BB1CA3
:103D10001A887B689A62C046BD4602B080BD00002A
:103D200080B582B000AF78607B68002B01D10123A1
:103D300082E07B6841229B5CDBB2002B07D17B6871
:103D40004022002199547B681800FFF74DF87B68EA
:103D50004122242199547B681B681A687B681B6880
:103D600001218A431A607B685A687B681B68344962
:103D70000A401A617B681B689A687B681B68314936
:103D80000A409A607B68DB68012B08D17B689A68DF
:103D90007B681B68802109020A439A6007E07B6800
:103DA0009A687B681B68842109020A439A607B68D1
:103DB000DB68022B04D17B681B68802212015A60E9
:103DC0007B681B685A687B681B681F490A435A60F6
:103DD0007B681B68DA687B681B681A490A40DA60EE
:103DE0007B681A697B685B691A4311007B689B6971
:103DF0001A027B681B680A43DA607B68D9697B68B2
:103E00001A6A7B681B680A431A607B681B681A6819
:103E10007B681B6801210A431A607B6800225A6490
:103E20007B684122202199547B6800221A637B68B9
:103E300042220021995400231800BD4602B080BDE3
:103E4000FFFFFFF0FF7FFFFF00800002B0B588B0EA
:103E500002AFF86008007A6019000A23FB18021C00
:103E60001A800823FB180A1C1A80FB6841229B5CFD
:103E7000DBB2202B00D0DDE0FB681B689A69802351
:103E80001B021A4080231B029A4201D10223D2E076
:103E9000FB6840229B5C012B01D10223CBE0FB6835
:103EA000402201219954FB68412221219954FB6849
:103EB000422210219954FB6800225A64FB687A68F8
:103EC0005A62FB680822BA1812885A85FB685C4A55
:103ED000DA62FB685B4A5A63FB685B8D9BB2FF2B1F
:103EE00006D9FB68FF221A8580235B047B6107E00B
:103EF000FB685B8D9AB2FB681A8580239B047B610B
:103F0000FB681B8D002B00D178E0FB689B6B002BBE
:103F100023D0FB689B6B4C4A9A62FB689B6B4B4AB5
:103F20001A63FB689B6B0022DA62FB689B6B0022C2
:103F30005A63FB68986B7968FB681B6828331A0022
:103F4000FB681B8D13257C19FFF782FB0300237090
:103F50007B191B78002B3DD113E0FB684122202107
:103F60009954FB68422200219954FB685B6C8022C3
:103F70001A43FB685A64FB684022002199540123CC
:103F800059E0FB681B8DDAB27C690A23FB1819889B
:103F9000F8682F4B0093230001F0B8FBFB685B8DA2
:103FA0009AB2FB681B8DD31A9AB2FB685A85FB68DC
:103FB000402200219954FB681021180001F0E0FB19
:103FC000FB681B681A68FB681B688021C9010A43EB
:103FD0001A602DE0FB68412220219954FB6842229F
:103FE00000219954FB685B6C10221A43FB685A64E9
:103FF000FB6840220021995401231CE0FB68154A0C
:104000005A63FB681B8DDAB280239C040A23FB18D9
:104010001988F8680E4B0093230001F077FBFB68CA
:10402000402200219954FB680121180001F0A8FBEF
:10403000002300E002231800BD4606B0B0BDC04614
:104040000000FFFF45460008FD5500089D5600088A
:1040500000200080F141000880B584B000AF786096
:104060007B681B689B69FB607B681B681B68BB6087
:104070007B685B6B002B05D07B685B6BBA68F9686B
:1040800078689847C046BD4604B080BD80B586B00C
:1040900000AF78607B681B689B697B617B681B68ED
:1040A0001B683B617A6980235B0013400ED03B693B
:1040B000802213400AD07B685B6C01221A437B6824
:1040C0005A647B681B6880225200DA617A69802317
:1040D000DB0013400ED03B69802213400AD07B687E
:1040E0005B6C08221A437B685A647B681B688022D9
:1040F000D200DA617A6980239B0013400ED03B69BD
:10410000802213400AD07B685B6C02221A437B68D2
:104110005A647B681B6880229200DA617B685B6C62
:10412000FB60FB680B22134005D0FA687B68110026
:10413000180001F015F9C046BD4606B080BD80B537
:1041400082B000AF7860C046BD4602B080BD80B589
:1041500082B000AF7860C046BD4602B080BD80B579
:1041600082B000AF7860C046BD4602B080BD80B569
:1041700082B000AF7860C046BD4602B080BD80B559
:1041800082B000AF786008001100FB1C021C1A709E
:104190003B000A1C1A80C046BD4602B080BD80B5F7
:1041A00082B000AF7860C046BD4602B080BD80B529
:1041B00082B000AF7860C046BD4602B080BD80B519
:1041C00082B000AF7860C046BD4602B080BD80B509
:1041D00082B000AF7860C046BD4602B080BD80B5F9
:1041E00082B000AF7860C046BD4602B080BD00001E
:1041F00090B589B002AFF860B9607A60BB687B6146
:10420000FB6840229B5C012B01D1022313E1FB6878
:104210004022012199547B691022134012D07B68FF
:10422000102213400ED0FB681B681022DA61FB6875
:104230005B6C04221A43FB685A64FB68180001F0A7
:10424000BAF9E5E07B690422134021D07B6804229F
:1042500013401DD07B69042293437B61FB681B687C
:104260005A6AFB685B6AD2B21A70FB685B6A5A1CB6
:10427000FB685A62FB681B8D013B9AB2FB681A858A
:10428000FB685B8D9BB2013B9AB2FB685A85BFE02D
:104290007B69022213401CD07B680222134018D095
:1042A000FB685B6A1A78FB681B689A62FB685B6A4A
:1042B0005A1CFB685A62FB681B8D013B9AB2FB6873
:1042C0001A85FB685B8D9BB2013B9AB2FB685A85ED
:1042D0009EE07B698022134000D169E07B68402228
:1042E000134065D0FB685B8D9BB2002B4AD0FB6806
:1042F0001B8D002B46D1FB681B685B689AB21221AC
:104300007B189205920D1A80FB685B8D9BB2FF2B88
:1043100010D9FB68FF221A85FB681B8DDAB2802357
:104320005C047B181988F86800230093230001F0CF
:10433000EDF93CE0FB685B8D9AB2FB681A85FB687F
:10434000DB6A3F4A93420ED0FB681B8DDAB2FB68F2
:10435000DC6A1223FB181988F868002300932300F5
:1043600001F0D4F923E0FB681B8DDAB280239C04B2
:104370001223FB181988F86800230093230001F02A
:10438000C5F914E0FB681B685A6880239B041A4037
:1043900080239B049A4204D0FB68180000F0F4FCD0
:1043A00036E0FB684021180000F0DAFF30E02FE033
:1043B0007B69402213402BD07B684022134027D0DA
:1043C000FB685B8D9BB2002B1DD1FB681B685A6894
:1043D00080239B041A4080239B049A4218D0FB68D8
:1043E000DB6A174A934209D1FB681B685A68FB686D
:1043F0001B688021C9010A435A6009E0FB68180064
:1044000000F0C2FC04E0FB684021180000F0A8FFA7
:104410007B692022134009D07B682022134005D0FD
:104420007A69FB681100180000F054FDFB68402217
:104430000021995400231800BD4607B090BDC04626
:104440000000FFFF80B586B000AFF860B9607A6009
:10445000FB68DB6A7B61BB683B61FB6840229B5C5D
:10446000012B01D10223E6E0FB684022012199548F
:104470003B692022134009D07B682022134005D0DD
:104480003A69FB681100180000F0F2FD3B69102248
:10449000134052D07B68102213404ED0FB685B8DD6
:1044A0009BB2002B2DD1FB6841229B5CDBB2282BF9
:1044B0000BD17A6980239B049A4206D13A69FB6842
:1044C0001100180000F0F4FE36E0FB6841229B5C0E
:1044D000DBB2292B10D17B69594A93420CD0FB687F
:1044E0001B681022DA61FB68180001F064F8FB68B1
:1044F000180000F08BFC1FE0FB681B681022DA61DB
:1045000091E0FB681B681022DA61FB685B6C042297
:104510001A43FB685A647B69002B05D07A698023B3
:104520005B049A4200D07EE0FB685A6CFB68110085
:10453000180000F015FF76E075E03B690422134097
:104540002FD07B68042213402BD0FB685B8D9BB27D
:10455000002B18D0FB681B685A6AFB685B6AD2B2F2
:104560001A70FB685B6A5A1CFB685A62FB681B8DF9
:10457000013B9AB2FB681A85FB685B8D9BB2013BDD
:104580009AB2FB685A85FB685B8D9BB2002B4CD1BD
:104590007B692B4A934248D0FB68180000F036FC38
:1045A00043E03B69082213400AD07B68082213408D
:1045B00006D03A69FB681100180000F041FB35E0B5
:1045C0003B690222134031D07B68022213402DD078
:1045D000FB685B8D9BB2002B18D0FB685B6A1A7876
:1045E000FB681B689A62FB685B6A5A1CFB685A622C
:1045F000FB685B8D9BB2013B9AB2FB685A85FB68F6
:104600001B8D013B9AB2FB681A850FE07A69802303
:104610005B049A4202D07B69002B07D1FB6818002B
:1046200000F0F4FB02E0C04600E0C046FB68402218
:104630000021995400231800BD4606B080BDC04635
:104640000000FFFF90B589B002AFF860B9607A60F2
:10465000FB6840229B5C012B01D10223E7E0FB6851
:10466000402201219954BB681022134017D07B6867
:104670001022134013D0FB681B681022DA61FB681C
:104680005B6C04221A43FB685A64FB682021180003
:1046900001F076F8FB68180000F08DFFC2E0BB68FF
:1046A0008022134000D17CE07B684022134000D17F
:1046B00077E0FB681B681A68FB681B6840218A4327
:1046C0001A60FB685B8D9BB2002B55D0FB681B68A2
:1046D0005B689AB21223FB189205920D1A80FB6850
:1046E0005B8D9BB2FF2B06D9FB68FF221A858023C6
:1046F0005B047B6110E0FB685B8D9AB2FB681A85F6
:10470000FB68DB6A4C4A934203D0FB68DB6A7B613F
:1047100002E080239B047B61FB681B8DDAB27C691D
:104720001223FB181988F86800230093230000F077
:10473000EDFFFB685B8D9AB2FB681B8DD31A9AB2B2
:10474000FB685A85FB6841229B5CDBB2222B09D1B6
:10475000FB681B681A68FB681B68802109020A4312
:104760001A605FE0FB681B681A68FB681B688021A1
:10477000C9010A431A6055E0FB681B685A68802328
:104780009B041A4080239B049A4204D0FB681800C3
:1047900000F0FAFA46E0FB684021180000F0E0FD66
:1047A00040E0BB68402213402CD07B68402213407D
:1047B00028D0FB685B8D9BB2002B1DD1FB681B686A
:1047C0005A6880239B041A4080239B049A4228D075
:1047D000FB68DB6A184A934209D1FB681B685A6878
:1047E000FB681B688021C9010A435A6019E0FB6815
:1047F000180000F0C9FA14E0FB684021180000F02E
:10480000AFFD0EE0BB68202213400BD07B68202256
:10481000134007D0BA68FB681100180000F05AFB7B
:1048200000E0C046FB684022002199540023180094
:10483000BD4607B090BDC0460000FFFF90B589B0EF
:1048400002AFF860B9607A60884B7B61FB684022F8
:104850009B5C012B01D1022304E1FB684022012172
:104860009954BB681022134017D07B681022134064
:1048700013D0FB681B681022DA61FB685B6C0422B2
:104880001A43FB685A64FB682021180000F078FF87
:10489000FB68180000F08FFEDFE0BB6802221340C7
:1048A0000DD07B680222134009D0FB681B68FA68B0
:1048B000126D9A62FB68012252421A65CDE0BB6814
:1048C000802213405ED07B68402213405AD0FB68A0
:1048D0001021180000F054FFFB685B8D9BB2002B89
:1048E0004AD0FB685B8D9BB2FF2B10D9FB68FF227F
:1048F0001A85FB68DB6C99B2FB681B8DDAB28023EA
:104900005B04F8680024009400F000FF11E0FB68ED
:104910005B8D9AB2FB681A85FB68DB6C99B2FB6809
:104920001B8DDAB280239B04F8680024009400F009
:10493000EDFEFB685B8D9AB2FB681B8DD31A9AB2B1
:10494000FB685A85FB6841229B5CDBB2222B09D1B4
:10495000FB681B681A68FB681B68802109020A4310
:104960001A607AE0FB681B681A68FB681B68802184
:10497000C9010A431A6070E0FB684021180000F08A
:10498000EFFC6AE0BB684022134058D07B684022AD
:10499000134054D0FB6841229B5CDBB2222B01D137
:1049A000334B7B61FB685B8D9BB2FF2B11D9FB689E
:1049B000FF221A85FB68DB6C99B2FB681B8DDAB2AB
:1049C00080235C04F8687B690093230000F09EFE5E
:1049D00012E0FB685B8D9AB2FB681A85FB68DB6CA2
:1049E00099B2FB681B8DDAB280239C04F8687B695E
:1049F0000093230000F08AFEFB685B8D9AB2FB688F
:104A00001B8DD31A9AB2FB685A85FB6841229B5CC6
:104A1000DBB2222B09D1FB681B681A68FB681B6894
:104A2000802109020A431A6017E0FB681B681A68B4
:104A3000FB681B688021C9010A431A600DE0BB684E
:104A40002022134009D07B682022134005D0BA6889
:104A5000FB681100180000F03DFAFB6840220021BD
:104A6000995400231800BD4607B090BD0020008077
:104A70000024008080B588B000AFF860B9607A602B
:104A8000FB68DB6ABB610023FB61FB6840229B5C27
:104A9000012B01D10223CDE0FB6840220121995472
:104AA000BB682022134009D07B682022134005D028
:104AB000BA68FB681100180000F0DAFABB6810222F
:104AC000134000D1A3E07B681022134000D19EE088
:104AD0007A688023DB01134005D17A6880231B02AA
:104AE000134000D18CE0FB68DB6B002B0CD07A68A4
:104AF00080231B02134007D0FB68DB6B1B685B68DD
:104B0000002B01D10123FB61FB689B6B002B0CD0B8
:104B10007A688023DB01134007D0FB689B6B1B681E
:104B20005B68002B01D10123FB61FB69012B2DD1B7
:104B3000FB6841229B5CDBB2282B0BD1BA69802336
:104B40009B049A4206D1BA68FB681100180000F075
:104B5000AFFB54E0FB6841229B5CDBB2292B10D1F8
:104B6000BB69364A93420CD0FB681B681022DA619D
:104B7000FB68180000F01FFDFB68180000F046F904
:104B80003DE0FB681B681022DA613EE0FB681B68B1
:104B90001022DA61FB685B6C04221A43FB685A64DA
:104BA0001723FB18FA684121525C1A70BB69002B6D
:104BB00004D0BA6980235B049A4226D11722BB181D
:104BC0001B78212B03D0BB181B78292B03D1FB6842
:104BD00021221A630BE01722BB181B78222B03D06B
:104BE000BB181B782A2B02D1FB6822221A63FB68B0
:104BF0005A6CFB681100180000F0B2FB05E004E0FD
:104C0000FB681B681022DA610FE0C0460DE0BB684C
:104C10000822134009D07B680822134005D0BA68E7
:104C2000FB681100180000F00BF8FB68402200211F
:104C3000995400231800BD4608B080BD0000FFFF56
:104C4000B0B584B000AF786039607B6841229B5C6E
:104C5000DBB21A0028231340282B00D088E07B68A1
:104C60001B689B691B0CDAB20F257B1901210A40D6
:104C70001A707B681B689B691B0C9AB20C203B184E
:104C8000FE210A401A807B681B689B689AB20A243E
:104C90003B199205920D1A807B681B68DB689AB2FB
:104CA0000823FB18FE210A401A807B68DB68022B70
:104CB00048D121007B181B88DB099AB23B181B885E
:104CC00053409BB21A000623134020D13B187A1898
:104CD00012881A807B689B6C5A1C7B689A647B687C
:104CE0009B6C022B4CD17B6800229A647B681B680A
:104CF0000822DA617B684022002199543B181A8807
:104D00007B1919787B681800FFF739FA38E00C2412
:104D10003B190822BA1812881A8080231A027B686D
:104D20001100180000F0BAFD7B6840220021995460
:104D30003B191A880F23FB1819787B681800FFF7B6
:104D40001EFA1DE080231A027B681100180000F093
:104D5000A5FD7B684022002199540C23FB181A887A
:104D60000F23FB1819787B681800FFF708FA07E093
:104D70007B681B680822DA617B6840220021995415
:104D8000C046BD4604B0B0BD80B582B000AF78600B
:104D90007B684222002199547B6841229B5CDBB2F4
:104DA000212B17D17B684122202199547B68112245
:104DB0001A637B6800225A637B680121180000F0A7
:104DC0006DFD7B684022002199547B681800FFF735
:104DD000B6F916E07B684122202199547B681222A3
:104DE0001A637B6800225A637B680221180000F076
:104DF00055FD7B684022002199547B681800FFF71D
:104E0000A6F9C046BD4602B080BD000080B584B0A2
:104E100000AF78607B681B681B68FB607B68422280
:104E200000219954FA688023DB01134008D07B6885
:104E30001B681A687B681B6824490A401A600CE0EA
:104E4000FA6880231B02134007D07B681B681A682E
:104E50007B681B681E490A401A607B6841229B5C84
:104E6000DBB2292B14D17B684122282199547B681D
:104E700021221A637B680121180000F00FFD7B6876
:104E80004022002199547B681800FFF768F919E067
:104E90007B6841229B5CDBB22A2B13D17B684122C9
:104EA000282199547B6822221A637B68022118000A
:104EB00000F0F4FC7B684022002199547B681800C4
:104EC000FFF755F9C046BD4604B080BDFFBFFFFFE8
:104ED000FF7FFFFF80B586B000AF786039603B6828
:104EE0007B617B681B682022DA617B6841229B5CC6
:104EF000DBB2212B08D17B680121180000F0CEFC29
:104F00007B6811221A630DE07B6841229B5CDBB257
:104F1000222B07D17B680221180000F0BFFC7B68C0
:104F200012221A637B681B685A687B681B684E49AB
:104F30000A405A607B6800225A637B684B4ADA62F7
:104F40007B691022134009D07B681B681022DA614C
:104F50007B685B6C04221A437B685A647B6841223D
:104F60009B5CDBB2602B09D17B690422134005D026
:104F70007B681B685B6ADBB2FB60FB687B681800C0
:104F800000F019FB7B685B6C3B617B6841229B5C9A
:104F9000DBB2602B02D03B69002B07D07B685A6CD8
:104FA0007B681100180000F0DBF958E07B684122B3
:104FB0009B5CDBB2212B26D17B68412220219954B6
:104FC0007B6800221A637B6842229B5CDBB2402B29
:104FD0000CD17B684222002199547B684022002139
:104FE00099547B681800FFF7E2F838E07B684222AA
:104FF000002199547B684022002199547B68180055
:10500000FFF79DF82BE07B6841229B5CDBB2222BF3
:1050100025D17B684122202199547B6800221A63A4
:105020007B6842229B5CDBB2402B0CD17B68422226
:10503000002199547B684022002199547B68180014
:10504000FFF7BDF80BE07B684222002199547B6892
:105050004022002199547B681800FFF778F8C04679
:10506000BD4606B080BDC04600E800FE0000FFFF60
:1050700080B586B000AF786039607B681B681B68BC
:105080003B613B687B610F203B187A684121525C91
:105090001A707B681B682022DA613B181B78212B71
:1050A00003D03B181B78292B09D17B4A7B68110060
:1050B000180000F0F3FB7B6821221A6311E00F2235
:1050C000BB181B78222B03D0BB181B782A2B08D1C6
:1050D000724A7B681100180000F0E0FB7B68222216
:1050E0001A637B681B685A687B681B688021090209
:1050F0000A435A607B681B685A687B681B6868496A
:105100000A405A607B68180000F055FA3A6980231B
:10511000DB01134013D07B681B681A687B681B682F
:1051200060490A401A607B689B6B002B1FD07B682C
:105130009B6B1B685B689AB27B685A8517E03A697B
:1051400080231B02134012D07B681B681A687B689F
:105150001B6855490A401A607B68DB6B002B06D040
:105160007B68DB6B1B685B689AB27B685A857B69DE
:105170000422134020D07B69042293437B617B6827
:105180001B685A6A7B685B6AD2B21A707B685B6A7A
:105190005A1C7B685A627B681B8D002B0CD07B6885
:1051A0001B8D013B9AB27B681A857B685B8D9BB235
:1051B000013B9AB27B685A857B685B8D9BB2002B62
:1051C00005D07B685B6C04221A437B685A647B6859
:1051D0004222002199547B6800225A637B685B6CF1
:1051E000002B13D07B685A6C7B681100180000F00C
:1051F000B7F87B6841229B5CDBB2282B47D17A69E8
:105200007B681100180000F053F840E07B68DB6A0F
:10521000264A934216D07B681800FFF7F7FD7B689B
:10522000224ADA627B684122202199547B6800225D
:105230001A637B684022002199547B681800FEF7AE
:10524000AEFF24E07B6841229B5CDBB2222B0FD1B6
:105250007B684122202199547B6800221A637B6875
:105260004022002199547B681800FEF780FF0EE071
:105270007B684122202199547B6800221A637B6855
:105280004022002199547B681800FEF768FFC04651
:10529000BD4606B080BDC04601800000028000000F
:1052A00000E800FEFFBFFFFFFF7FFFFF0000FFFFE2
:1052B00080B582B000AF786039607B68264ADA62D8
:1052C0007B6800221A637B684122202199547B6805
:1052D0004222002199547B6800225A633B680422D1
:1052E000134022D07B681B685A6A7B685B6AD2B223
:1052F0001A707B685B6A5A1C7B685A627B681B8DDC
:10530000002B12D07B681B8D013B9AB27B681A85FB
:105310007B685B8D9BB2013B9AB27B685A857B6848
:105320005B6C04221A437B685A640C4A7B68110048
:10533000180000F0B3FA7B681B681022DA617B6802
:105340004022002199547B681800FEF728FFC046D0
:10535000BD4602B080BDC0460000FFFF03800000D4
:1053600080B584B000AF786039600F203B187A6850
:105370004121525C1A707B684222002199547B685B
:10538000724ADA627B6800225A857B685A6C3B68F5
:105390001A437B685A643B181B78282B07D03B18AC
:1053A0001B78292B03D03B181B782A2B0CD17B6848
:1053B0000321180000F072FA7B68412228219954D9
:1053C0007B68634A5A6332E0624A7B6811001800C6
:1053D00000F064FA7B68180000F0EDF87B68412269
:1053E0009B5CDBB2602B1FD07B684122202199544B
:1053F0007B681B689B6920221340202B14D17B689B
:105400001B689B6910221340102B09D17B681B6815
:105410001022DA617B685B6C04221A437B685A6451
:105420007B681B682022DA617B6800225A637B68F4
:105430001B6BBB607B689B6B002B3BD0BB68112B4D
:1054400002D0BB68212B35D17B681B681A6880238A
:10545000DB011A408023DB019A4207D17B681B687D
:105460001A687B681B683C490A401A607B689B6B22
:105470001800FEF772FA0300012B16D07B689B6BB5
:10548000364A5A637B684022002199547B689B6BA3
:105490001800FEF77BF9031E51D07B689B6B5A6B9B
:1054A0007B689B6B1800904749E07B68180000F010
:1054B00059F844E07B68DB6B002B3BD0BB68122BB8
:1054C00002D0BB68222B35D17B681B681A68802309
:1054D0001B021A4080231B029A4207D17B681B687B
:1054E0001A687B681B681E490A401A607B68DB6B80
:1054F0001800FEF732FA0300012B16D07B68DB6B35
:10550000164A5A637B684022002199547B68DB6B02
:105510001800FEF73BF9031E13D07B68DB6B5A6B58
:105520007B68DB6B180090470BE07B68180000F08D
:1055300019F806E07B68180000F014F802E0C04695
:1055400000E0C046C046BD4604B080BD0000FFFF7D
:105550004544000803800000FFBFFFFFCF5600084E
:10556000FF7FFFFF80B582B000AF78607B6841228B
:105570009B5CDBB2602B0FD17B68412220219954C8
:105580007B6800221A637B684022002199547B6863
:105590001800FEF724FE0AE07B6800221A637B688D
:1055A0004022002199547B681800FEF710FEC04687
:1055B000BD4602B080BD80B582B000AF78607B6828
:1055C0001B689B6902221340022B03D17B681B6876
:1055D00000229A627B681B689B6901221340012BA1
:1055E00007D07B681B689A697B681B6801210A43A6
:1055F0009A61C046BD4602B080BD000080B584B04F
:1056000000AF78607B685B6AFB60FB681B681A68A8
:10561000FB681B6820490A401A60FB685B8D9BB2DF
:10562000002B05D1FB682021180000F0A9F82EE01E
:10563000FB685B6AFA68128D9A18FB685A62FB680D
:105640005B8D9BB2FF2B03D9FB68FF221A8504E018
:10565000FB685B8D9AB2FB681A85FB68986BFB68E8
:105660005B6A1900FB681B6828331A00FB681B8DF6
:10567000FDF7EEFF031E05D0FB6810211800FFF7B1
:105680006FFE04E0FB684021180000F079F8C04686
:10569000BD4604B080BDC046FFBFFFFF80B584B0EB
:1056A00000AF78607B685B6AFB60FB681B685A68C8
:1056B000FB681B68802109020A435A60FB681021BD
:1056C0001800FFF74DFEC046BD4604B080BD80B552
:1056D00084B000AF78607B685B6AFB60FB689B6BA3
:1056E000002B03D0FB689B6B00225A63FB68DB6BCB
:1056F000002B03D0FB68DB6B00225A63FB681800A9
:10570000FFF730FFC046BD4604B080BD90B587B0FE
:1057100000AFF860080011007B600A243B19021CEE
:105720001A8009203B180A1C1A703B191B889B051C
:105730009A0D3B181B781904FF231B040B401A43D6
:105740007B681A43BB6A13435B005B087B61FB68A1
:105750001B685B68BA6A510D8022D2000A40074973
:105760000A43D2431A401100FB681B687A690A4356
:105770005A60C046BD4607B090BDC046FF63FF03F8
:1057800080B584B000AF78600A00BB1C1A8000238B
:10579000FB607B685A6B3E4B9A4235D07B685A6BF4
:1057A0003C4B9A4230D07B685A6B3B4B9A422BD091
:1057B000BB1C00229B5E002B03DAFB68B82213435C
:1057C000FB60BB1C1B880122134003D0FB68F22244
:1057D0001343FB60BB1C1B880222134003D0FB68F1
:1057E000F4221343FB60BB1C1B88102B03D1FB6806
:1057F00090221343FB60BB1C1B88202B3CD1FB6811
:1058000020221343FB6037E0BB1C00229B5E002B71
:1058100003DAFB68B8221343FB60BB1C1B88012220
:10582000134003D0FB68F2221343FB60BB1C1B88B0
:105830000222134003D0FB68F4221343FB60BB1C1D
:105840001B88102B03D1FB6890221343FB60BB1C09
:105850001B88202B03D1FB6860221343FB607B680D
:105860005A6B0D4B9A4207D0BB1C1B88402B03D1AF
:10587000FB6840221343FB607B681B6819687B68E8
:105880001B68FA680A431A60C046BD4604B080BD72
:1058900045460008754A00083D48000880B584B0B8
:1058A00000AF78600A00BB1C1A800023FB60BB1CA1
:1058B0001B880122134010D0FB6842221343FB6077
:1058C0007B6841229B5CDBB21A0028231340282B03
:1058D00003D0FB68B0221343FB60BB1C1B88022271
:1058E000134010D0FB6844221343FB607B684122C5
:1058F0009B5CDBB21A0028231340282B03D0FB68E3
:10590000B0221343FB60BB1C00229B5E002B03DA1A
:10591000FB68B8221343FB60BB1C1B88102B03D110
:10592000FB6890221343FB60BB1C1B88202B03D118
:10593000FB6820221343FB60BB1C1B88402B03D158
:10594000FB6840221343FB607B681B681A68FB6896
:10595000D9437B681B680A401A60C046BD4604B044
:1059600080BD000080B582B000AF786039607B6890
:1059700041229B5CDBB2202B38D17B6840229B5CB0
:10598000012B01D1022332E07B684022012199548E
:105990007B684122242199547B681B681A687B68C4
:1059A0001B6801218A431A607B681B681A687B6840
:1059B0001B6811490A401A607B681B6819687B687C
:1059C0001B683A680A431A607B681B681A687B6820
:1059D0001B6801210A431A607B68412220219954E7
:1059E0007B68402200219954002300E00223180024
:1059F000BD4602B080BDC046FFEFFFFF80B584B05A
:105A000000AF786039607B6841229B5CDBB2202B61
:105A100039D17B6840229B5C012B01D1022333E00A
:105A20007B684022012199547B68412224219954AA
:105A30007B681B681A687B681B6801218A431A60AF
:105A40007B681B681B68FB60FB68114A1340FB60A6
:105A50003B681B02FA681343FB607B681B68FA68AB
:105A60001A607B681B681A687B681B6801210A43FF
:105A70001A607B684122202199547B6840220021D2
:105A80009954002300E002231800BD4604B080BDF5
:105A9000FFF0FFFF80B588B000AF78607B68002B17
:105AA00001D1012301E37B681B680122134000D16F
:105AB0008DE0C34B5B680C221340042B0ED0C04B0F
:105AC0005B680C221340082B16D1BD4B5A6880230B
:105AD0005B021A4080235B029A420DD1B84B1A68D0
