:020000040800F2
:1000000000200020553E0008E93A0008EF3A0008B9
:1000100000000000000000000000000000000000E0
:10002000000000000000000000000000F53A000899
:100030000000000000000000FF3A0008093B000833
:10004000A53E000800000000A53E0008A53E0008EF
:10005000A53E0008A53E0008A53E0008A53E0008F4
:1000600000000000A53E0008193B00083D3B0008C9
:10007000A53E0008A53E0008A53E000800000000BF
:10008000A53E0008A53E000800000000A53E0008AF
:10009000A53E0008A53E0008A53E0008613B0008FB
:1000A000A53E0008A53E0008A53E0008A53E0008A4
:1000B000913B00080000000000000000000000006C
:1000C00010B5064C2378002B07D1054B002B02D02E
:1000D000044800E000BF0123237010BD7000002021
:1000E0000000000008940008044B10B5002B03D05A
:1000F0000349044800E000BF10BDC04600000000F6
:1001000074000020089400080023C25C0133002A18
:10011000FBD1581E7047000003B4714649084000E7
:100120004900095E49008E4403BC70470022430821
:100130008B4274D303098B425FD3030A8B4244D3AF
:10014000030B8B4228D3030C8B420DD3FF220902F1
:1001500012BA030C8B4202D31212090265D0030BB0
:100160008B4219D300E0090AC30B8B4201D3CB03A6
:10017000C01A5241830B8B4201D38B03C01A5241E8
:10018000430B8B4201D34B03C01A5241030B8B42EA
:1001900001D30B03C01A5241C30A8B4201D3CB02D5
:1001A000C01A5241830A8B4201D38B02C01A5241BA
:1001B000430A8B4201D34B02C01A5241030A8B42BD
:1001C00001D30B02C01A5241CDD2C3098B4201D3D5
:1001D000CB01C01A524183098B4201D38B01C01A53
:1001E000524143098B4201D34B01C01A52410309CA
:1001F0008B4201D30B01C01A5241C3088B4201D379
:10020000CB00C01A524183088B4201D38B00C01A25
:10021000524143088B4201D34B00C01A5241411A4C
:1002200000D20146524110467047FFE701B5002059
:1002300000F006F802BDC0460029F7D076E7704707
:100240007047C04680B584B000AFF860B96019004F
:10025000FB1D1A70BB1D0A1C1A70FB6800221A7164
:10026000FB6800225A71FB68083318000023002243
:10027000002103F0F7FCFB68BA681A60FB68FA1DFE
:1002800012781A71FB6800225A71FB680833180053
:10029000BB1D1B780022190003F044FDFB680833E6
:1002A000180003F08BFDFB681800BD4604B080BD4C
:1002B00080B582B000AF78607B685B791800BD467E
:1002C00002B080BD80B582B000AF78600A00FB1C30
:1002D0001A707B68FA1C12785A71C046BD4602B08B
:1002E00080BD80B582B000AF78607B681B681B69F9
:1002F0007A681279110001228A4013405A1E9341F4
:10030000DBB2002B1AD07B680833180003F07CFDA9
:10031000031E05D07B680833180003F033FD0DE0A1
:100320007B680833180003F05BFD031E06D07B6872
:100330000833180003F042FD012300E000231800F9
:10034000BD4602B080BD80B582B000AF78607B68EA
:100350001B681B697A681279110001228A401340D8
:100360005A425341DBB2002B1AD07B680833180085
:1003700003F04AFD031E05D07B680833180003F024
:1003800001FD0DE07B680833180003F029FD031E12
:1003900006D07B680833180003F010FD012300E04D
:1003A00000231800BD4602B080BD80B582B000AF0A
:1003B000786039603B681800BD4602B080BD80B5EA
:1003C00082B000AF78607B68180000F07FFC7B682B
:1003D0001800BD4602B080BD80B582B000AF786025
:1003E0007B681800FFF7EBFF7B681800BD4602B082
:1003F00080BD80B584B000AFF860B9607A601A0043
:10040000FB1C1A70FB68C9225A73FB6800229A739E
:10041000FB680022DA73FB6840221A74FB6814221E
:100420005A74FB6854229A74FB6814331800FFF75F
:10043000D3FFFB68202200219954FB682122002170
:100440009954FB68BA681A60FB687A685A60FB685E
:10045000FA1C12781A72FB681800BD4604B080BD01
:1004600080B582B000AF78607B689A7B7B68DB7B6D
:100470009A4219D17B6820229B5C012B14D97B689E
:10048000987B7B6859689A6801F04EFD7B681A7CFE
:100490007B689A737B6821229B5C5AB27B6801213E
:1004A000180000F055F96EE07B689A7B7B681B7C36
:1004B0009A4219D17B6820229B5C022B14D97B685D
:1004C000987B7B6859689A6801F02EFD7B685A7C9E
:1004D0007B689A737B6821229B5C5AB27B680121FE
:1004E000180000F035F94EE07B689A7B7B685B7CF6
:1004F0009A4219D17B6820229B5C032B14D97B681C
:10050000987B7B6859689A6801F00EFD7B689A7C3D
:100510007B689A737B6821229B5C5AB27B680121BD
:10052000180000F015F92EE07B689A7B7B689B7CB5
:100530009A4228D17B6820229B5C042B23D97B68BC
:1005400021229B5C19007B6820229B5C043B994222
:1005500007DA7B6821229B5C0133D9B27B682122B8
:1005600099547B685868996801F0BAFC032003F03D
:10057000EDFC7B6821229B5C5AB27B68012118004C
:1005800000F0E6F8FFE7C046BD4602B080BD80B58A
:1005900082B000AF78607B689A7B7B689B7C9A42D4
:1005A00014D17B68987B7B6859689A6801F0BCFC21
:1005B0007B685A7C7B689A737B6821229B5C5AB269
:1005C0007B680121180000F0C3F859E07B689A7B32
:1005D0007B685B7C9A4214D17B68987B7B68596806
:1005E0009A6801F0A1FC7B681A7C7B689A737B682F
:1005F00021229B5C5AB27B680121180000F0A8F808
:100600003EE07B689A7B7B681B7C9A4214D17B68B6
:10061000987B7B6859689A6801F086FC7B68DA7B76
:100620007B689A737B6821229B5C5AB27B680121AC
:10063000180000F08DF823E07B689A7B7B68DB7BF9
:100640009A421DD17B6821229B5C002B07D07B68DE
:1006500021229B5C013BD9B27B68212299547B68A3
:100660005868996801F03CFC032003F06FFC7B683C
:1006700021229B5C5AB27B680121180000F068F8C7
:10068000C046BD4602B080BD80B582B000AF786084
:100690007B689A7B7B68DB7B9A420FD17B68143343
:1006A0001A007B6821215B5C1900100000F02CFB14
:1006B0000300180000F0F1FA030045E07B689A7B24
:1006C0007B681B7C9A4210D17B6814331A007B68CC
:1006D00021215B5C01331900100000F015FB0300C1
:1006E000180000F0DAFA03002EE07B689A7B7B6842
:1006F0005B7C9A4210D17B6814331A007B682121FD
:100700005B5C02331900100000F0FEFA03001800D1
:1007100000F0C3FA030017E07B689A7B7B689B7C40
:100720009A4210D17B6814331A007B6821215B5CEC
:1007300003331900100000F0E7FA0300180000F07E
:10074000ACFA030000E000231800BD4602B080BDF3
:1007500090B5BFB000AF786008001100FB1C021C10
:100760001A70BB1C0A1C1A707B68587B7B68997BCB
:100770007B685A689B6801F0E3FA7B6820229B5CE7
:10078000032B00D897E07B6814331A00BB1C1B783E
:100790005BB21900100000F0B7FA020008243B1900
:1007A0001100180000F083FA3B190021180008F02E
:1007B00019F87B68DA7BFB1C1B78D318D9B27B68ED
:1007C0005A689B6801F058FB3B19180007F0FEFFC0
:1007D0007B6814331A00BB1C1B785BB20133190011
:1007E000100000F091FA020020243B1911001800BB
:1007F00000F05DFA3B190021180007F0F3FF7B6859
:100800001A7CFB1C1B78D318D9B27B685A689B688A
:1008100001F032FB3B19180007F0D8FF7B68143356
:100820001A00BB1C1B785BB202331900100000F0E9
:100830006BFA020038243B191100180000F037FA57
:100840003B190021180007F0CDFF7B685A7CFB1C88
:100850001B78D318D9B27B685A689B6801F00CFBEF
:100860003B19180007F0B2FF7B6814331A00BB1C59
:100870001B785BB203331900100000F045FA020048
:1008800050243B191100180000F011FA3B19002107
:10089000180007F0A7FF7B689A7CFB1C1B78D31815
:1008A000D9B27B685A689B6801F0E6FA3B191800D8
:1008B00007F08CFFF1E07B6820229B5C022B71D952
:1008C0007B6814331A00BB1C1B785BB21900100044
:1008D00000F01AFA020068243B191100180000F019
:1008E000E6F93B190021180007F07CFF7B68DA7BF2
:1008F000FB1C1B78D318D9B27B685A689B6801F03F
:10090000BBFA3B19180007F061FF7B6814331A002B
:10091000BB1C1B785BB201331900100000F0F4F926
:10092000020080243B191100180000F0C0F93B19A7
:100930000021180007F056FF7B681A7CFB1C1B780F
:10094000D318D9B27B685A689B6801F095FA3B19B5
:10095000180007F03BFF7B6814331A00BB1C1B78A0
:100960005BB202331900100000F0CEF902009824A7
:100970003B191100180000F09AF93B1900211800EA
:1009800007F030FF7B685A7CFB1C1B78D318D9B268
:100990007B685A689B6801F06FFA3B19180007F0F2
:1009A00015FF7AE07B6820229B5C012B4BD97B688A
:1009B00014331A00BB1C1B785BB21900100000F046
:1009C000A3F90200B0243B191100180000F06FF9E0
:1009D0003B190021180007F005FF7B68DA7BFB1C40
:1009E0001B78D318D9B27B685A689B6801F044FA27
:1009F0003B19180007F0EAFE7B6814331A00BB1C91
:100A00001B785BB201331900100000F07DF9020081
:100A1000C8243B191100180000F049F93B190021C6
:100A2000180007F0DFFE7B681A7CFB1C1B78D318CC
:100A3000D9B27B685A689B6801F01EFA3B1918000E
:100A400007F0C4FE29E07B6820229B5C002B24D0A9
:100A50007B6814331A00BB1C1B785BB219001000B2
:100A600000F052F90200E0243B191100180000F0D8
:100A70001EF93B190021180007F0B4FE7B68DA7BF1
:100A8000FB1C1B78D318D9B27B685A689B6801F0AD
:100A9000F3F93B19180007F099FEC046BD463FB078
:100AA00090BD90B58FB000AF78607B6814330021A3
:100AB000180000F029F9020008243B191100180061
:100AC00000F0F5F83B190021180007F08BFE7B6859
:100AD0001B7C0533D9B27B685A689B6801F0CCF95E
:100AE0003B19180007F072FE7B68143301211800CF
:100AF00000F00AF9020020243B191100180000F050
:100B0000D6F83B190021180007F06CFE7B685B7C6F
:100B10000533D9B27B685A689B6801F0ADF93B197F
:100B2000180007F053FEC046BD460FB090BDB0B5EB
:100B30008AB000AFF860B9607A60FB6814331C00BB
:100B4000FB681433180000F0F0F8030001331900BB
:100B5000200000F004F9FB6814331C00FB68143318
:100B6000180000F0E2F80300013B1900200000F03B
:100B7000CBF80400BA6810257B191100180007F0A3
:100B8000F1FE7B191900200000F06CF87B191800A9
:100B900007F01CFEFB6814331C00FB6814331800BC
:100BA00000F0C3F80300013B1900200000F0ACF88E
:100BB00002007B681900100000F063F8FB68143332
:100BC000180000F0B2F80300D9B2FB682022995453
:100BD000C046BD460AB0B0BDB0B58AB000AFF8603F
:100BE000B960FB1D1A70FB6814331A00FB1D1B78DB
:100BF0001900100000F088F80400BA6810257B196D
:100C00001100180007F0AEFE7B191900200000F05B
:100C100029F87B19180007F0D9FDC046BD460AB077
:100C2000B0BD80B582B000AF78607B681B681800EB
:100C3000BD4602B080BD000080B582B000AF7860D4
:100C40007B68180007F0A1FD7B68054A11001800B9
:100C500007F060FE7B681800BD4602B080BDC0464C
:100C60002094000880B582B000AF786039607B685E
:100C70003A681100180007F0AFFDC046BD4602B04B
:100C800080BD80B582B000AF786039607B683A681B
:100C90009A61C046BD4602B080BD80B582B000AF4B
:100CA00078607B689B691800BD4602B080BD80B546
:100CB00082B000AF786039603A687B681100180034
:100CC00007F050FE7868BD4602B080BD80B582B0A6
:100CD00000AF78607B68180000F07CF87B68180033
:100CE00000F085F87B681800BD4602B080BD80B575
:100CF00082B000AF78607B68180000F08AF87B68EB
:100D00001800BD4602B080BD80B582B000AF7860EB
:100D100039607B6819683A681300DB009B1A9B00F6
:100D2000CB181800BD4602B080BD80B582B000AFC0
:100D300078607B685A687B681B68D31A9A10130026
:100D4000DB009B1899015B18DB009B18D9035B182B
:100D5000DB009B185B421800BD4602B080BD80B529
:100D600082B000AF786039607B681800FFF7DDFF64
:100D700002003B689A429B415B42DBB2002B0CD0E5
:100D80007B681800FFF7D1FF02003B689A1A7B6866
:100D90001100180000F090F818E07B681800FFF7C9
:100DA000C4FF02003B6893429B415B42DBB2002BD5
:100DB0000CD07B6819683A681300DB009B1A9B0013
:100DC000CA187B681100180000F05EF9C046BD46E5
:100DD00002B080BD80B582B000AF78607B6818003B
:100DE00000F07FF97B681800BD4602B080BD80B579
:100DF00082B000AF78607B6800221A607B680022B6
:100E00005A607B6800229A607B681800BD4602B079
:100E100080BD80B582B000AF78607B681800BD46A9
:100E200002B080BD80B584B000AFF860B9607A6070
:100E3000BB68002B05D0FB687A68B968180000F021
:100E400059F9C046BD4604B080BD80B582B000AF40
:100E500078607B681800BD4602B080BD80B584B064
:100E600000AFF860B9607A60BA68FB6811001800DA
:100E700000F050F9C046BD4604B080BD80B582B0D8
:100E800000AF78607B681800BD4602B080BD80B5B9
:100E900082B000AF181C00F005F803001800BD4632
:100EA00002B080BD80B582B000AF3B1D1870012339
:100EB0001800BD4602B080BDB0B588B000AF786004
:100EC00039603B68002B00D1D8E07B681800FFF741
:100ED0002CFF0300FB617B689A687B685B68D31A10
:100EE0009A101300DB009B1899015B18DB009B181C
:100EF000D9035B18DB009B185B42BB617B68180061
:100F000000F02CF90200FB69934203D87B681800BB
:100F100000F024F9BA693B689A420FD37B685C6899
:100F20007B681800FFF791FF02003B681900200062
:100F300000F025F902007B685A609FE0514A396849
:100F40007B68180000F02CF903007B617B687A69EC
:100F50001100180000F0EDF803003B61FFF797FF68
:100F6000031E20D0FA691300DB009B1A9B001A00B5
:100F70003B699C187B681800FFF767FF02003B681D
:100F80001900200000F0FBF87B681C687B685D6836
:100F90007B681800FFF759FF03003A692900200019
:100FA00000F04CF938E00023FB60FA691300DB0025
:100FB0009B1A9B001A003B699C187B681800FFF77E
:100FC00044FF02003B681900200000F0D8F8FA69DD
:100FD0001300DB009B1A9B001A003B699B18FB6007
:100FE0007B681C687B685D687B681800FFF72DFFD5
:100FF00003003A692900200000F035F97B681C687D
:101000007B685D687B681800FFF71FFF03001A000C
:1010100029002000FFF722FF78687B681C687B6846
:101020009A687B681B68D31A9A101300DB009B1820
:1010300099015B18DB009B18D9035B18DB009B1838
:101040005B421A002100FFF7EDFE7B683A691A60E7
:10105000FA693B68D2181300DB009B1A9B001A0048
:101060003B699A187B685A607A691300DB009B1A07
:101070009B001A003B699A187B689A60C046BD467F
:1010800008B0B0BD2494000890B585B000AF78607A
:1010900039607B685A683B68D31A9A101300DB00EA
:1010A0009B1899015B18DB009B18D9035B18DB00C8
:1010B0009B185B42FB60FB68002B0ED07B685C6872
:1010C0007B681800FFF7C1FE02003B682100180092
:1010D000FFF7C4FE7B683A685A60C046BD4605B05B
:1010E00090BD80B582B000AF78607B681800BD46C7
:1010F00002B080BD80B584B000AFF860B9607A609E
:101100007A68B968FB68180000F0C8F8C046BD46A8
:1011100004B080BD80B582B000AF786039603A68B5
:101120007B681100180000F0CEF8C046BD4602B042
:1011300080BD80B582B000AF786039603B68002B1D
:1011400007D07B683A681100180000F0D5F803005A
:1011500000E000231800BD4602B080BD80B582B01B
:1011600000AF78607B681800FFF788FE0300180066
:1011700000F0DCF803001800BD4602B080BD80B569
:1011800084B000AFF860B9607A60BA68FB6811009B
:10119000180000F0E7F803001800BD4604B080BD59
:1011A00090B587B000AFF860B9607A60FB6818004E
:1011B000FFF7D4FF0400FB681800FFF7B6FD03003B
:1011C000E21ABB689A429B415B42DBB2002B03D020
:1011D0007B68180007F008FAFB681800FFF7A5FD08
:1011E0000400FB681800FFF7A0FD03003B61082323
:1011F000FA181023FB181100180000F0C7F80300BC
:101200001B68E3187B61FB681800FFF78EFD020086
:101210007B69934207D3FB681800FFF79FFF02002A
:101220007B69934205D9FB681800FFF797FF03001D
:1012300000E07B691800BD4607B090BDB0B586B030
:1012400002AFF860B9607A603B603C687A68B96860
:10125000F8686B461D70230000F0AAF80300180020
:10126000BD4604B0B0BD90B585B000AFF860B960C0
:101270007A603B60FB68180000F0ACF80400BB68C3
:10128000180000F0A7F801003B687A68200000F021
:10129000B1F803001800BD4605B090BD80B584B01C
:1012A00000AFF860B9607A607A681300DB009B1ABF
:1012B0009B001A00BB681100180007F077F9C046C0
:1012C000BD4604B080BD80B582B000AF78603960A3
:1012D0007A683B689A420BD07B68180000F09CF853
:1012E0000300180000F0AEF87B681C337B60EFE76A
:1012F000C046BD4602B080BD80B582B000AF786008
:10130000396039687B680022180000F0A7F80300F4
:101310001800BD4602B080BD80B582B000AF7860D5
:101320007B681800BD4602B080BD000080B584B067
:1013300000AF78600A4BFB607B68180000F0AFF8E4
:101340000300BB600823FA180C23FB1811001800D7
:1013500000F0B2F803001B681800BD4604B080BD61
:101360002449920480B584B000AF786039600F23BF
:10137000FB1801221A703A687B681100180000F00F
:10138000ADF803001800BD4604B080BD80B582B042
:1013900000AF786039607B681A683B681B689A42C6
:1013A00001D23B6800E07B681800BD4602B080BDFA
:1013B00080B584B000AFF860B9607A603B603B688C
:1013C0007A68B968F86800F0A7F803001800BD460D
:1013D00004B080BD80B584B000AF78607A680C231B
:1013E000FB181100180000F0B7F8FB681800BD46A4
:1013F00004B080BD80B584B000AFF860B9607A6099
:101400003B607A68B968FB68180000F0B7F8030021
:101410001800BD4604B080BD80B582B000AF7860D2
:101420007B681800BD4602B080BD80B582B000AFB9
:1014300078607B68180007F0C9F97B681800BD4622
:1014400002B080BD80B582B000AF78607B681800C4
:10145000FFF7EBFFC046BD4602B080BD80B584B04B
:1014600000AFF860B9607A60FB68180000F09CF883
:101470000200BB689A429B415B42DBB2002B01D069
:1014800007F0ACF8BA681300DB009B1A9B00180049
:1014900007F090F803001800BD4604B080BD80B589
:1014A00082B000AF78607B68180000F089F8030014
:1014B0001800BD4602B080BD80B582B000AF786034
:1014C00039603B681A687B681B689A4201D23B68A6
:1014D00000E07B681800BD4602B080BD80B584B0D6
:1014E00000AF786039607B68FB603B68002B0ED0F2
:1014F000FB681800FFF790FF0300180000F06DF87C
:101500003B68013B3B60FB681C33FB60EDE7FB681D
:101510001800BD4604B080BDB0B584B000AFF8601F
:10152000B9607A603B60FB681800FFF7F5FE0400C5
:10153000BB681800FFF7F0FE05007B681800FFF796
:10154000EBFE02003B682900200000F057F8030082
:101550001800BD4604B0B0BD80B582B000AF786061
:1015600039603B00180000F071F803001A687B68CE
:101570001A607B681800BD4602B080BD80B586B099
:1015800000AFF860B9607A601723FB1801221A7067
:101590007A68B968FB68180000F061F80300180069
:1015A000BD4606B080BD000080B582B000AF786057
:1015B000024B1800BD4602B080BDC04624499204CB
:1015C00080B582B000AF78607B681800FFF7ECFF51
:1015D00003001800BD4602B080BD80B582B000AFE8
:1015E00078607B6819001C20FEF7DFFE03001800FE
:1015F000FFF722FBC046BD4602B080BD90B587B064
:1016000000AFF860B9607A603B607B687B61FA6824
:10161000BB689A4215D07B691800FFF7FDFE0400F5
:10162000FB681800FFF7F8FE01003B681A00200075
:1016300000F042F8FB681C33FB607B691C337B6164
:10164000E5E77B691800BD4607B090BD80B582B064
:1016500000AF78607B681800BD4602B080BDB0B5B1
:1016600086B000AFF860B9607A607B687B61082360
:10167000FA180C257B191100180000F03BF8031E26
:1016800015D07B691800FFF7C7FE04007B1918000E
:1016900000F053F803001900200000F06CF87B19EB
:1016A000180000F03BF87B691C337B61DFE77B6946
:1016B0001800BD4606B0B0BD80B584B000AFF8607C
:1016C000B9607A60BB68180000F06DF80200F96834
:1016D0007B68180000F070F8BB681800FFF79CFEEC
:1016E00002007B681100180000F07AF8C046BD4681
:1016F00004B080BD80B582B000AF786039603A68D0
:101700007B681100180000F07AF803001A0001232A
:101710005340DBB21800BD4602B080BD80B582B038
:1017200000AF78607B681B681C331A007B681A6006
:101730007B681800BD4602B080BD80B582B000AFA6
:1017400078607B681B681800BD4602B080BD80B51C
:1017500082B000AF786039607B683A681100180089
:1017600007F01AF83B689A697B689A617B681800F1
:10177000BD4602B080BD90B583B000AF78603960DF
:101780003B68180000F052F804007B6819001C2028
:10179000FEF70BFE030021001800FFF7D8FFC0463C
:1017A000BD4603B090BD80B582B000AF78607B6865
:1017B0001800BD4602B080BD80B584B000AFF860AF
:1017C000B9607A607B68180000F030F80200B968F0
:1017D000FB68180000F033F8C046BD4604B080BD79
:1017E00080B582B000AF786039603A687B681100DC
:1017F000180000F03DF8C046BD4602B080BD90B56F
:1018000083B000AF786039607B68180000F03DF865
:1018100004003B68180000F038F80300E31A5A424D
:101820005341DBB21800BD4603B090BD80B582B015
:1018300000AF78607B681800BD4602B080BD90B5EF
:1018400085B000AFF860B9607A607B681800FFF778
:10185000EDFF0400BB6819001C20FEF7A6FD030085
:1018600021001800FFF773FFC046BD4605B090BDCC
:1018700080B582B000AF786039603B681800FFF730
:10188000D4FDC046BD4602B080BD80B582B000AF79
:1018900078607B681B681800BD4602B080BD80B5CB
:1018A00082B000AF78607B681B78C02B03D17B6867
:1018B00041221A70F6E17B681B78E02B03D17B682C
:1018C00061221A70EEE17B681B78C12B03D17B6823
:1018D000A0221A70E6E17B681B78E12B03D17B68BC
:1018E000B2221A70DEE17B681B78C22B03D17B68C1
:1018F00042221A70D6E17B681B78E22B03D17B6809
:10190000B3221A70CEE17B681B78C32B03D17B68AE
:10191000A1221A70C6E17B681B78E32B03D17B6898
:10192000B4221A70BEE17B681B78C42B03D17B689C
:10193000E0221A70B6E17B681B78E42B03D17B6848
:10194000E3221A70AEE17B681B78C52B03D17B685C
:1019500045221A70A6E17B681B78E52B03D17B68D2
:1019600065221A709EE17B681B78A82B03D17B68E7
:10197000A2221A7096E17B681B78B82B03D17B6892
:10198000B5221A708EE17B681B78C62B03D17B6869
:10199000A3221A7086E17B681B78E62B03D17B6853
:1019A000B6221A707EE17B681B78C72B03D17B6857
:1019B000A4221A7076E17B681B78E72B03D17B6841
:1019C000B7221A706EE17B681B78C82B03D17B6845
:1019D000A5221A7066E17B681B78E82B03D17B682F
:1019E000B8221A705EE17B681B78C92B03D17B6833
:1019F000A6221A7056E17B681B78E92B03D17B681D
:101A0000B9221A704EE17B681B78CA2B03D17B6820
:101A10004B221A7046E17B681B78EA2B03D17B6866
:101A2000BA221A703EE17B681B78CB2B03D17B680E
:101A3000A7221A7036E17B681B78EB2B03D17B68F9
:101A4000BB221A702EE17B681B78CC2B03D17B68FC
:101A50004D221A7026E17B681B78EC2B03D17B6842
:101A6000BC221A701EE17B681B78CD2B03D17B68EA
:101A700048221A7016E17B681B78ED2B03D17B6836
:101A8000BD221A700EE17B681B78CE2B03D17B68D8
:101A90004F221A7006E17B681B78EE2B03D17B681E
:101AA0006F221A70FEE07B681B78CF2B03D17B6816
:101AB000A8221A70F6E07B681B78EF2B03D17B68B5
:101AC000BE221A70EEE07B681B78D02B03D17B68B6
:101AD00050221A70E6E07B681B78F02B03D17B68FC
:101AE00070221A70DEE07B681B78D12B03D17B68F3
:101AF00043221A70D6E07B681B78F12B03D17B68F8
:101B000063221A70CEE07B681B78D22B03D17B68EE
:101B100054221A70C6E07B681B78F22B03D17B68D5
:101B2000BF221A70BEE07B681B78D32B03D17B6881
:101B3000A9221A70B6E07B681B78F32B03D17B686F
:101B400079221A70AEE07B681B78D42B03D17B68B6
:101B5000AA221A70A6E07B681B78F42B03D17B685D
:101B6000E4221A709EE07B681B78D52B03D17B683A
:101B700058221A7096E07B681B78F52B03D17B689E
:101B800078221A708EE07B681B78D62B03D17B6895
:101B9000E1221A7086E07B681B78F62B03D17B6804
:101BA000E5221A707EE07B681B78D72B03D17B6817
:101BB000AB221A7076E07B681B78F72B03D17B6829
:101BC000C0221A706EE07B681B78D82B03D17B682B
:101BD000AC221A7066E07B681B78F82B03D17B6817
:101BE000C1221A705EE07B681B78D92B03D17B6819
:101BF000E2221A7056E07B681B78F92B03D17B68D0
:101C0000E6221A704EE07B681B78FA2B03D17B68C2
:101C1000C2221A7046E07B681B78DB2B03D17B68FD
:101C2000AE221A703EE07B681B78FB2B03D17B68E9
:101C3000C3221A7036E07B681B78FC2B03D17B68CB
:101C4000C4221A702EE07B681B78DD2B03D17B68E1
:101C5000AF221A7026E07B681B78FD2B03D17B68CE
:101C6000C5221A701EE07B681B78DE2B03D17B68CF
:101C7000B0221A7016E07B681B78FE2B03D17B68BC
:101C8000C6221A700EE07B681B78DF2B03D17B68BD
:101C9000B1221A7006E07B681B78FF2B02D17B68AB
:101CA000C7221A707B681800BD4602B080BD0000D4
:101CB000B0B586B000AF3B1D19605A600F217B188C
:101CC000021C1A7017257B1908007A1812780F2148
:101CD0008A431A703B181B781A0116217B181A7058
:101CE00010243B1900221A607B191B780C22134325
:101CF000DAB23B191A703B1900225A707B181B7814
:101D00000C221343DAB23B199A703B190022DA70A5
:101D10000A4B01221A703B1D18683B1D1B7999B2B2
:101D20003A19042302F05AFE044B1B78012B00D110
:101D3000FAE7C046BD4606B0B0BDC0468C000020E4
:101D4000B0B586B000AF04000800391D0A604B60D2
:101D50000F257B19221C1A700E217B18021C1A7089
:101D60003B1D7A18107819685A6800F0F3F81720AC
:101D70003B187A1912780F218A431A707B191B7845
:101D80001A0116217B181A7010243B1900221A60C0
:101D90003B181B780D221343DAB23B191A703B191A
:101DA00000225A707B181B780D221343DAB23B19BC
:101DB0009A703B190022DA700A4B01221A703B1DFF
:101DC00018683B1D1B7999B23A19042302F006FEEC
:101DD000044B1B78012B00D1FAE7C046BD4606B084
:101DE000B0BDC0468C000020B0B586B000AF3B1D32
:101DF00019605A600F217B18021C1A7017257B1975
:101E000008007A1812780F218A431A703B181B7841
:101E10001A0116217B181A7010243B1900221A602F
:101E20007B191B780D221343DAB23B191A703B1948
:101E300000225A707B181B780D221343DAB23B192B
:101E40009A703B190022DA700A4B01221A703B1D6E
:101E500018683B1D1B7999B23A19042302F0BEFDA4
:101E6000044B1B78012B00D1FAE7C046BD4606B0F3
:101E7000B0BDC0468C00002090B587B000AFF860C0
:101E8000080039000A604B600B217B18021C1A7095
:101E90003B007A18107819685A6800F05BF8FB6804
:101EA0001B78002B17D0FB681A7817243B191A707F
:101EB0003B191800FFF7F3FC03001A783B191A705E
:101EC0003B1918783B0019685A68FFF78DFFFB68CB
:101ED0000133FB60E3E7C046BD4607B090BD00009C
:101EE00090B585B000AF3B00186059600C243B19D9
:101EF0000B4A1A600B4B01221A703B0018683B001A
:101F00001B7999B23A19042302F068FD054B1B783E
:101F1000012B00D1FAE7C046BD4605B090BDC046D2
:101F2000040014008C00002080B584B000AF3B1D7D
:101F300019605A600F217B18021C1A703B1D7A1819
:101F400011781A685B688020FFF7FAFEC046BD462C
:101F500004B080BDB0B586B000AF3B1D19605A60BB
:101F60000F217B18021C1A7008007B181B78702246
:101F70001340DAB217257B19802149420A431A70AF
:101F80003B181B781A0116217B181A7010243B1974
:101F900000221A607B191B7804221343DAB23B1922
:101FA0001A703B1900225A707B181B7804221343C5
:101FB000DAB23B199A703B190022DA700A4B0122FF
:101FC0001A703B1D18683B1D1B7999B23A190423FE
:101FD00002F004FD044B1B78012B00D1FAE7C04648
:101FE000BD4606B0B0BDC0468C00002080B582B0B2
:101FF00000AF3B0018605960322001F0A7FF3B00A2
:1020000019685A683020FFF753FE282001F09EFF20
:102010003B0019685A680220FFF74AFE282001F0A9
:1020200095FF3B0019685A680C20FFF741FE2820F5
:1020300001F08CFF3B0019685A680420FFF738FE56
:10204000282001F083FF3B0019685A680120FFF740
:102050002FFE022001F07AFFC046BD4602B080BDCF
:10206000B0B5FE4CA54400AF1C243B19180006F087
:10207000B3FA3A19FA493B1D180006F0A5FCF94AD3
:10208000391DF94B1800FEF752FD3B1D180006F0F4
:102090009DFB3B19180006F0A0FA38243B191800E4
:1020A00006F09AFA3A19F14920257B19180006F032
:1020B0008BFCEC4A7919EC4B1800FEF738FD7B19C4
:1020C000180006F083FB3B19180006F086FA54242A
:1020D0003B19180006F080FA3A19E5493C257B19AE
:1020E000180006F071FCE34A7919DE4B1800FEF780
:1020F0001EFD7B19180006F069FB3B19180006F05D
:102100006CFA70243B19180006F066FA3A19DA499D
:1021100058257B19180006F057FCD84A7919D14B7D
:102120001800FEF704FD7B19180006F04FFB3B1961
:10213000180006F052FA8C243B19180006F04CFAED
:102140003A19CF4974257B19180006F03DFCCD4A99
:102150007919C44B1800FEF7EAFC7B19180006F049
:1021600035FB3B19180006F038FAA8243B19180073
:1021700006F032FA3A19C44990257B19180006F086
:1021800023FCC24A7919B74B1800FEF7D0FC7B1923
:10219000180006F01BFB3B19180006F01EFAC424B9
:1021A0003B19180006F018FA3A19B949AC257B1901
:1021B000180006F009FCB74A7919AA4B1800FEF777
:1021C000B6FC7B19180006F001FB3B19180006F05D
:1021D00004FAE0243B19180006F0FEF93A19AE495A
:1021E000C8257B19180006F0EFFBA24A7919A14B0C
:1021F0001800FEF79CFC7B19180006F0E7FA3B1963
:10220000180006F0EAF9FC243B19180006F0E4F97E
:102210003A19A249E4257B19180006F0D5FB954A26
:102220007919944B1800FEF782FC7B19180006F010
:10223000CDFA3B19180006F0D0F98C2464003B1944
:10224000180006F0C9F93A1995497B1CFF331800AC
:1022500006F0BAFB874A791CFF31864B1800FEF75F
:1022600066FC7B1CFF33180006F0B0FA3B1918001F
:1022700006F0B3F99A2464003B19180006F0ACF993
:102280003A1988498E256D007B19180006F09CFBD1
:10229000784A7919774B1800FEF749FC7B1918002A
:1022A00006F094FA3B19180006F097F9A824640088
:1022B0003B19180006F090F93A197B499C256D00EE
:1022C0007B19180006F080FB6A4A7919694B1800DF
:1022D000FEF72DFC7B19180006F078FA3B19180060
:1022E00006F07BF9B62464003B19180006F074F977
:1022F0003A196E49AA256D007B19180006F064FB97
:102300005C4A79195B4B1800FEF711FC7B19180029
:1023100006F05CFA3B19180006F05FF9C42464006B
:102320003B19180006F058F93A196149B8256D00B3
:102330007B19180006F048FB4E4A79194D4B1800DE
:10234000FEF7F5FB7B19180006F040FA3B19180060
:1023500006F043F9D22464003B19180006F03CF95A
:102360003A195449C6256D007B19180006F02CFB5C
:10237000404A79193F4B1800FEF7D9FB7B1918002A
:1023800006F024FA3B19180006F027F9E02464004F
:102390003B19180006F020F93A194749D4256D0079
:1023A0007B19180006F010FB324A7919314B1800DE
:1023B000FEF7BDFB7B19180006F008FA3B19180060
:1023C00006F00BF9EE2464003B19180006F004F93E
:1023D0003A193A49E2256D007B19180006F0F4FA23
:1023E000244A7919234B1800FEF7A1FB7B1918002A
:1023F00006F0ECF93B19180006F0EFF8FC24640035
:102400003B19180006F0E8F83A192D49F0256D003F
:102410007B19180006F0D8FA164A7919154B1800DE
:10242000FEF785FB7B19180006F0D0F93B19180060
:1024300006F0D3F88524A4003B19180006F0CCF868
:102440003A192049FE256D007B19180006F0BCFAE8
:10245000084A7919074B180036E0C046B8FBFFFF61
:1024600040940008B4000020900000204894000828
:1024700054940008FC00002060940008D80000205C
:102480006C94000820010020789400086801002066
:10249000809400088C0100208C940008949400081B
:1024A0009C940008A4940008AC940008B49400081C
:1024B000BC940008C4940008CC940008D49400088C
:1024C000DC940008E4940008FEF731FB7B19180047
:1024D00006F07CF93B19180006F07FF88C24A40064
:1024E0003B19180006F078F83A19FE498625AD0028
:1024F0007B19180006F068FAFB4A7919FA4B1800A4
:10250000FEF715FB7B19180006F060F93B1918005F
:1025100006F063F89324A4003B19180006F05CF859
:102520003A19F2498D25AD007B19180006F04CFAD6
:10253000ED4A7919EC4B1800FEF7F9FA7B191800EF
:1025400006F044F93B19180006F047F89A24A40055
:102550003B19180006F040F83A19E5499425AD00FA
:102560007B19180006F030FADF4A7919DE4B1800A3
:10257000FEF7DDFA7B19180006F028F93B19180060
:1025800006F02BF8A124A4003B19180006F024F84B
:102590003A19D8499B25AD007B19180006F014FAAA
:1025A000D14A7919D04B1800FEF7C1FA7B191800EF
:1025B00006F00CF93B19180006F00FF8A824A40047
:1025C0003B19180006F008F83A19CB49A225AD00CE
:1025D0007B19180006F0F8F9C34A7919C24B1800A4
:1025E000FEF7A5FA7B19180006F0F0F83B19180061
:1025F00005F0F3FFAF24A4003B19180005F0ECFF31
:102600003A19BE49A925AD007B19180006F0DCF97E
:10261000B54A7919B44B1800FEF789FA7B191800EE
:1026200006F0D4F83B19180005F0D7FFB624A40033
:102630003B19180005F0D0FF3A19B149B025AD009B
:102640007B19180006F0C0F9A74A7919A64B1800A3
:10265000FEF76DFA7B19180006F0B8F83B19180060
:1026600005F0BBFFBD24A4003B19180005F0B4FF22
:102670003A19A449B725AD007B19180006F0A4F952
:10268000994A7919984B1800FEF751FA7B191800EE
:1026900006F09CF83B19180005F09FFFC424A40025
:1026A0003B19180005F098FF3A199749BE25AD006F
:1026B0007B19180006F088F98B4A79198A4B1800A3
:1026C000FEF735FA7B19180006F080F83B19180060
:1026D00005F083FFCB24A4003B19180005F07CFF14
:1026E0003A198A49C525AD007B19180006F06CF926
:1026F0007D4A79197C4B1800FEF719FA7B191800EE
:1027000006F064F83B19180005F067FFD224A40016
:102710003B19180005F060FF3A197D49CC25AD0042
:102720007B19180006F050F96F4A79196E4B1800A2
:10273000FEF7FDF97B19180006F048F83B19180060
:1027400005F04BFFD924A4003B19180005F044FF05
:102750003A197049D325AD007B19180006F034F9F9
:10276000614A7919604B1800FEF7E1F97B191800EE
:1027700006F02CF83B19180005F02FFFE024A40008
:102780003B19180005F028FF3A196349DA25AD0016
:102790007B19180006F018F9604A7919604B180087
:1027A000FEF7C5F97B19180006F010F83B19180060
:1027B00005F013FFE724A4003B19180005F00CFFF7
:1027C0003A195849E125AD007B19180006F0FCF8CC
:1027D000524A7919524B1800FEF7A9F97B191800D3
:1027E00005F0F4FF3B19180005F0F7FEEE24A400F5
:1027F0003B19180005F0F0FE3A194B49E825AD00E9
:102800007B19180006F0E0F8444A7919444B180087
:10281000FEF78DF97B19180005F0D8FF3B19180059
:1028200005F0DBFEF524A4003B19180005F0D4FEEA
:102830003A193E49EF25AD007B19180006F0C4F89F
:102840003B4A79193A4B1800FEF771F97B191800C9
:1028500005F0BCFF3B19180005F0BFFEFC24A400E6
:102860003B19180005F0B8FE3A193249F625AD00BB
:102870007B19180006F0A8F82D4A79192C4B18007E
:10288000FEF755F97B19180005F0A0FF3B19180059
:1028900005F0A3FE284C3B19180005F09DFE3A19DF
:1028A0002649FD25AD007B19180006F08DF8204A59
:1028B00079191F4B1800FEF73AF97B19180005F03B
:1028C00085FF3B19180005F088FE8524E4003B19BC
:1028D000180005F081FE3A1919498225ED007B198F
:1028E00018002FE08C940008D80000209494000871
:1028F0009C940008A4940008AC940008B4940008C8
:10290000BC940008C4940008CC940008D494000837
:10291000DC940008E4940008EC94000844010020D2
:1029200020010020F4940008FC940008049500089D
:1029300068010020109500080C0400001C95000898
:102940002895000806F040F8164A7919154B18002A
:10295000FEF7EDF87B19180005F038FF3B19180059
:1029600005F03BFE104C3B19180005F035FE3A19F6
:102970000E490F4D7B19180006F026F8094A7919FF
:10298000084B1800FEF7D3F87B19180005F01EFF5E
:102990003B19180005F021FEC046BD468923DB0027
:1029A0009D44B0BD8C010020440400003495000813
:1029B0002C04000080B582B000AF7860034B002289
:1029C0001A70C046BD4602B080BDC0468C000020D3
:1029D00080B582B000AF7860C046BD4602B080BD11
:1029E000B0B596B004AF01F05FFA00F0DDFA00F088
:1029F00065FC00F03DFC00F04DFB00F005FC00F034
:102A000095FB3B1DD94A03CA03C33B1D186859688F
:102A1000FFF7ECFAFFF724FBD54B7B647B6C1800C7
:102A2000FEF73FF800230293002301930023009355
:102A3000002300220021002000F020FE7A6CCC4B05
:102A40009A4200D084E100F081FE24243B19180052
:102A500005F0C2FD3A19C7490C257B19180005F08D
:102A6000B3FF7919C24B00221800FEF7B5F87B19A5
:102A7000180005F0ABFE3B19180005F0AEFD402430
:102A80003B19180005F0A8FD3A19BB4928257B1908
:102A9000180005F099FF7919B54B01221800FEF7CF
:102AA0009BF87B19180005F091FE3B19180005F002
:102AB00094FD7B6C1800FDF7F4FFB04B1800FDF798
:102AC00010FC031E07D0AD4B1800FDF7F1FB031EF1
:102AD00001D1012300E00023002B26D0A74B0121C8
:102AE0001800FDF7EFFB3B1D19685A680420FFF73B
:102AF000DFF8282001F02AFA3B1D18685968FFF713
:102B0000EFF9032001F022FA7B6C1800FDF7BCFD01
:102B10000300002201211800FDF71AFE7B6C18004B
:102B2000FDF7B2FD03007B6419E0944B1800FDF73C
:102B3000BFFB0300013B5A425341DBB2002B0ED0D6
:102B40008E4B1800FDF7FFFB03005A1E9341DBB2CA
:102B5000002B04D0894B00211800FDF7B3FB884BF4
:102B60001800FDF7BEFB031E07D0854B1800FDF7CC
:102B70009FFB031E01D1012300E00023002B26D080
:102B80007F4B01211800FDF79DFB3B1D19685A681A
:102B90000420FFF78DF8282001F0D8F93B1D1868B4
:102BA0005968FFF79DF9032001F0D0F97B6C1800FC
:102BB000FDF76AFD0300002201211800FDF7C8FDA2
:102BC0007B6C1800FDF760FD03007B6419E06C4B23
:102BD0001800FDF76DFB0300013B5A425341DBB285
:102BE000002B0ED0664B1800FDF7ADFB03005A1EFC
:102BF0009341DBB2002B04D0614B00211800FDF79C
:102C000061FB604B1800FDF76CFB031E07D05D4BAA
:102C10001800FDF74DFB031E01D1012300E0002346
:102C2000002B26D0574B01211800FDF74BFB3B1D15
:102C300019685A680420FFF73BF8282001F086F94C
:102C40003B1D18685968FFF74BF9032001F07EF926
:102C50007B6C1800FDF718FD03000022012118000D
:102C6000FDF776FD7B6C1800FDF70EFD03007B641D
:102C700019E0444B1800FDF71BFB0300013B5A42CF
:102C80005341DBB2002B0ED03E4B1800FDF75BFB2F
:102C900003005A1E9341DBB2002B04D0394B0021B4
:102CA0001800FDF70FFB384B1800FDF71AFB031E49
:102CB00007D0354B1800FDF7FBFA031E01D10123A5
:102CC00000E00023002B26D02F4B01211800FDF738
:102CD000F9FA3B1D19685A680420FEF7E9FF28201D
:102CE00001F034F93B1D18685968FFF7F9F8032023
:102CF00001F02CF97B6C1800FDF7C6FC03000022E4
:102D000001211800FDF724FD7B6C1800FDF7BCFCC9
:102D100003007B6492E61C4B1800FDF7C9FA030020
:102D2000013B5A425341DBB2002B00D186E6164BE1
:102D30001800FDF708FB03005A1E9341DBB2002B7D
:102D400000D17BE6104B00211800FDF7BBFA75E6B9
:102D50000A4B1800FDF7C5FA031E17D0074B1800E1
:102D6000FDF7A6FA031E11D1012310E04C950008CF
:102D700090000020BC030020C8030020D4030020E2
:102D8000EC030020040400201C0400200023002B7E
:102D900009D0804B01211800FDF794FA7B6C1800D4
:102DA000FDF75EFB19E07B4B1800FDF781FA03008D
:102DB000013B5A425341DBB2002B0ED0754B180039
:102DC000FDF7C1FA03005A1E9341DBB2002B04D079
:102DD000704B00211800FDF775FA6F4B1800FDF7D6
:102DE00080FA031E07D06C4B1800FDF761FA031E32
:102DF00001D1012300E00023002B09D0664B012103
:102E00001800FDF75FFA7B6C1800FDF7C0FB19E0B6
:102E1000614B1800FDF74CFA0300013B5A42534145
:102E2000DBB2002B0ED05C4B1800FDF78CFA0300D0
:102E30005A1E9341DBB2002B04D0574B00211800DF
:102E4000FDF740FA554B1800FDF74BFA031E07D06B
:102E5000524B1800FDF72CFA031E01D1012300E0AC
:102E60000023002B22D04D4B01211800FDF72AFA38
:102E70003B1D19685A680420FEF71AFF282001F04C
:102E800065F83B1D18685968FFF72AF8032001F020
:102E90005DF87B6C1800FDF7F7FB03007B647B6C2F
:102EA000002201211800FDF753FC19E03B4B1800EC
:102EB000FDF7FEF90300013B5A425341DBB2002B00
:102EC0000ED0364B1800FDF73EFA03005A1E934110
:102ED000DBB2002B04D0314B00211800FDF7F2F9D2
:102EE0002F4B1800FDF7FDF9031E07D02C4B1800DF
:102EF000FDF7DEF9031E01D1012300E00023002BC2
:102F00002BD0274B01211800FDF7DCF93B1D196878
:102F10005A680420FEF7CCFE282001F017F83B1D6C
:102F200018685968FEF7DCFF032001F00FF87B6C8E
:102F30001800FDF776FE03007B647A6C194B9A4209
:102F400006D07B6C002201211800FDF701FC75E51D
:102F50007B6C1800FDF7A5FD70E5114B1800FDF71F
:102F6000A7F90300013B5A425341DBB2002B00D1C9
:102F700064E50B4B1800FDF7E6F903005A1E934178
:102F8000DBB2002B00D159E5054B00211800FDF7FD
:102F900099F953E5D4030020EC0300200404002039
:102FA0001C0400209000002090B595B000AF2024B4
:102FB0003B19180030231A00002105F090FD102362
:102FC000FB18180010231A00002105F088FD3B00B3
:102FD000180010231A00002105F081FD21007B1844
:102FE0000A221A607B180122DA607B1810221A610B
:102FF0007B180122DA617B1802221A627B180022F8
:103000005A627B18A02292039A627B180022DA622D
:103010007B18180003F072FB03005A1E9341DBB2C9
:10302000002B01D000F0F0F910217B1807221A6064
:103030007B1802225A607B1800229A607B180022BB
:10304000DA607B180121180003F072FE03005A1E9B
:103050009341DBB2002B01D000F0D6F93B000C4AC3
:103060001A603B000022DA603B00802292005A6026
:103070003B00180003F0A0FF03005A1E9341DBB28F
:10308000002B01D000F0C0F9C046BD4615B090BD80
:103090002000010080B500AF214B224A1A60204B6E
:1030A000214A5A601E4B00229A601D4B0122DA60B1
:1030B0001B4B00221A611A4B00225A61184B002246
:1030C0009A61174B0022DA61154B00221A62144BE9
:1030D000180001F0EDFB03005A1E9341DBB2002BF8
:1030E00001D000F091F90E4B0021180003F06EFAA8
:1030F00003005A1E9341DBB2002B01D000F084F98B
:10310000074B0021180003F0ADFA03005A1E93414B
:10311000DBB2002B01D000F077F9C046BD4680BD80
:10312000B0010020005400400E09002080B586B098
:1031300000AF3B1D180014231A00002105F0CFFC3E
:103140003B0000221A602E4B2E4A1A602C4B0022A4
:103150005A602B4B7F229A60294B3822FF32DA606B
:10316000274B00221A61264B00225A61244B002271
:103170009A61234B180003F0EDFF03005A1E9341A0
:10318000DBB2002B01D000F03FF93B1D16221A7074
:103190003B1D10225A703B1D00229A703B1D0022DD
:1031A000DA603B1D00221A61391D154B01221800FF
:1031B00004F068F803005A1E9341DBB2002B01D0E3
:1031C00000F022F93B0004221A703B0003225A70DF
:1031D0003B0030229A703B002322DA703900084B02
:1031E0000122180004F052F903005A1E9341DBB289
:1031F000002B01D000F008F9C046BD4606B080BDE6
:103200008C0200200028004080B500AF164B174A02
:103210001A60154B962212025A60134B00229A60D4
:10322000114B0022DA60104B00221A610E4B0C2267
:103230005A610D4B00229A610B4B0022DA610A4B56
:1032400000221A62084B00225A62074B180004F051
:10325000D1FA03005A1E9341DBB2002B01D000F0DB
:10326000D3F8C046BD4680BDAC02002000440040FB
:1032700080B582B000AF104B5A690F4B01210A4351
:103280005A610D4B5B69012213407B607B68002211
:1032900000210A2000F02AFF0A2000F03CFF002253
:1032A00000210B2000F022FF0B2000F034FFC0466D
:1032B000BD4602B080BDC0460010024090B589B046
:1032C00000AF0C243B19180014231A00002105F04C
:1032D00006FC494B5A69484B802189020A435A61CE
:1032E000454B5A6980239B021340BB60BB68424B2D
:1032F0005A69414B8021C9020A435A613E4B5A69BF
:103300008023DB0213407B607B683B4B5A693A4B5E
:10331000802109030A435A61374B5A6980231B03F2
:1033200013403B603B68F0231B0234480022190025
:1033300001F0A0FAF0239B0031480022190001F0AF
:1033400099FAD82359019023DB050022180001F0D7
:1033500091FA3B192B4A1A603B1900225A603B191B
:1033600002229A603A199023DB051100180001F03F
:1033700011F921007B18F02212021A600C003B198F
:1033800001225A603B1900229A603B190022DA6040
:103390003B191A4A1900100001F0FCF821007B18B3
:1033A000F02292001A600C003B1901225A603B196E
:1033B00000229A603B190022DA603B19104A19007A
:1033C000100001F0E7F821007B18D82252011A60A2
:1033D0007B1801225A607B1800229A607B18002219
:1033E000DA607A189023DB051100180001F0D2F89A
:1033F000C046BD4609B090BD001002400004004820
:10340000000800483104000080B500AF72B6C04625
:10341000FEE780B582B000AF78607B6808331800A3
:1034200000F04CFC7B681800BD4602B080BD80B542
:1034300082B000AF78607B681433180000F0B6F8F3
:103440007B681800BD4602B080BD000080B582B028
:1034500000AF786039607B68012B4FD13B68454AEB
:1034600093424BD1444A454944484E23FCF7C1FF9F
:10347000414A424942484E23FCF7BBFF3E4A40497D
:1034800040484E23FCF7B5FF3B4A3D493E484E239A
:10349000FCF7AFFF384A3A493C484E23FCF7A9FFF6
:1034A000354A3A493A484E23FCF7A3FF324A344999
:1034B00038484E23FCF79DFF2F4A314936484E23AA
:1034C000FCF797FF9023D905344805230A22FCF71F
:1034D000B9FE9023D905324805230422FCF7B2FE39
:1034E0009023D9052F4805230522FCF7ABFE902336
:1034F000D9052D4805230022FCF7A4FE7B68002B8C
:1035000033D13B681B4A93422FD1274B1800FFF75A
:1035100080FF244B1800FFF77CFF214B1800FFF7BA
:1035200078FF1E4B1800FFF774FF1B4B1800FFF7C6
:103530007EFF184B1800FFF77AFF154B1800FFF7B6
:1035400076FF124B1800FFF772FF0F4B1800FFF7C2
:103550006EFF0C4B1800FFF76AFF094B1800FFF7CE
:1035600066FF064B1800FFF762FFC046BD4602B07B
:1035700080BDC046FFFF0000B00100209000002089
:10358000B4000020D8000020FC0000202001002012
:1035900044010020680100208C010020D403002099
:1035A000EC030020040400201C040020B0B582B00D
:1035B00000AF78607B681C687B685D687B6818007A
:1035C000FDF743FC03001A0029002000FDF746FC2C
:1035D0007B68180000F012F87B681800BD4602B046
:1035E000B0BD80B582B000AF78607B681800FDF791
:1035F0007EFB7B681800BD4602B080BD80B582B0FE
:1036000000AF78607B6818687B689A687B681B6885
:10361000D31A9A101300DB009B1899015B18DB008A
:103620009B18D9035B18DB009B185B421A007B6870
:1036300001001800FDF7F6FB7B681800FFF7D1FFCB
:103640007B681800BD4602B080BD000080B500AFA9
:10365000034B19000120FFF7F9FEBD4680BDC046AF
:10366000FFFF000080B500AF034B19000020FFF7FB
:10367000EDFEBD4680BDC046FFFF0000B0B588B07E
:1036800000AF05000C0010001900FB1D2A1C1A7069
:10369000BB1D221C1A707B1D021C1A703B1D0A1CCC
:1036A0001A700C243B19180014231A00002105F08D
:1036B00016FA0823FB1800221A603B19FA1D12782B
:1036C0001A703B19BA1D12785A703B197A1D12787C
:1036D0009A703B190022DA603B1900221A613919ED
:1036E000194B0122180003F0CDFD03005A1E93412F
:1036F000DBB2002B01D0FFF787FE08217B183A1DB3
:1037000012781A707A183023FB181B7853707B18C4
:103710003422BA1812789A707B183822BA181278A4
:10372000DA707918084B0122180003F0AFFE03008D
:103730005A1E9341DBB2002B01D0FFF765FEC04655
:10374000BD4608B0B0BDC0468C020020B0B588B000
:1037500002AF3900174B0022180003F039FE142580
:103760007919144B0022180003F020FF3B001B784E
:103770001A003B005B781C003B009B780E490F4809
:103780000093230005F0F2FA7B199B781A007B194D
:103790005B781C007B19DB78FA21C9008C466344F6
:1037A000074908480093230005F0E0FAC046BD46EB
:1037B00006B0B0BD8C02002054950008BC03002068
:1037C00064950008C803002080B582B000AF0F4B9D
:1037D0009A690E4B01210A439A610C4B9B690122A5
:1037E00013407B607B68094BDA69084B80214905EF
:1037F0000A43DA61054BDA6980235B0513403B60BD
:103800003B68C046BD4602B080BDC04600100240C5
:1038100090B58BB000AF786014243B1918001423C6
:103820001A00002105F05BF97B681B68464A934249
:1038300000D085E0454B5A69444B8021C9020A43B8
:103840005A61424B5A698023DB0213403B613B695A
:1038500021007B18C0221A607B1812225A607B1844
:1038600000229A607B180322DA607B1801221A6119
:103870007B18374A1900100000F08CFE334BDA69D0
:10388000324B802189030A43DA61304BDA698023A5
:103890009B031340FB60FB682E4B2F4A1A602D4B95
:1038A00000225A602B4B00229A602A4B8022DA6059
:1038B000284B00221A61274B00225A61254B002217
:1038C0009A61244B0022DA61224B180000F040FC80
:1038D000031E01D0FFF798FD7B681E4ADA631D4B7B
:1038E0007A685A621D4B1E4A1A601C4B10225A609D
:1038F0001A4B00229A60194B8022DA60174B002283
:103900001A61164B00225A61144B00229A61134B24
:103910000022DA61114B180000F01AFC031E01D0DE
:10392000FFF772FD7B680D4A9A630C4B7A685A6206
:1039300000220021172000F0D9FB172000F0EBFB3C
:10394000C046BD460BB090BD005400400010024080
:103950000004004804020020300002404802002019
:103960001C00024080B582B000AF78607B681B68A5
:10397000064A934206D1064B1A6A054B802109027A
:103980000A431A62C046BD4602B080BD002800400E
:103990000010024090B58BB000AF786014243B1942
:1039A000180014231A00002105F099F87B681B68A1
:1039B000474A934200D086E0464BDA69454B802166
:1039C00089020A43DA61434BDA6980239B02134080
:1039D0003B613B693F4B5A693E4B802189020A4358
:1039E0005A613C4B5A6980239B021340FB60FB6881
:1039F00021007B180C221A607B1802225A607B1867
:103A000000229A607B180322DA607B1801221A6177
:103A10007A189023DB051100180000F0BBFD2E4B37
:103A20002E4A1A602C4B00225A602B4B00229A60BF
:103A3000294B8022DA60284B00221A61264B002293
:103A40005A61254B00229A61234B0022DA61224BF6
:103A5000180000F07DFB031E01D0FFF7D5FC7B684A
:103A60001D4A5A671C4B7A685A621D4B1D4A1A60E0
:103A70001B4B10225A601A4B00229A60184B80226E
:103A8000DA60174B00221A61154B00225A61144B61
:103A900000229A61124B0022DA61114B180000F0EB
:103AA00057FB031E01D0FFF7AFFC7B680C4A1A6777
:103AB0000B4B7A685A62002200211C2000F016FB92
:103AC0001C2000F028FBC046BD460BB090BDC04690
:103AD000004400400010024034030020580002401F
:103AE000780300204400024080B500AFFEE780B5B7
:103AF00000AFFEE780B500AFC046BD4680BD80B5D3
:103B000000AFC046BD4680BD80B500AF00F096F95D
:103B1000C046BD4680BD000080B500AF054B180013
:103B200000F041FC044B180000F03DFCC046BD46CF
:103B300080BDC046480200200402002080B500AFCE
:103B4000054B180000F02FFC044B180000F02BFC74
:103B5000C046BD4680BDC046780300203403002027
:103B600080B500AF094B1B689A69E023DB00134066
:103B700004D0064B180001F051F803E0034B180085
:103B800001F032F8C046BD4680BDC046B0010020FD
:103B900080B500AF034B180003F080FEC046BD4661
:103BA00080BDC046AC02002080B500AF01231800E4
:103BB000BD4680BD80B582B000AF7860396004F04A
:103BC00029FF030016221A6001235B421800BD463C
:103BD00002B080BD80B582B000AF786001235A4248
:103BE0007B6811001800FFF7E5FFFEE780B586B09F
:103BF00000AF7860144A154BD31A7B617B693B6137
:103C0000134B1B68002B02D1114B124A1A60104B48
:103C10001A687B68D3183A699A4207D204F0FAFE10
:103C200003000C221A6001235B4209E0084B1B6869
:103C3000FB60074B1A687B68D218054B1A60FB685B
:103C40001800BD4606B080BD002000200004000022
:103C5000340400205804002080B500AFC046BD46A3
:103C600080BD000080B584B000AFF860B960190075
:103C7000FB1D1A70BB1D0A1C1A70FB1D1A78B9684F
:103C8000FB68180000F04EF8FB68BA1D127801219D
:103C9000100008401A7B01218A43111C021C0A43B0
:103CA0001A73054B1B685A1C034B1A60FB681800FB
:103CB000BD4604B080BDC0463804002080B582B047
:103CC00000AF7860044B1B685A1E034B1A607B6878
:103CD0001800BD4602B080BD3804002080B582B017
:103CE00000AF78607B681B7B01221340DBB2002BA6
:103CF00012D07B681A680A4B19687B689B68CB1ADC
:103D00009A4209D87B681A7B02210A431A737B689E
:103D10001A7B01218A431A73C046BD4602B080BD9A
:103D20003C04002080B584B000AFF860B960FB1D92
:103D30001A70FB681A7B04210A431A73FB68BA687D
:103D40005A60FB685A68FB681A600D4B1A68FB687A
:103D50009A60FB681A7B01210A431A73FB68FA1DFB
:103D6000127801210A4090181A7B02218A43111C03
:103D7000021C0A431A73C046BD4604B080BDC0464B
:103D80003C04002080B582B000AF78607B685A6840
:103D90007B681A60084B1A687B689A607B681A7B9C
:103DA00001210A431A737B681A7B02218A431A7322
:103DB000C046BD4602B080BD3C04002080B582B044
:103DC00000AF78607B681A7B01218A431A737B6895
:103DD0001A7B02218A431A73C046BD4602B080BDD9
:103DE00080B582B000AF78607B681800FFF776FF7F
:103DF0007B681B7B02221340DBB25A1E9341DBB26D
:103E00001800BD4602B080BD80B582B000AF7860BA
:103E10007B681B7B01221340DBB2002B08D17B683F
:103E20001B7B02221340DBB2002B01D1012300E0F7
:103E300000231800BD4602B080BD000080B500AF71
:103E4000034B1B685A1C024B1A60C046BD4680BD1E
:103E50003C0400200D488546FFF7FEFE0C480D4946
:103E60000D4A002302E0D458C4500433C4188C42D5
:103E7000F9D30A4A0A4C002301E013600432A2423B
:103E8000FBD304F0CDFDFEF7ABFDFEE700200020E4
:103E900000000020700000204C96000870000020F8
:103EA00058040020FEE7000080B500AF074B1A68F9
:103EB000064B10210A431A60002000F009F8FFF7B2
:103EC00083FC00231800BD4680BDC0460020024090
:103ED00090B583B000AF7860144B1C68144B1B780E
:103EE0001900FA239800FCF721F9030019002000BB
:103EF000FCF71CF90300180000F01DF9031E01D0A7
:103F000001230FE07B68032B0BD8796801235B4208
:103F10000022180000F0EAF8064B7A681A600023C5
:103F200000E001231800BD4603B090BD0000002052
:103F3000080000200400002080B500AF024B1B6881
:103F40001800BD4680BDC0464004002080B584B046
:103F500000AF7860FFF7F0FF0300BB607B68FB6099
:103F6000FB68013305D00A4B1B781A00FB689B18CD
:103F7000FB60C046FFF7E0FF0200BB68D31AFA6897
:103F80009A42F7D8C046C046BD4604B080BDC04680
:103F90000800002080B582B000AF0200FB1D1A703F
:103FA000FB1D1B787F2B09D8FB1D1B781A001F23D4
:103FB0001A40044B012191400A001A60C046BD46D8
:103FC00002B080BD00E100E090B583B000AF020018
:103FD0003960FB1D1A70FB1D1B787F2B28D82F4AD8
:103FE000FB1D1B785BB29B08C0339B009B58FA1DDE
:103FF0001278110003220A40D200FF2191400A00EA
:10400000D2431A4011003B689B01FF221A40FB1D5E
:104010001B78180003230340DB009A401F48FB1D58
:104020001B785BB29B080A43C0339B001A5031E0F7
:104030001B4AFB1D1B7819000F230B40083B9B08F4
:1040400006339B00D31804331B68FA1D1278110045
:1040500003220A40D200FF2191400A00D2431A40B5
:1040600011003B689B01FF221A40FB1D1B781800C2
:1040700003230340DB009A400948FB1D1B781C000A
:104080000F232340083B9B080A4306339B00C318B9
:1040900004331A60C046BD4603B090BD00E100E0A5
:1040A00000ED00E080B582B000AF78607B685A1EFA
:1040B00080235B049A4201D3012310E00A4B7A6803
:1040C000013A5A6001235B4203211800FFF77CFF8D
:1040D000054B00229A60044B07221A600023180047
:1040E000BD4602B080BDC04610E000E080B584B09F
:1040F00000AFB9607A600F217B18021C1A70BA6891
:104100007B181B785BB211001800FFF75DFFC046FB
:10411000BD4604B080BD80B582B000AF0200FB1D7B
:104120001A70FB1D1B785BB21800FFF733FFC04607
:10413000BD4602B080BD80B582B000AF78607B68BC
:104140001800FFF7AFFF03001800BD4602B080BDA6
:1041500080B584B000AF78600023FB607B68002BE3
:1041600001D1012336E07B682122022199547B682A
:104170001B681B68FB60FB68184A1340FB607B6888
:104180005A687B689B681A437B68DB681A437B68C4
:104190001B691A437B685B691A437B689B691A43F6
:1041A0007B68DB691343FA681343FB607B681B6819
:1041B000FA681A607B68180000F0D0F97B6800226A
:1041C0009A637B682122012199547B682022002177
:1041D000995400231800BD4604B080BD0FC0FFFFF6
:1041E00080B586B000AFF860B9607A603B60172395
:1041F000FB1800221A70FB6820229B5C012B01D166
:1042000002234FE0FB68202201219954FB68212200
:104210009B5CDBB2012B3AD1FB682122022199542D
:10422000FB6800229A63FB681B681A68FB681B68BE
:1042300001218A431A603B687A68B968F86800F01F
:1042400060F9FB68DB6A002B08D0FB681B681A6802
:10425000FB681B680E210A431A600FE0FB681B68AD
:104260001A68FB681B680A210A431A60FB681B680E
:104270001A68FB681B6804218A431A60FB681B6884
:104280001A68FB681B6801210A431A6007E0FB6893
:104290002022002199541723FB1802221A70172399
:1042A000FB181B781800BD4606B080BD80B582B0F3
:1042B00000AF78607B6821229B5CDBB2022B08D0C8
:1042C0007B6804229A637B68202200219954012391
:1042D00020E07B681B681A687B681B680E218A4394
:1042E0001A607B681B681A687B681B6801218A4317
:1042F0001A607B681A6C7B68DB6B012191400A00B5
:104300005A607B682122012199547B682022002178
:10431000995400231800BD4602B080BD80B584B01A
:1043200000AF78600F217B1800221A707B68212271
:104330009B5CDBB2022B06D07B6804229A637B185D
:1043400001221A7028E07B681B681A687B681B686A
:104350000E218A431A607B681B681A687B681B6899
:1043600001218A431A607B681A6C7B68DB6B012130
:1043700091400A005A607B682122012199547B6890
:104380002022002199547B685B6B002B04D07B6852
:104390005B6B7A68100098470F23FB181B78180096
:1043A000BD4604B080BD80B584B000AF78607B6846
:1043B000DB6B1B68FB607B681B681B68BB607B68F2
:1043C0001B6C04229A401300FA68134024D0BB6887
:1043D0000422134020D07B681B681B6820221340F6
:1043E00007D17B681B681A687B681B6804218A43B5
:1043F0001A607B681A6C7B68DB6B042191400A00B1
:104400005A607B68DB6A002B00D16AE07B68DB6A5C
:104410007A681000984764E07B681B6C02229A401F
:104420001300FA6813402BD0BB680222134027D038
:104430007B681B681B68202213400BD17B681B68BC
:104440001A687B681B680A218A431A607B682122EC
:10445000012199547B681A6C7B68DB6B02219140C7
:104460000A005A607B682022002199547B689B6A6D
:10447000002B36D07B689B6A7A681000984730E042
:104480007B681B6C08229A401300FA68134028D0FE
:10449000BB680822134024D07B681B681A687B68BD
:1044A0001B680E218A431A607B681A6C7B68DB6B81
:1044B000012191400A005A607B6801229A637B685F
:1044C0002122012199547B682022002199547B6884
:1044D0001B6B002B05D07B681B6B7A68100098471C
:1044E000FFE7C046BD4604B080BD80B582B000AFD6
:1044F00078607B6821229B5CDBB21800BD4602B06D
:1045000080BD80B584B000AFF860B9607A603B6070
:10451000FB681A6CFB68DB6B012191400A005A6052
:10452000FB681B683A685A60FB685B68102B08D10F
:10453000FB681B687A689A60FB681B68BA68DA6077
:1045400007E0FB681B68BA689A60FB681B687A68BA
:10455000DA60C046BD4604B080BD000080B582B0C0
:1045600000AF78607B681B68084A94466344142156
:104570001800FBF7DBFD03009A007B681A647B6878
:10458000034ADA63C046BD4602B080BDF8FFFDBFF6
:104590000000024080B586B000AF7860396000232B
:1045A0007B614FE13B681B6801217A6991400A00F9
:1045B0001340FB60FB68002B00D140E13B685B6867
:1045C00003221340012B05D03B685B680322134094
:1045D000022B30D17B689B683B617B695B000322C7
:1045E0009A401300DA433B6913403B613B68DA6849
:1045F0007B695B009A4013003A6913433B617B6817
:104600003A699A607B685B683B6101227B699A40EA
:104610001300DA433B6913403B613B685B681B094D
:1046200001221A407B699A4013003A6913433B61A7
:104630007B683A695A603B685B6803221340032B2E
:1046400017D07B68DB683B617B695B0003229A4083
:104650001300DA433B6913403B613B689A687B690E
:104660005B009A4013003A6913433B617B683A69E7
:10467000DA603B685B6803221340022B23D17B691D
:10468000DA087B6808329200D3583B617B690722C5
:1046900013409B000F229A401300DA433B691340FA
:1046A0003B613B681A697B6907210B409B009A407C
:1046B00013003A6913433B617B69DA087B6808326F
:1046C00092003969D1507B681B683B617B695B0054
:1046D00003229A401300DA433B6913403B613B6875
:1046E0005B6803221A407B695B009A4013003A69B9
:1046F00013433B617B683A691A603B685A68C02380
:104700009B02134000D19AE0544B9A69534B01210C
:104710000A439A61514B9B6901221340BB60BB68FD
:104720004F4A7B699B0802339B009B583B617B6926
:10473000032213409B000F229A401300DA433B6987
:1047400013403B617A689023DB059A4213D07B6863
:10475000444A93420DD07B68434A934207D07B681A
:10476000424A934201D1032306E0052304E00223D9
:1047700002E0012300E000237A6903210A4092004D
:1047800093403A6913433B6135497B699B08023387
:104790009B003A695A50364B9B683B61FB68DA4391
:1047A0003B6913403B613B685A6880235B031340BD
:1047B00003D03A69FB6813433B612D4B3A699A6019
:1047C0002B4BDB683B61FB68DA433B6913403B6181
:1047D0003B685A6880239B03134003D03A69FB6807
:1047E00013433B61224B3A69DA60214B5B683B61C2
:1047F000FB68DA433B6913403B613B685A6880239E
:104800009B02134003D03A69FB6813433B61184B8A
:104810003A695A60164B1B683B61FB68DA433B6997
:1048200013403B613B685A6880235B02134003D00E
:104830003A69FB6813433B610D4B3A691A607B6927
:1048400001337B613B681A687B69DA40131E00D034
:10485000A8E6C046C046BD4606B080BD0010024076
:10486000000001400004004800080048000C004817
:104870000004014080B582B000AF786008001100EC
:10488000BB1C021C1A807B1C0A1C1A707B1C1B7828
:10489000002B04D0BB1C1A887B689A6103E0BB1C08
:1048A0001A887B689A62C046BD4602B080BD00008F
:1048B00080B582B000AF78607B68002B01D1012306
:1048C00082E07B6841229B5CDBB2002B07D17B68D6
:1048D0004022002199547B681800FEF799FF7B68FD
:1048E0004122242199547B681B681A687B681B68E5
:1048F00001218A431A607B685A687B681B683449C7
:104900000A401A617B681B689A687B681B6831499A
:104910000A409A607B68DB68012B08D17B689A6843
:104920007B681B68802109020A439A6007E07B6864
:104930009A687B681B68842109020A439A607B6835
:10494000DB68022B04D17B681B68802212015A604D
:104950007B681B685A687B681B681F490A435A605A
:104960007B681B68DA687B681B681A490A40DA6052
:104970007B681A697B685B691A4311007B689B69D5
:104980001A027B681B680A43DA607B68D9697B6816
:104990001A6A7B681B680A431A607B681B681A687E
:1049A0007B681B6801210A431A607B6800225A64F5
:1049B0007B684122202199547B6800221A637B681E
:1049C00042220021995400231800BD4602B080BD48
:1049D000FFFFFFF0FF7FFFFF00800002B0B588B04F
:1049E00002AFF86008007A6019000A23FB18021C65
:1049F0001A800823FB180A1C1A80FB6841229B5C62
:104A0000DBB2202B00D0DDE0FB681B689A698023B5
:104A10001B021A4080231B029A4201D10223D2E0DA
:104A2000FB6840229B5C012B01D10223CBE0FB6899
:104A3000402201219954FB68412221219954FB68AD
:104A4000422210219954FB6800225A64FB687A685C
:104A50005A62FB680822BA1812885A85FB685C4AB9
:104A6000DA62FB685B4A5A63FB685B8D9BB2FF2B83
:104A700006D9FB68FF221A8580235B047B6107E06F
:104A8000FB685B8D9AB2FB681A8580239B047B616F
:104A9000FB681B8D002B00D178E0FB689B6B002B23
:104AA00023D0FB689B6B4C4A9A62FB689B6B4B4A1A
:104AB0001A63FB689B6B0022DA62FB689B6B002227
:104AC0005A63FB68986B7968FB681B6828331A0087
:104AD000FB681B8D13257C19FFF782FB03002370F5
:104AE0007B191B78002B3DD113E0FB68412220216C
:104AF0009954FB68422200219954FB685B6C802228
:104B00001A43FB685A64FB68402200219954012330
:104B100059E0FB681B8DDAB27C690A23FB181988FF
:104B2000F8682F4B0093230001F024FCFB685B8D99
:104B30009AB2FB681B8DD31A9AB2FB685A85FB6840
:104B4000402200219954FB681021180001F04CFC10
:104B5000FB681B681A68FB681B688021C9010A434F
:104B60001A602DE0FB68412220219954FB68422203
:104B700000219954FB685B6C10221A43FB685A644D
:104B8000FB6840220021995401231CE0FB68154A70
:104B90005A63FB681B8DDAB280239C040A23FB183E
:104BA0001988F8680E4B0093230001F0E3FBFB68C3
:104BB000402200219954FB680121180001F014FCE7
:104BC000002300E002231800BD4606B0B0BDC04679
:104BD0000000FFFF2D520008656200080563000811
:104BE00000200080814D000880B584B000AF78605F
:104BF0007B681B689B69FB607B681B681B68BB60EC
:104C00007B685B6B002B05D07B685B6BBA68F968CF
:104C100078689847C046BD4604B080BD80B586B070
:104C200000AF78607B681B689B697B617B681B6851
:104C30001B683B617B691B0A1A000123134010D0DB
:104C40003B69DB091A00012313400AD07B685B6CC7
:104C500001221A437B685A647B681B6880225200D9
:104C6000DA617B699B0A1A000123134010D03B696B
:104C7000DB091A00012313400AD07B685B6C082211
:104C80001A437B685A647B681B688022D200DA6111
:104C90007B695B0A1A000123134010D03B69DB09D2
:104CA0001A00012313400AD07B685B6C02221A436E
:104CB0007B685A647B681B6880229200DA617B689B
:104CC0005B6CFB60FB680B22134005D0FA687B68C5
:104CD0001100180001F078F9C046BD4606B080BD4D
:104CE00080B582B000AF7860C046BD4602B080BDDE
:104CF00080B582B000AF7860C046BD4602B080BDCE
:104D000080B582B000AF7860C046BD4602B080BDBD
:104D100080B582B000AF786008001100FB1C021C57
:104D20001A703B000A1C1A80C046BD4602B080BD06
:104D300080B582B000AF7860C046BD4602B080BD8D
:104D400080B582B000AF7860C046BD4602B080BD7D
:104D500080B582B000AF7860C046BD4602B080BD6D
:104D600080B582B000AF7860C046BD4602B080BD5D
:104D700080B582B000AF7860C046BD4602B080BD4D
:104D800090B589B002AFF860B9607A60BB687B61AA
:104D9000FB6840229B5C012B01D102232BE1FB68C5
:104DA0004022012199547B691B091A0001231340F9
:104DB00014D07B681B091A00012313400ED0FB6836
:104DC0001B681022DA61FB685B6C04221A43FB68E3
:104DD0005A64FB68180001F022FAF5E07B699B0831
:104DE0001A000123134023D07B689B081A0001237B
:104DF00013401DD07B69042293437B61FB681B68D1
:104E00005A6AFB685B6AD2B21A70FB685B6A5A1C0A
:104E1000FB685A62FB681B8D013B9AB2FB681A85DE
:104E2000FB685B8D9BB2013B9AB2FB685A85CBE075
:104E30007B695B081A00012313401ED07B685B0866
:104E40001A000123134018D0FB685B6A1A78FB68CC
:104E50001B689A62FB685B6A5A1CFB685A62FB68B3
:104E60001B8D013B9AB2FB681A85FB685B8D9BB278
:104E7000013B9AB2FB685A85A6E07B69DB091A0000
:104E80000123134000D16BE07B689B091A000123CA
:104E9000134065D0FB685B8D9BB2002B4AD0FB684A
:104EA0001B8D002B46D1FB681B685B689AB21221F0
:104EB0007B189205920D1A80FB685B8D9BB2FF2BCD
:104EC00010D9FB68FF221A85FB681B8DDAB280239C
:104ED0005C047B181988F86800230093230001F014
:104EE00049FA3CE0FB685B8D9AB2FB681A85FB6867
:104EF000DB6A434A93420ED0FB681B8DDAB2FB6833
:104F0000DC6A1223FB181988F86800230093230039
:104F100001F030FA23E0FB681B8DDAB280239C0499
:104F20001223FB181988F86800230093230001F06E
:104F300021FA14E0FB681B685A6880239B041A401E
:104F400080239B049A4204D0FB68180000F044FDC3
:104F50003AE0FB684021180001F036F834E033E015
:104F60007B699B091A00012313402DD07B689B09A4
:104F70001A000123134027D0FB685B8D9BB2002BE6
:104F80001DD1FB681B685A6880239B041A4080234C
:104F90009B049A4218D0FB68DB6A194A934209D1F4
:104FA000FB681B685A68FB681B688021C9010A43BB
:104FB0005A6009E0FB68180000F00EFD04E0FB6891
:104FC0004021180001F000F87B695B091A000123F9
:104FD00013400BD07B685B091A000123134005D0F6
:104FE0007A69FB681100180000F09EFDFB68402202
:104FF0000021995400231800BD4607B090BDC0465B
:105000000000FFFF80B586B000AFF860B9607A603D
:10501000FB68DB6A7B61BB683B61FB6840229B5C91
:10502000012B01D10223FAE0FB68402201219954AF
:105030003B695B091A00012313400BD07B685B09B5
:105040001A000123134005D03A69FB6811001800CB
:1050500000F03CFE3B691B091A000123134054D0A9
:105060007B681B091A00012313404ED0FB685B8D3F
:105070009BB2002B2DD1FB6841229B5CDBB2282B1D
:105080000BD17A6980239B049A4206D13A69FB6866
:105090001100180000F03EFF36E0FB6841229B5CE7
:1050A000DBB2292B10D17B695F4A93420CD0FB689D
:1050B0001B681022DA61FB68180001F0B0F8FB6889
:1050C000180000F0CBFC1FE0FB681B681022DA61BF
:1050D0009DE0FB681B681022DA61FB685B6C0422B0
:1050E0001A43FB685A647B69002B05D07A698023D8
:1050F0005B049A4200D08AE0FB685A6CFB6811009E
:10510000180000F061FF82E081E03B699B081A0013
:105110000123134031D07B689B081A000123134000
:105120002BD0FB685B8D9BB2002B18D0FB681B68F3
:105130005A6AFB685B6AD2B21A70FB685B6A5A1CD7
:10514000FB685A62FB681B8D013B9AB2FB681A85AB
:10515000FB685B8D9BB2013B9AB2FB685A85FB688A
:105160005B8D9BB2002B54D17B692F4A934250D068
:10517000FB68180000F072FC4BE03B69DB081A008A
:10518000012313400CD07B68DB081A000123134075
:1051900006D03A69FB681100180000F079FB39E08D
:1051A0003B695B081A000123134033D07B685B081E
:1051B0001A00012313402DD0FB685B8D9BB2002B9E
:1051C00018D0FB685B6A1A78FB681B689A62FB68F8
:1051D0005B6A5A1CFB685A62FB685B8D9BB2013BA1
:1051E0009AB2FB685A85FB681B8D013B9AB2FB683B
:1051F0001A850FE07A6980235B049A4202D07B69AA
:10520000002B07D1FB68180000F028FC02E0C04624
:1052100000E0C046FB68402200219954002318009A
:10522000BD4606B080BDC0460000FFFF90B589B006
:1052300002AFF860B9607A60FB6840229B5C012B8A
:1052400001D10223F7E0FB68402201219954BB6899
:105250001B091A000123134019D07B681B091A008F
:105260000123134013D0FB681B681022DA61FB682E
:105270005B6C04221A43FB685A64FB682021180007
:1052800001F0B2F8FB68180000F0C9FFCEE0BB687F
:10529000DB091A000123134000D17EE07B689B09E3
:1052A0001A000123134000D177E0FB681B681A68DD
:1052B000FB681B6840218A431A60FB685B8D9BB2C8
:1052C000002B55D0FB681B685B689AB21223FB1851
:1052D0009205920D1A80FB685B8D9BB2FF2B06D95D
:1052E000FB68FF221A8580235B047B6110E0FB686A
:1052F0005B8D9AB2FB681A85FB68DB6A504A934261
:1053000003D0FB68DB6A7B6102E080239B047B6146
:10531000FB681B8DDAB27C691223FB181988F868C8
:1053200000230093230001F025F8FB685B8D9AB2FF
:10533000FB681B8DD31A9AB2FB685A85FB68412221
:105340009B5CDBB2222B09D1FB681B681A68FB68E7
:105350001B68802109020A431A6067E0FB681B682A
:105360001A68FB681B688021C9010A431A605DE066
:10537000FB681B685A6880239B041A4080239B04A7
:105380009A4204D0FB68180000F026FB4EE0FB6850
:105390004021180000F018FE48E0BB689B091A0085
:1053A000012313402ED07B689B091A000123134070
:1053B00028D0FB685B8D9BB2002B1DD1FB681B685E
:1053C0005A6880239B041A4080239B049A422CD065
:1053D000FB68DB6A1A4A934209D1FB681B685A686A
:1053E000FB681B688021C9010A435A601DE0FB6805
:1053F000180000F0F1FA18E0FB684021180000F0F6
:10540000E3FD12E0BB685B091A00012313400DD0D5
:105410007B685B091A000123134007D0BA68FB6858
:105420001100180000F080FB00E0C046FB6840223D
:105430000021995400231800BD4607B090BDC04616
:105440000000FFFF90B589B002AFF860B9607A60E4
:10545000924B7B61FB6840229B5C012B01D10223B4
:1054600018E1FB68402201219954BB681B091A000E
:105470000123134019D07B681B091A000123134034
:1054800013D0FB681B681022DA61FB685B6C042296
:105490001A43FB685A64FB682021180000F0A4FF3F
:1054A000FB68180000F0BBFEEFE0BB685B081A0069
:1054B000012313400FD07B685B081A0001231340BF
:1054C00009D0FB681B68FA68126D9A62FB680122BA
:1054D00052421A65D9E0BB68DB091A000123134068
:1054E00060D07B689B091A00012313405AD0FB68E7
:1054F0001021180000F078FFFB685B8D9BB2002B39
:105500004AD0FB685B8D9BB2FF2B10D9FB68FF2252
:105510001A85FB68DB6C99B2FB681B8DDAB28023BD
:105520005B04F8680024009400F024FF11E0FB689D
:105530005B8D9AB2FB681A85FB68DB6C99B2FB68DD
:105540001B8DDAB280239B04F8680024009400F0DD
:1055500011FFFB685B8D9AB2FB681B8DD31A9AB260
:10556000FB685A85FB6841229B5CDBB2222B09D188
:10557000FB681B681A68FB681B68802109020A43E4
:105580001A6082E0FB681B681A68FB681B68802150
:10559000C9010A431A6078E0FB684021180000F056
:1055A00013FD72E0BB689B091A00012313405AD017
:1055B0007B689B091A000123134054D0FB684122E9
:1055C0009B5CDBB2222B01D1354B7B61FB685B8D91
:1055D0009BB2FF2B11D9FB68FF221A85FB68DB6C9D
:1055E00099B2FB681B8DDAB280235C04F8687B6992
:1055F0000093230000F0BEFE12E0FB685B8D9AB2C0
:10560000FB681A85FB68DB6C99B2FB681B8DDAB20C
:1056100080239C04F8687B690093230000F0AAFEB5
:10562000FB685B8D9AB2FB681B8DD31A9AB2FB683C
:105630005A85FB6841229B5CDBB2222B09D1FB68B7
:105640001B681A68FB681B68802109020A431A60FC
:105650001BE0FB681B681A68FB681B688021C90196
:105660000A431A6011E0BB685B091A00012313406A
:105670000BD07B685B091A000123134005D0BA6880
:10568000FB681100180000F04FFAFB68402200216F
:10569000995400231800BD4607B090BD002000803B
:1056A0000024008080B588B000AFF860B9607A60EF
:1056B000FB68DB6ABB610023FB61FB6840229B5CEB
:1056C000012B01D10223DDE0FB6840220121995426
:1056D000BB685B091A00012313400BD07B685B0990
:1056E0001A000123134005D0BA68FB6811001800A6
:1056F00000F0ECFABB681B091A000123134000D12B
:10570000A9E07B681B091A000123134000D1A2E025
:105710007B689B0B1A000123134006D17B68DB0BCF
:105720001A000123134000D18EE0FB68DB6B002BD5
:105730000DD07B68DB0B1A000123134007D0FB68F8
:10574000DB6B1B685B68002B01D10123FB61FB68ED
:105750009B6B002B0DD07B689B0B1A000123134021
:1057600007D0FB689B6B1B685B68002B01D1012392
:10577000FB61FB69012B2DD1FB6841229B5CDBB2F5
:10578000282B0BD1BA6980239B049A4206D1BA68B0
:10579000FB681100180000F0BDFB54E0FB684122DB
:1057A0009B5CDBB2292B10D1BB69384A93420CD0E9
:1057B000FB681B681022DA61FB68180000F02FFDFF
:1057C000FB68180000F04AF93DE0FB681B681022F6
:1057D000DA613EE0FB681B681022DA61FB685B6CF3
:1057E00004221A43FB685A641723FB18FA68412104
:1057F000525C1A70BB69002B04D0BA6980235B0429
:105800009A4226D11722BB181B78212B03D0BB1834
:105810001B78292B03D1FB6821221A630BE0172286
:10582000BB181B78222B03D0BB181B782A2B02D164
:10583000FB6822221A63FB685A6CFB68110018008F
:1058400000F0C2FB05E004E0FB681B681022DA618F
:1058500013E0C04611E0BB68DB081A0001231340C7
:105860000BD07B68DB081A000123134005D0BA680F
:10587000FB681100180000F00BF8FB6840220021C3
:10588000995400231800BD4608B080BD0000FFFFFA
:10589000B0B584B000AF786039607B6841229B5C12
:1058A000DBB21A0028231340282B00D088E07B6845
:1058B0001B689B691B0CDAB20F257B1901210A407A
:1058C0001A707B681B689B691B0C9AB20C203B18F2
:1058D000FE210A401A807B681B689B689AB20A24E2
:1058E0003B199205920D1A807B681B68DB689AB29F
:1058F0000823FB18FE210A401A807B68DB68022B14
:1059000048D121007B181B88DB099AB23B181B8801
:1059100053409BB21A000623134020D13B187A183B
:1059200012881A807B689B6C5A1C7B689A647B681F
:105930009B6C022B4CD17B6800229A647B681B68AD
:105940000822DA617B684022002199543B181A88AA
:105950007B1919787B681800FFF7DAF938E00C2416
:105960003B190822BA1812881A8080231A027B6811
:105970001100180000F0C6FD7B68402200219954F8
:105980003B191A880F23FB1819787B681800FFF75A
:10599000BFF91DE080231A027B681100180000F097
:1059A000B1FD7B684022002199540C23FB181A8812
:1059B0000F23FB1819787B681800FFF7A9F907E097
:1059C0007B681B680822DA617B68402200219954B9
:1059D000C046BD4604B0B0BD80B582B000AF7860AF
:1059E0007B684222002199547B6841229B5CDBB298
:1059F000212B17D17B684122202199547B681122E9
:105A00001A637B6800225A637B680121180000F04A
:105A100079FD7B684022002199547B681800FCF7CF
:105A2000C9FF16E07B684122202199547B6812222D
:105A30001A637B6800225A637B680221180000F019
:105A400061FD7B684022002199547B681800FFF7B4
:105A500047F9C046BD4602B080BD000080B584B0A5
:105A600000AF78607B681B681B68FB607B68422224
:105A700000219954FB689B0B1A000123134008D0A6
:105A80007B681B681A687B681B6825490A401A6096
:105A90000DE0FB68DB0B1A000123134007D07B6885
:105AA0001B681A687B681B681E490A401A607B687D
:105AB00041229B5CDBB2292B14D17B684122282137
:105AC00099547B6821221A637B680121180000F039
:105AD00019FD7B684022002199547B681800FFF76C
